:020000040800F2
:100000000000022031640008836400088564000851
:1000100087640008896400088B6400080000000001
:100020000000000000000000000000008D640008D7
:100030008F64000800000000916400080D22000891
:1000400081640008816400088164000881640008FC
:10005000816400088164000889240008A125000843
:1000600081640008816400088164000881640008DC
:1000700081640008816400088164000881640008CC
:100080008164000881640008216000088164000820
:10009000816400088164000881640008692C0008FC
:1000A000816400088164000881640008816400089C
:1000B000816400080D3D0008F130000881640008EB
:1000C000816400088164000881640008816400087C
:1000D000816400088164000881640008816400086C
:1000E000816400088164000881640008816400085C
:1000F000793C0008C13C0008816400088164000864
:1001000081640008816400081136000881640008D9
:100110008164000881640008A1590008293E000894
:10012000816400088164000881640008816400081B
:10013000816400088164000881640008816400080B
:1001400081640008816400088164000881640008FB
:1001500081640008816400088164000881640008EB
:1001600081640008816400088164000881640008DB
:1001700081640008816400088164000881640008CB
:0801800081640008816400089D
:1001880010B5054C237833B9044B13B10448AFF3C9
:1001980000800123237010BD8002002000000000B1
:1001A800C866000808B5034B1BB103490348AFF301
:1001B800008008BD0000000084020020C866000816
:1001C800034613F8012B002AFBD1181A013870478F
:1001D80081F0004102E000BF83F0004330B54FEAF0
:1001E80041044FEA430594EA050F08BF90EA020F5D
:1001F8001FBF54EA000C55EA020C7FEA645C7FEAF0
:10020800655C00F0E2804FEA5454D4EB5555B8BF12
:100218006D420CDD2C4480EA020281EA030382EA83
:10022800000083EA010180EA020281EA0303362D15
:1002380088BF30BD11F0004F4FEA01314FF4801CE8
:100248004CEA113102D0404261EB410113F0004FFA
:100258004FEA03334CEA133302D0524263EB4303B1
:1002680094EA050F00F0A780A4F10104D5F1200E4F
:100278000DDB02FA0EFC22FA05F2801841F10001AA
:1002880003FA0EF2801843FA05F359410EE0A5F17E
:1002980020050EF1200E012A03FA0EFC28BF4CF0AF
:1002A800020C43FA05F3C01851EBE37101F0004565
:1002B80007D54FF0000EDCF1000C7EEB00006EEB72
:1002C8000101B1F5801F1BD3B1F5001F0CD34908FC
:1002D8005FEA30004FEA3C0C04F101044FEA445253
:1002E80012F5800F80F09A80BCF1004F08BF5FEADA
:1002F800500C50F1000041EB045141EA050130BDBA
:100308005FEA4C0C404141EB010111F4801FA4F15C
:100318000104E9D191F0000F04BF01460020B1FAB1
:1003280081F308BF2033A3F10B03B3F120020CDAE9
:100338000C3208DD02F1140CC2F10C0201FA0CF0C7
:1003480021FA02F10CE002F11402D8BFC2F1200C2C
:1003580001FA02F120FA0CFCDCBF41EA0C019040E2
:10036800E41AA2BF01EB0451294330BD6FEA04042B
:100378001F3C1CDA0C340EDC04F11404C4F1200216
:1003880020FA04F001FA02F340EA030021FA04F328
:1003980045EA030130BDC4F10C04C4F1200220FA7F
:1003A80002F001FA04F340EA0300294630BD21FABD
:1003B80004F0294630BD94F0000F83F4801306BF83
:1003C80081F480110134013D4EE77FEA645C18BF77
:1003D8007FEA655C29D094EA050F08BF90EA020F0E
:1003E80005D054EA000C04BF1946104630BD91EA06
:1003F800030F1EBF0021002030BD5FEA545C05D109
:100408004000494128BF41F0004130BD14F5800447
:100418003CBF01F5801130BD01F0004545F0FE41BB
:1004280041F470014FF0000030BD7FEA645C1ABFF0
:10043800194610467FEA655C1CBF0B46024650EA27
:10044800013406BF52EA033591EA030F41F4002153
:1004580030BD00BF90F0000F04BF0021704730B5D9
:100468004FF4806404F132044FF000054FF00001AE
:1004780050E700BF90F0000F04BF0021704730B56F
:100488004FF4806404F1320410F0004548BF404244
:100498004FF000013EE700BF42004FEAE2014FEA99
:1004A80031014FEA02701FBF12F07F4393F07F4F74
:1004B80081F06051704732F07F4208BF704793F077
:1004C8007F4F04BF41F40021704730B54FF460748A
:1004D80001F0004521F000411CE700BF50EA01028D
:1004E80008BF704730B54FF000050AE050EA010236
:1004F80008BF704730B511F0004502D5404261EBA6
:1005080041014FF4806404F132045FEA915C3FF4E6
:10051800D8AE4FF003025FEADC0C18BF03325FEA83
:10052800DC0C18BF033202EBDC02C2F1200300FA34
:1005380003FC20FA02F001FA03FE40EA0E0021FA59
:1005480002F11444BDE600BF70B54FF0FF0C4CF447
:10055800E06C1CEA11541DBF1CEA135594EA0C0FF9
:1005680095EA0C0F00F0DEF82C4481EA030621EA34
:100578004C5123EA4C5350EA013518BF52EA03356F
:1005880041F4801143F4801338D0A0FB02CE4FF021
:100598000005E1FB02E506F00042E0FB03E54FF051
:1005A8000006E1FB03569CF0000F18BF4EF0010E49
:1005B800A4F1FF04B6F5007F64F5407404D25FEA45
:1005C8004E0E6D4146EB060642EAC62141EA5551F8
:1005D8004FEAC52040EA5E504FEACE2EB4F1FD0C3A
:1005E80088BFBCF5E06F1ED8BEF1004F08BF5FEAB8
:1005F800500E50F1000041EB045170BD06F000466A
:1006080046EA010140EA020081EA0301B4EB5C0416
:10061800C2BFD4EB0C0541EA045170BD41F480110E
:100628004FF0000E013C00F3AB8014F1360FDEBF33
:10063800002001F0004170BDC4F10004203C35DA0F
:100648000C341BDC04F11404C4F1200500FA05F392
:1006580020FA04F001FA05F240EA020001F0004233
:1006680021F0004110EBD37021FA04F642EB0601A9
:100678005EEA430E08BF20EAD37070BDC4F10C04D3
:10068800C4F1200500FA04F320FA05F001FA04F297
:1006980040EA020001F0004110EBD37041F1000183
:1006A8005EEA430E08BF20EAD37070BDC4F120058E
:1006B80000FA05F24EEA020E20FA04F301FA05F2F6
:1006C80043EA020321FA04F001F0004121FA04F29E
:1006D80020EA020000EBD3705EEA430E08BF20EA6E
:1006E800D37070BD94F0000F0FD101F000464000A8
:1006F80041EB010111F4801F08BF013CF7D041EA2A
:10070800060195F0000F18BF704703F0004652002D
:1007180043EB030313F4801F08BF013DF7D043EAFE
:100728000603704794EA0C0F0CEA135518BF95EAB4
:100738000C0F0CD050EA410618BF52EA4306D1D13B
:1007480081EA030101F000414FF0000070BD50EA5A
:10075800410606BF1046194652EA430619D094EAE4
:100768000C0F02D150EA013613D195EA0C0F05D1CE
:1007780052EA03361CBF104619460AD181EA030122
:1007880001F0004141F0FE4141F470014FF00000DA
:1007980070BD41F0FE4141F4780170BD70B54FF075
:1007A800FF0C4CF4E06C1CEA11541DBF1CEA1355F5
:1007B80094EA0C0F95EA0C0F00F0A7F8A4EB0504D7
:1007C80081EA030E52EA03354FEA013100F08880CE
:1007D8004FEA03334FF0805545EA131343EA126397
:1007E8004FEA022245EA111545EA10654FEA00264C
:1007F8000EF000419D4208BF964244F1FD0404F505
:10080800407402D25B084FEA3202B61A65EB030560
:100818005B084FEA32024FF480104FF4002CB6EB1D
:10082800020E75EB030E22BFB61A754640EA0C009D
:100838005B084FEA3202B6EB020E75EB030E22BFDD
:10084800B61A754640EA5C005B084FEA3202B6EB1E
:10085800020E75EB030E22BFB61A754640EA9C00DD
:100868005B084FEA3202B6EB020E75EB030E22BFAD
:10087800B61A754640EADC0055EA060E18D04FEA6B
:10088800051545EA16754FEA06164FEAC30343EA0B
:1008980052734FEAC2025FEA1C1CC0D111F4801FD8
:1008A8000BD141EA00014FF000004FF0004CB6E7D1
:1008B80011F4801F04BF01430020B4F1FD0C88BF70
:1008C800BCF5E06F3FF6AFAEB5EB030C04BFB6EB7B
:1008D800020C5FEA500C50F1000041EB045170BD6E
:1008E8000EF0004E4EEA113114EB5C04C2BFD4EB9B
:1008F8000C0541EA045170BD41F480114FF0000E1F
:10090800013C90E645EA060E8DE60CEA135594EA9A
:100918000C0F08BF95EA0C0F3FF43BAF94EA0C0F9D
:100928000AD150EA01347FF434AF95EA0C0F7FF412
:1009380025AF104619462CE795EA0C0F06D152EA66
:1009480003353FF4FDAE1046194622E750EA41064A
:1009580018BF52EA43067FF4C5AE50EA41047FF45B
:100968000DAF52EA43057FF4EBAE12E74A0011D20D
:1009780012F5001211D20DD56FF47873B3EB6252F1
:100988000ED44FEAC12343F0004343EA505323FAFD
:1009980002F070474FF00000704750EA013002D172
:1009A8004FF0FF3070474FF0000070477BB972B9C5
:1009B8000029BEBF00204FF0004106E008BF002814
:1009C8001CBF6FF000414FF0FF3000F0A5B9ADF14A
:1009D800080C6DE904CE002909DB002B1ADB00F0B6
:1009E80035F8DDF804E0DDE9022304B07047404241
:1009F80061EB4101002B1BDB00F028F8DDF804E077
:100A0800DDE9022304B0404261EB4101524263EB4D
:100A180043037047524263EB430300F017F8DDF8D5
:100A280004E0DDE9022304B0404261EB4101704774
:100A3800524263EB430300F009F8DDF804E0DDE916
:100A4800022304B0524263EB430370472DE9F04799
:100A5800089E04468846002B4BD18A42154667D922
:100A6800B2FA82F24AB1C2F1200701FA02F320FA7F
:100A780007F7954047EA030894404FEA154E230CC0
:100A8800B8FBFEF71FFA85FC0EFB178843EA0843FC
:100A980007FB0CF1994209D9EB1807F1FF3080F0F8
:100AA8001B81994240F21881023F2B445B1AA4B281
:100AB800B3FBFEF00EFB103344EA034400FB0CFCCE
:100AC800A44509D92C1900F1FF3380F00781A4450A
:100AD80040F2048102382C4440EA0740A4EB0C049D
:100AE80000271EB1D4400023C6E900433946BDE8BB
:100AF800F0878B4209D9002E00F0EB800027C6E969
:100B0800000138463946BDE8F087B3FA83F7002F6D
:100B180047D18B4202D3824200F2FA80841A61EBF9
:100B2800030301209846002EE0D0C6E90048DDE71F
:100B380002B9FFDEB2FA82F2002A40F08F80491B28
:100B48004FEA154E1FFA85F80127B1FBFEFC230C6E
:100B58000EFB1C1143EA014308FB0CF1994207D92B
:100B6800EB180CF1FF3002D2994200F2CD80844696
:100B7800591AA3B2B1FBFEF00EFB101443EA044469
:100B880008FB00F8A04507D92C1900F1FF3302D261
:100B9800A04500F2B6801846A4EB080440EA0C40D1
:100BA8009FE7C7F1200CBB4022FA0CFE4EEA030E69
:100BB80001FA07F420FA0CF521FA0CF34FEA1E4863
:100BC8002543B3FBF8F92C0C08FB19331FFA8EFAEE
:100BD80044EA034309FB0AF49C4202FA07F200FACA
:100BE80007F10BD91EEB030309F1FF3080F0878072
:100BF8009C4240F28480A9F1020973441B1BADB2E8
:100C0800B3FBF8F008FB103345EA034400FB0AFA8B
:100C1800A24508D91EEB040400F1FF336BD2A245AC
:100C280069D90238744440EA0940A0FB0289A4EB60
:100C38000A044C45C2464B4654D351D0002E69D0C5
:100C4800B1EB0A0564EB030404FA0CFCFD40FC401C
:100C58004CEA0505C6E90054002747E7C2F120031E
:100C680020FA03F7954001FA02F021FA03F34FEA5C
:100C7800154E3843010CB3FBFEF71FFA85F80EFB3F
:100C8800173341EA034107FB08F38B4204FA02F4E5
:100C980007D9691807F1FF3C2FD28B422DD9023FA3
:100CA8002944CB1A81B2B3FBFEF00EFB103341EAA4
:100CB800034100FB08F38B4207D9691800F1FF3C98
:100CC80017D28B4215D902382944C91A40EA074776
:100CD8003BE73746304609E70746E7E61846FBE6AE
:100CE8004145ABD2B8EB020A69EB0E020138134654
:100CF800A4E76046E9E7184695E76746D1E78146E5
:100D08007CE702382C4447E7ACF1020C2B442FE770
:100D1800384608E73746E9E6704700BFC37853B955
:100D2800037803F01F015B0901228A40203312492E
:100D380041F823207047114BDB68DB43C3F30222E1
:100D4800C2F10401C9B20F23134142788A40D2B2DA
:100D580081780B4013431B01DBB2027806490A4431
:100D680082F80033037803F01F005B0901228240F8
:100D780041F82320704700BF00E100E000ED00E0EB
:100D880010B4426822F0407222F480720C790B6829
:100D980043EA04231343436083680C4A1A400B69EF
:100DA800CC6823438C6823434C7943EA44031343B8
:100DB8008360C36A23F470030A7D013AD2B243EA1E
:100DC8000253C3625DF8044B704700BFFDF7FFC0D4
:100DD80000230360037143718360C36003610123CF
:100DE8000375704710B408494B68084A1A400368ED
:100DF8004468234384682343C068034313434B6018
:100E08005DF8044B704700BF00230140E030FCFF51
:100E180021B9836823F0010383607047836843F036
:100E280001038360704770B409291DD9C568A1F111
:100E38000A0404EB44040726A64025EA060503FA3B
:100E480004F42C43C460062A1AD90C2A26D9C36A8A
:100E58000D3A02EB82021F24944023EA040301FAAC
:100E680002F21A43C26217E0056901EB4106072442
:100E7800B44025EA040503FA06F42C430461E2E7CA
:100E8800436B013A02EB82021F24944023EA0403D5
:100E980001FA02F21A43426370BC7047036B073AC7
:100EA80002EB82021F24944023EA040301FA02F2AF
:100EB8001A430263F0E7C9B2012303FA01F122B928
:100EC800436823EA01014160704743681943416060
:100ED80070470368194201D100207047012070470C
:100EE800C9430160704708B501214FF0005000F078
:100EF800ABF900214FF0005000F0A6F908BD000042
:100F080030B40A4C226840F6FE73834022EA03029A
:100F18000B684D682B438D682B43C9680B4303FA54
:100F280000F01043206030BC704700BF00740040E0
:100F38000023036043608360C360704741B9084978
:100F48000B68012202FA00F023EA000008607047EB
:100F580003490B68012202FA00F018430860704741
:100F68000074004082B000230193054B0193019B5C
:100F7800184408300190019B196002B0704700BF07
:100F88000074004082B000230193054B0193019B3C
:100F9800184414300190019B196002B0704700BFDB
:100FA80000740040044B00221A605A609A60DA60AC
:100FB800024A5A61704700BF003C0140FFFF7F00B2
:100FC8008379002B36D010B4204B1A68016822EAC6
:100FD80001021A605A68016822EA01025A6002791D
:100FE80002F1804202F59E321168046821431160C3
:100FF8009A68016822EA01029A60DA68016822EABE
:101008000102DA604379102B0AD003F1804303F51B
:101018009E331A6801680A431A605DF8044B7047EA
:101028000A4B9A6801680A439A60DA6801680A43B9
:10103800DA60F2E7037903F1804303F59E331A6817
:10104800016822EA01021A60704700BF003C0140B3
:10105800014B5861704700BF003C014000230F2B33
:1010680040D8F0B410E0C2689CB266000324B440D3
:1010780022EA0402C260C268CC7904FA05F5154375
:10108800C56001330F2B2BD801229A400C68A2436C
:10109800F7D104685D000322AA40D24314400460DB
:1010A80004680E79AE40344304600C79013CE4B224
:1010B800012CD8D884682240826082684C79AC4080
:1010C8002243826044689FB20126BE4024EA060497
:1010D800446044688A79BA4092B222434260C2E7C7
:1010E800F0BC704770474FF6FF730360002303712D
:1010F80043718371C37170470369194201D100209C
:10110800704701207047018370474183704730B4AE
:1011180001F007039B009A40C908083150F82140A4
:101128000F2505FA03F324EA030340F8213050F8A9
:1011380021301A4340F8212030BC704710B4294BA5
:101148009B6803F00C03042B23D0082B24D013B185
:10115800254B036001E0244B0360224CA368C3F3D2
:1011680003132249CB5CDAB20368D3404360A26818
:10117800C2F382228A5CD2B223FA02F28260A268A7
:10118800C2F342328A5CD2B2D340C3605DF8044BEA
:101198007047174B0360E0E7124B5A685B6803F02F
:1011A8003F0312F4800F12D0114AB2FBF3F20D4B39
:1011B8005B68C3F3881303FB02F30A4A5268C2F35D
:1011C800014201325200B3FBF2F30360C5E7064A5D
:1011D800B2FBF3F2034B5B68C3F3881303FB02F320
:1011E800EBE700BF003802400024F40000000020B4
:1011F80040787D0129B9054A136B23EA0000106382
:101208007047024A136B1843106370470038024056
:1012180029B9054A136C23EA000010647047024A92
:10122800136C1843106470470038024029B9054A06
:10123800536C23EA000050647047024A536C184309
:10124800506470470038024029B9054A136A23EAF6
:10125800000010627047024A136A18431062704710
:101268000038024029B9054A536A23EA000050624F
:101278007047024A536A1843506270470038024068
:1012880008B52A4B98420FD0294B984217D0294BC2
:1012980098421FD0284B984227D0284B98422FD0ED
:1012A800274B984237D008BD01214FF48050FFF7F3
:1012B800D9FF00214FF48050FFF7D4FFF3E7012155
:1012C8004FF48040FFF7C0FF00214FF48040FFF744
:1012D800BBFFE8E701214FF40040FFF7B5FF00210D
:1012E8004FF40040FFF7B0FFDDE701214FF4005055
:1012F800FFF7B8FF00214FF40050FFF7B3FFD2E724
:1013080001214FF48010FFF7ADFF00214FF480104A
:10131800FFF7A8FFC7E701214FF40010FFF7A2FF6E
:1013280000214FF40010FFF79DFFBCE7003001409B
:1013380000380040003C00400034014000500140AB
:10134800005401402DE9F041038803F44152B1F8FB
:1013580000E0B1F80280B1F804C0CF880E894D8949
:101368008C89CB894EEA080E4CEA0E0C47EA0C072A
:101378003E4335432C43234313430380838B9BB263
:1013880023F400639BB283830B8A0382BDE8F08158
:101398000023038043808380C3800381438183814A
:1013A800C38107230382704731B903889BB223F0B6
:1013B80040039BB203807047038843F040030380D7
:1013C80070474FF6FF63994204D0038843F4807353
:1013D8000380704703889BB223F480739BB2038019
:1013E800704780897047818170470389194201D10C
:1013F800002070470120704730B401F003039B00C0
:101408000F2404FA03F58908074A023152F82140EB
:1014180024EA050442F8214052F82140984020432C
:1014280042F8210030BC70470038014003889BB265
:101438001B4A904212D002F5806290420ED0B0F161
:10144800804F0BD0A2F58032904207D002F580621F
:10145800904203D002F58062904203D123F07003DA
:101468004A8813430F4A904208D002F5806290429E
:1014780004D023F440739BB20A89134303804B685A
:10148800C3620B880385064B984203D003F580633B
:10149800984201D18B7A038601238382704700BF6B
:1014A80000000140001000404FF0FF33436000236C
:1014B800038003814380837270474162704731B96A
:1014C80003889BB223F080039BB203807047038894
:1014D80043F080030380704731B903889BB223F03F
:1014E80001039BB203807047038843F00103038024
:1014F80070478163704710B401238B409BB2048C02
:1015080024EA03030384038C02FA01F189B2194324
:1015180001845DF8044B704722B9838923EA0101ED
:10152800818170478389194381817047028A838941
:101538000B40114202D01BB90020704700207047B1
:1015480001207047C94389B20182704783889BB2E2
:1015580023F070039BB2838083881943818070478E
:1015680010B5044602210948FFF73FFF0028F9D0CB
:1015780021460648FFF737FF01210448FFF735FFEA
:101588000028F9D00148FFF72CFF10BD003C0040AF
:1015980008B502210948FFF728FF0028F9D00021E3
:1015A8000648FFF720FF01210448FFF71EFF002827
:1015B800F9D00248FFF715FF08BD00BF003C004006
:1015C8002DE9F04389B001210420FFF713FE06A896
:1015D800FFF789FD4FF4E053069302278DF81C703E
:1015E80000258DF81E5001248DF81F408DF81D70C0
:1015F800324E06A93046FFF731FD21460820FFF795
:10160800F9FD06A8FFF76FFD4FF00409CDF8189013
:101618008DF81C408DF81E508DF81F4003238DF85F
:101628001D30DFF89C8006A94046FFF717FD06220B
:101638000A213046FFF76BFD06220B213046FFF7E3
:1016480066FD06220C213046FFF761FD49464046FB
:10165800FFF759FD21464FF40040FFF7D9FDA6F5E5
:10166800E6363046FFF70CFE0DEB0900FFF790FE5B
:10167800ADF804501023ADF810304FF48273ADF874
:101688000630ADF80850ADF80A70ADF80C40ADF86A
:1016980012504FF40073ADF80E300DEB09013046CF
:1016A800FFF750FE21463046FFF77EFE4FF480716B
:1016B8003046FFF786FE09B0BDE8F0830008024017
:1016C800000C024038B50B4C04212046FFF71DFDE5
:1016D8000520FFF745FF022004F086FEFFF758FFBC
:1016E800C5B2C82004F080FE04212046FFF70BFD98
:1016F800284638BD000C024010B5084C042120468D
:10170800FFF703FD0620FFF72BFFC82004F06CFE4F
:1017180004212046FFF7F7FC10BD00BF000C024073
:1017280038B505460C4C04212046FFF7EEFC032093
:10173800FFF716FF280AFFF713FFE8B2FFF710FFBD
:10174800FFF726FFC5B2C82004F04EFE042120464C
:10175800FFF7D9FC284638BD000C02402DE9F041BE
:1017680007460E461546FFF7C7FF04212C48FFF72A
:10177800CCFC0220FFF7F4FE380AFFF7F1FE5FFA0F
:1017880087F84046FFF7ECFE002422E0012004F031
:10179800E9F8FFF797FF10F0010FF7D1012004F0E7
:1017A800E1F8FFF7A9FF04211D48FFF7AEFC02206E
:1017B800FFF7D6FEE019C0F30720FFF7D1FE58FA6D
:1017C80084F0C0B2FFF7CCFE305DFFF7C9FE0134EC
:1017D800A4B2AC420FD214F07F0FF5D1002CF3D095
:1017E800C82004F001FE04210D48FFF78CFC0120FD
:1017F80004F0B8F8CDE7C82004F0F6FD0421084845
:10180800FFF781FC012004F0ADF8FFF75BFF10F053
:10181800010F03D0012004F0A5F8F6E7BDE8F08138
:10182800000C024070B504460E46154604210E48C9
:10183800FFF76BFC0320FFF793FE200AFFF790FEEB
:10184800E0B2FFF78DFE002404E0FFF7A1FE30555B
:101858000134A4B2AC42F8D3C82004F0C5FD042179
:101868000148FFF750FC70BD000C024070B584B011
:1018780001210420FFF7BEFC0026ADF80E600E2300
:10188800029301258DF80C5003238DF80D300C4C74
:1018980002A92046FFF7E2FB01960095694620461B
:1018A800FFF7DCFB08212046FFF72DFC042120462A
:1018B800FFF72BFC02212046FFF727FC04B070BD80
:1018C8000008024010B5194C04212046FFF71DFC02
:1018D80002212046FFF719FC08212046FFF715FCD6
:1018E80000BF00BF00BF00BF00BF00BF00BF00BFF8
:1018F80000BF00BF00BF00BF00BF00BF00BF00BFE8
:1019080008212046FFF7FFFB00BF00BF00BF00BF54
:1019180000BF00BF00BF00BF00BF00BF00BF00BFC7
:1019280000BF00BF00BF00BF10BD00BF00080240DD
:1019380070B500BF00BF00BF00BF00BF00BF00BF41
:1019480000BF00BF00BF00BF00BF00BF00BF00BF97
:1019580000BF01213548FFF7CFFB012816D000252D
:1019680002213248FFF7CFFB00BF00BF00BF00BF16
:1019780000BF00BF00BF00BF00BF00BF00BF00BF67
:1019880000BF00BF00BF00BF002417E00125E7E744
:1019980002212648FFF7B7FB00BF00BF00BF00BF0A
:1019A80000BF00BF00BF00BF00BF00BF00BF00BF37
:1019B80000BF00BF00BF00BF0134E4B2062C1FD82F
:1019C8001A4E02213046FFF7A0FB00BF00BF00BF40
:1019D80000BF00BF00BF00BF00BF00BF00BF00BF07
:1019E80000BF00BF00BF00BF00BF6D00EDB2012106
:1019F8003046FFF781FB0128CAD145F00105C7E74A
:101A080002210A48FFF781FB00BF00BF00BF00BFEB
:101A180000BF00BF00BF00BF00BF00BF00BF00BFC6
:101A280000BF00BF00BF00BF284670BD00080240CD
:101A380070B5FFF77DFF0546FFF77AFF0646FFF70B
:101A480077FF0446FFF774FF240444EA006040EA85
:101A58000620284370BD38B5FFF76AFF0546FFF733
:101A680067FF0446FFF764FF240244EA0040284366
:101A780038BD000070B50C4C04212046FFF745FB2B
:101A88000A2004F0AFFAFFF71DFFFFF7D1FF054664
:101A9800FFF7E1FF064604212046FFF734FB002349
:101AA80043EA0500314670BD0008024010B50446FF
:101AB80002210948FFF799FC0028F9D02146064879
:101AC800FFF791FC01210448FFF78FFC0028F9D0AB
:101AD8000148FFF786FC10BD0038004070B5064687
:101AE8000D46094C4FF480512046FFF70EFB304657
:101AF800FFF7DCFF2846FFF7D9FF4FF48051204657
:101B0800FFF701FB70BD00BF00040240F0B589B0CB
:101B180001210220FFF76EFB2F4D05220D212846DB
:101B2800FFF7F5FA05220F212846FFF7F0FA4FF4E0
:101B38002043069302278DF81C7000248DF81E4060
:101B48008DF81F408DF81D7006A92846FFF786FA04
:101B58004FF48053069301268DF81C608DF81E40C3
:101B68008DF81F608DF81D7006A92846FFF776FAD4
:101B780031464FF48040FFF74BFBA5F5E635284684
:101B8800FFF77EFB01A8FFF703FC4FF48043ADF895
:101B98000430ADF810404FF48273ADF806300823D6
:101BA800ADF80830ADF80A40ADF80C40ADF8124079
:101BB8004FF40073ADF80E3001A92846FFF7C2FBB9
:101BC80031462846FFF7F0FB4FF480712846FFF7AF
:101BD800F8FB09B0F0BD00BF0004024008B5B1F53C
:101BE800806F01D340F2FF31032825D8DFE800F0E9
:101BF800020C141CC1F3831040F03000C9B28900F4
:101C0800C9B2FFF76BFF08BDC1F3831040F0700045
:101C1800C9B28900C9B2F4E7C1F3831040F0B0003B
:101C2800C9B28900C9B2ECE7C1F3871040F0F000EF
:101C3800C9B28900C9B2E4E700210846E1E700001B
:101C480000B583B001210420FFF7D4FA0023ADF8D2
:101C580006304FF46043009302238DF805300123CA
:101C68008DF804308DF8073069460348FFF7F6F918
:101C780003B05DF804FB00BF0008024000232CE01D
:101C88001D4A4FF4804111831B4A4FF40051518380
:101C980000BF00BF00BF00BF00BF00BF00BF00BF44
:101CA80000BF00BF00BF00BF00BF00BF00BF00BF34
:101CB800118300BF00BF00BF00BF00BF00BF00BF4F
:101CC80000BF00BF00BF00BF00BF00BF00BF00BF14
:101CD80000BF4000C0B20133DBB2072B07D810F0B9
:101CE800800FCDD1044A4FF480415183CCE7024B99
:101CF8004FF480425A8370470008024000232CE0CA
:101D08001D4A4FF4804151831B4A4FF400515183BF
:101D180000BF00BF00BF00BF00BF00BF00BF00BFC3
:101D280000BF00BF00BF00BF00BF00BF00BF00BFB3
:101D3800118300BF00BF00BF00BF00BF00BF00BFCE
:101D480000BF00BF00BF00BF00BF00BF00BF00BF93
:101D580000BF4000C0B20133DBB2032B07D810F03C
:101D6800080FCDD0044A4FF480411183CCE7024BD1
:101D78004FF480425A8370470008024070B5044609
:101D88000B4D4FF400466E83C8B2FFF777FF200E65
:101D9800FFF774FFE0B2FFF771FFC4F30720FFF706
:101DA8006DFFC4F30740FFF769FF2E8370BD00BFC6
:101DB8000008024008B5044B03EBC000D0E900015D
:101DC800FFF7DCFF08BD00BF1000002070B51F4BF7
:101DD8004FF400425A8300F00706A0F10803DBB273
:101DE800072B10D90446A0F11005EDB2072D13D921
:101DF8000F20FFF783FFA4F12003DBB2072B0FD9D5
:101E08000834E5B20CE0741C04F007042046FFF720
:101E180075FF04F1180503E0FF20FFF72FFF354693
:101E28000A4B4FF400421A8300BF00BF00BF00BF37
:101E380000BF00BF00BF00BF00BF00BF00BF00BFA2
:101E480000BF00BF00BF00BF284670BD00080240A9
:101E580070B500F00706A0F14003DBB2072B0FD9DD
:101E68000446A0F11005EDB2072D12D8FF20FFF7A8
:101E780005FF3546174B4FF400425A830A231DE0ED
:101E8800741C04F007042046FFF738FF04F1180516
:101E9800F0E70F20FFF732FFA4F12003DBB2072B96
:101EA800E8D9A4F10803DBB2072B02D82034E5B245
:101EB800E0E70834E5B2DDE700BF013B002BFBD1CA
:101EC80003F1804303F502334FF400421A83284696
:101ED80070BD00BF0008024000B583B0012108466C
:101EE800FFF788F94FF40943009300238DF8043075
:101EF80001228DF807208DF8053069460248FFF762
:101F0800ADF803B05DF804FB0000024038B50F4D92
:101F18004FF400612846FFF7EFF8C0434FF0000484
:101F280060F3000444F004044FF400412846FFF72E
:101F3800E3F8C04360F341044FF480712846FFF78B
:101F4800DBF8C04360F3C304204638BD00000240FC
:101F5800704708B5FFF7DAFF10F0080F01D100202D
:101F680008BD0120FCE7000000B583B00121042072
:101F7800FFF740F90023ADF80630702300930223E1
:101F88008DF8053001238DF804308DF80730694647
:101F98000248FFF763F803B05DF804FB000802404D
:101FA80070B50546002430E020211F48FFF7ABF844
:101FB8001D4E10213046FFF7A8F800BF00BF00BF34
:101FC80000BF00BF00BF00BF00BF00BF00BF00BF11
:101FD80000BF00BF00BF00BF00BF10213046FFF7A1
:101FE80092F800BF00BF00BF00BF00BF00BF00BF26
:101FF80000BF00BF00BF00BF00BF00BF00BF00BFE1
:1020080000BF6D00EDB20134E4B2072C07D815F01B
:10201800800FC9D120210448FFF777F8C8E72021AD
:102028000148FFF772F870BD0008024038B5044651
:102038000A4D40212846FFF768F82078FFF7B0FFDF
:102048006078FFF7ADFFA078FFF7AAFFE078FFF709
:10205800A7FF40212846FFF756F838BD0008024080
:1020680000B583B001210420FFF7C4F80023ADF8C0
:1020780006304FF46073009303238DF80530012375
:102088008DF804308DF8073069460348FEF7E6FFFF
:1020980003B05DF804FB00BF0008024070B50546B8
:1020A800002431E04FF480712048FFF72CF81F4ED0
:1020B80080213046FFF729F800BF00BF00BF00BFEE
:1020C80000BF00BF00BF00BF00BF00BF00BF00BF10
:1020D80000BF00BF00BF00BF80213046FFF713F8E4
:1020E80000BF00BF00BF00BF00BF00BF00BF00BFF0
:1020F80000BF00BF00BF00BF00BF00BF00BF00BFE0
:102108006D00EDB20134E4B2072C08D815F0800F49
:10211800C8D14FF480710548FEF7F7FFC7E74FF4C1
:1021280080710248FEF7F1FF70BD00BF0008024051
:1021380038B50546094C4FF400712046FEF7E5FF17
:10214800C5F30720FFF7AAFFE8B2FFF7A7FF4FF490
:1021580000712046FEF7D7FF38BD00BF00080240D7
:10216800F8B500236FF0010404E0640044F00104B2
:102178000133DBB28342F8D3FFF7EBFED8B1260E6A
:10218800C4F307470E4D4FF400712846FEF7BDFF14
:102198003846FFF783FF3046FFF780FFC4F3072078
:1021A800FFF77CFFE0B2FFF779FF4FF40071284694
:1021B800FEF7A9FFF8BDA0B2FFF7BAFFFAE700BF24
:1021C8000008024010B584B004466846FEF7B6FF22
:1021D8000198B0FBF4F0B0F1807F0CD220F07F4082
:1021E8000138064B5860064AF02182F82310002275
:1021F8009A6007221A6004B010BD00BF10E000E02A
:1022080000ED00E0024A136801331360704700BF15
:102218002C0C00202DE9F04190B001210846FEF772
:10222800F7FF05A8FFF740F90124ADF81440002591
:10223800ADF8165041F267030693ADF81C5005A996
:102248004FF08040FFF7F2F850214FF08040FFF741
:102258007DF9224604214FF08040FFF74CF92146D2
:102268004FF08040FFF745F94FF08040038B43F46F
:10227800E04303832146FFF72FF9DFF8008110239D
:1022880088F8123321462046FEF7B4FF0F95032342
:102298000E938DF83C300EA93448FEF7DFFE214638
:1022A8004FF48070FEF7C2FF21464FF40070FEF72E
:1022B800BDFF00954FF400330193029503956846DE
:1022C800FEF790FD08A8FEF783FD8DF825500C95C4
:1022D8004FF0C0630B934FF080530A938DF834404E
:1022E80008958DF82450224F08A93846FEF748FD76
:1022F800204E08A93046FEF743FD0723224629460B
:102308003846FEF790FD0723224621463046FEF761
:102318008AFD12238DF810308DF811408DF8125077
:102328008DF8134004A8FEF7F9FC134B1D702846DE
:10233800FFF740FD4FF48023C8F80030224640F2F2
:1023480005213846FEF7B7FD224640F20521304602
:10235800FEF7B1FD21463846FEF75AFD21463046C4
:10236800FEF756FD10B0BDE8F08100BF0000024046
:1023780000200140002101409C02002000E100E013
:10238800024B4FF48022C3F88020704700E100E040
:1023980030B587B001214FF48040FEF747FF002495
:1023A8008DF8144040F2E31504958DF81740032387
:1023B8008DF8153004A93148FEF750FE214601205A
:1023C800FFF71AF801210846FFF716F80521012042
:1023D800FFF712F806210120FFF70EF80721012068
:1023E800FFF70AF808210120FFF706F8FEF7DAFDE3
:1023F80002958DF80C4008238DF80D3001258DF8D5
:102408000E500DEB0300FEF7DBFD06238DF80430BC
:102418008DF805408DF806408DF8075001A8FEF7A5
:102428007DFC07238DF804308DF805408DF80640B3
:102438008DF8075001A8FEF771FC17238DF80430BA
:102448008DF805408DF806408DF8075001A8FEF775
:1024580065FC2846FEF7FCFD0220FEF7F9FD20206A
:10246800FEF7F6FD4020FEF7F3FD8020FEF7F0FDB5
:102478004FF48070FEF7ECFD07B030BD0004024059
:1024880008B5154B1B6913F0010F20D0134B1B78AF
:10249800DBB2012B1BD0114B1B78DBB2042B16D0FF
:1024A8000E4B1B78DBB2052B11D00D4804F0A0F8B9
:1024B8000C4B00221A70094B02221A700A4B1A7828
:1024C80042F001021A701A7842F002021A700120D2
:1024D800FEF7BEFD08BD00BF00040240C102002097
:1024E800E0660008BD020020F002002008B50121C6
:1024F8000220FEF78DFE094B42F604121A850122CE
:10250800DA62002159629A811A8842F001021A801F
:10251800034B4FF000521A6008BD00BF0004004092
:1025280000E100E008B501212020FEF771FE094B0B
:1025380042F604121A850122DA62002159629A8150
:102548001A8842F001021A80034B4FF400025A60C5
:1025580008BD00BF0014004000E100E008B50121FB
:102568001020FEF755FE0A4845F208230385C823C4
:10257800C362002343620121818103880B430380E6
:10258800044B4FF480025A600A46FEF7C5FF08BDA7
:102598000010004000E100E008B5134B1B6913F080
:1025A800020F1DD1114B1B78DBB2012B18D00F4B3A
:1025B8001B78DBB2042B13D00C4B1B78DBB2052B3A
:1025C8000ED00B4B00221A70084B02221A70094BCE
:1025D8001A7842F001021A701A7842F002021A7050
:1025E8000220FEF735FD08BD00040240C2020020AB
:1025F800BE020020F002002070B50446FFF7C0FEBE
:10260800FFF7A7FCB0B120346402A4B2174D4FF411
:10261800807229462046FFF7A1F804F580704FF430
:102628008072A91800F47F40FFF798F8FFF7F2FDD1
:10263800002070BD0E4E3078A4B20C4D00FB04F0A3
:1026480040024FF48072294600F47E40FFF786F876
:10265800307800FB04F0400200F580704FF480727F
:10266800A91800F47F40FFF779F8DFE75809002040
:102678007002002070B50446FFF782FEFFF769FC80
:1026880038BB394E3078A4B2384D00FB04F0400214
:102698004FF48072294600F47E40FFF7C3F8307883
:1026A80000FB04F0400200F580704FF48072A91816
:1026B80000F47F40FFF7B6F82D4B1B7813F0040F9A
:1026C8004FD102232B4A13702B4A1370FFF7A2FD38
:1026D80070BD20346402A4B2244D4FF480722946A0
:1026E8002046FFF79FF804F580704FF48072A91810
:1026F80000F47F40FFF796F8DEE71C4B03EBC201BE
:10270800486840F400504860486840F48040486099
:1027180002F1200103EBC101486840F40050486011
:10272800486840F48040486002F1100103EBC101A1
:10273800486840F400504860486840F48040486069
:1027480002F1300103EBC103596841F400515960AB
:10275800596841F4804159600132D2B20F2ACCD96C
:10276800AFE70022FAE700BF7002002058090020F6
:10277800E8020020C1020020C202002082B001EB62
:102788004012564B03EBC2035B6813F4806F4ED0C4
:102798001346524A52F83320C2F30B3202F57A72CA
:1027A8004F4B83FB02325209032A00D903224D4BB7
:1027B80033F812309BB207EE903A4B4B53F8223065
:1027C80007EE103AB8EE477A9FED486AC6EE076AF8
:1027D800F8EEE77A67EEA67AFCEEE77A01EB4013AB
:1027E8003E4A02EBC3035B6813F0400F2AD1002373
:1027F800019301EB4013394A02EBC3035B6813F002
:10280800800F32D101EB4013344A02EBC3035B68FB
:1028180013F4807F3CD101EB4011304800EBC1013B
:102828004B6813F4007F46D1019802B0704701EB62
:1028380040132A4A52F83330C3F30B33013307EEFF
:10284800903ACBE7F8EE676A9FED297A66EE876AD9
:102858009FED266A86EE867AF2EE006A37EE267AD1
:10286800BCEEC77A8DED017AC3E7F8EE676A9FED93
:10287800217A66EE876A9FED1D6A86EE867ADFED1D
:102888001E6A37EE267ABCEEC77A8DED017AB9E773
:10289800F8EE676A9FED197A66EE876A9FED136A0C
:1028A80086EE867ADFED166A37EE267ABCEEC77AB0
:1028B8008DED017AAFE7F8EE677A9FED127A67EE51
:1028C800877ADFED0A6A87EEA67ADFED0F7A77EE70
:1028D800277AFCEEE77ACDED017AA5E758090020C2
:1028E800F1197605380800205002002000F07F45D5
:1028F8000000E04200008C440000A04200002F4687
:102908000000484400C0DA470000FA4530B401EB43
:102918004012A14B53F8323013F0006F52D01346D7
:102928009D4A52F83320C2F30B0202F57A729B4B90
:1029380083FB02325209032A00D90322984B33F849
:1029480012309BB207EE903A964B53F8223007EEBE
:10295800103AB8EE477A9FED946AC6EE076AF8EE29
:10296800E77A67EEA67AFCEEE77A17EE903AB3F5C7
:10297800805F01D3DFED8D7A01EB4013864A52F870
:10298800333013F0806F27D001EB401352F8333007
:1029980013F0807F00F0FC80854B93ED007AF2EE17
:1029A800086A67EE266AB8EE676A86EE267ABCEE93
:1029B800C77AB8EE477A27EE267ABCEEC77A17EEC2
:1029C800103A0AE001EB4013734A52F83330C3F36C
:1029D8000B0307EE903AC8E7002301EB40126E4C58
:1029E80054F8322012F0805F1FD0B8EE677A704B2F
:1029F80093ED006AC7EE066ABCEEE67A17EE103A67
:102A080001EB401254F8322012F0807F0DD0694D4E
:102A18002A68694CA4FB02C2D208B3FBF2F32A6805
:102A2800A4FB0242D20803FB02F301EB40125A4C0A
:102A380054F8322012F0005F22D0F8EE676A5C4B3F
:102A480093ED006A86EE867ABCEEC77A17EE103AE6
:102A580001EB401254F8322012F0807F0DD0554A15
:102A68001468554DA5FB04C4E408B3FBF4F31268DD
:102A7800A5FB0242D20803FB02F34E4A1268134434
:102A880001EB4012444C54F8322012F0804F23D00E
:102A9800F8EE676A464B93ED006A86EE867ABCEEDE
:102AA800C77A17EE103A01EB401254F8322012F0B0
:102AB800807F0DD03F4A14683F4DA5FB04C4E4084D
:102AC800B3FBF4F31268A5FB0242D20803FB02F33E
:102AD800384A126803EB420301EB40122E4C54F8BB
:102AE8003220002A24DAF8EE676A314B93ED006A47
:102AF80086EE867ABCEEC77A17EE103A01EB4012E2
:102B080054F8322012F0807F0DD02A4A14682A4DDA
:102B1800A5FB04C4E408B3FBF4F31268A5FB024266
:102B2800D20803FB02F3234A126802EB4202134461
:102B380001EB4012184C04EBC202526812F0010F6C
:102B480023D0F8EE677A1A4BD3ED006A87EEA67A9F
:102B5800FCEEC77A17EE903A01EB401154F8312099
:102B680012F0807F0DD0134802681349A1FB02427E
:102B7800D208B3FBF2F30068A1FB0020C00803FBF6
:102B880000F30C4A106803EB8003184630BC70470A
:102B980017EE903A21E700BF58090020F119760591
:102BA800380800205002002000F07F45FF0F000089
:102BB800CC08002054090020ABAAAAAAF8B50546FB
:102BC8000C46FFF7C6F918B90F2C42D80F2100E0C0
:102BD8001F212E46274604EB4515204B03EBC50560
:102BE8006868C0F3401078BB02469ABBA14232D94C
:102BF8000134E0B22EE0DA1B8A1A02EB4612174DB6
:102C080005EBC202526812F0100F15D18B4219D091
:102C18000133DBB28B4219D8A342ECD8FA1A02EB83
:102C280046150E4A02EBC502526812F0100FEDD09D
:102C3800E31A0246D8B2D8E7E31A51FA83F30246F8
:102C4800D8B2D2E70020E3E70023E3E702460020FA
:102C5800CBE70020F8BD1046FCE700BF580900206C
:102C680010B5A64B5B6913F4807F00F08180A44BFC
:102C78001B6913F0010F04D0A04B5B6913F4807F2C
:102C88003CD1A04B1B78DBB2052B61D09D4B1B7848
:102C9800DBB2042B5CD09B4B1B78DBB2012B57D0EB
:102CA800984B1B78002B53D00020964B1870964CED
:102CB8002178FFF783FF20704FF400719048FEF7EA
:102CC80024FA2278914B03EBC2035B6813F4006F7C
:102CD80040F007818C4B1A788C4B03EBC2035B687E
:102CE80013F4805F40F00381894C01212046FEF7F0
:102CF800F3FB00212046FEF7E0FB29E0814B06228A
:102D08001A70814C21780020FFF758FF20704FF48B
:102D180000717B48FEF7F9F922787C4B03EBC2037C
:102D28005B6813F4006F40F0D080774B1A78774BCC
:102D380003EBC2035B6813F4805F40F0CC80744CF3
:102D480001212046FEF7C8FB00212046FEF7B5FB0F
:102D58006C4B1B78DBB2042B00F0EA80694B1B78C4
:102D6800DBB2052B00F01A814FF48070FEF770F982
:102D7800624B5B6913F0400F28D0664B1B78DBB2BF
:102D8800052B0ED0634B1B78DBB2042B09D0614BAB
:102D98001B78DBB2012B04D05E4B1B78002B40F074
:102DA80000815C4B1B78DBB2042B00F02D81594B62
:102DB8001B78DBB2052B00F05C81564B1B78DBB22D
:102DC800052B00F059814020FEF742F94B4B5B6917
:102DD80013F0200F36D0504B1B78013BDBB24A4A28
:102DE80013704E4B1B7843B94D4B1A7842F00102D1
:102DF8001A701A7842F002021A704FF400714048B3
:102E0800FEF783F9404B1A78404B03EBC2035B682B
:102E180013F4006F40F033813B4B1A783B4B03EBC4
:102E2800C2035B6813F4805F40F02F81384C0121A6
:102E38002046FEF751FB00212046FEF73EFB2020EE
:102E4800FEF706F92D4B5B6913F0800F33D0324B38
:102E58005B78013BDBB2334A1370304B1B78DBB233
:102E6800012B00F0188104212F48FEF74EF92D4B55
:102E78001B7803F12002254B03EBC2035B6813F4B4
:102E8800006F40F01281274B1B7803F120021F4B83
:102E980003EBC2035B6813F4805F40F00B81234CA3
:102EA80001212046FEF718FB00212046FEF705FB0E
:102EB8008020FEF7CDF81A4B1A7842F001021A70FA
:102EC8001A7842F002021A7010BD4FF400610C48E3
:102ED800FEF71BF929E74FF480610948FEF715F959
:102EE8002DE74FF400610648FEF70FF9F2E64FF4BC
:102EF80080610348FEF709F9F6E600BF003C01408F
:102F080000040240C1020020BF020020580900202E
:102F180000200040C202002074020020B0020020FD
:102F2800F0020020C002002000000240000401401E
:102F3800FFF7DCFA0020624B1870624C2178FFF72B
:102F48003DFE20704FF400715F48FEF7DEF82278EE
:102F58005E4B03EBC2035B6813F4006F12D1594B4D
:102F68001A785A4B03EBC2035B6813F4805F0FD1E6
:102F7800574C01212046FEF7AFFA00212046FEF704
:102F88009CFAEBE64FF400614F48FEF7BEF8E6E71F
:102F98004FF480614C48FEF7B8F8E9E7FFF7A6FA66
:102FA800E2E64C4B00221A704B4C21780120FFF7C7
:102FB80005FE207004214948FEF7A7F82278434B04
:102FC80003EBC2035B6813F4006F12D1424B1A780B
:102FD8003E4B03EBC2035B6813F4805F0ED1404C99
:102FE80001212046FEF778FA00212046FEF765FA0F
:102FF800D7E608213948FEF788F8E7E74FF480510B
:103008003648FEF782F8EAE7FFF78CFA314B0022E0
:103018001A70314C21780120FFF7D0FD207004216F
:103028002E48FEF772F82278284B03EBC2035B6840
:1030380013F4006F12D1284B1A78244B03EBC20308
:103048005B6813F4805F0ED1254C01212046FEF702
:1030580043FA00212046FEF730FAA8E608211F4867
:10306800FEF753F8E7E74FF480511C48FEF74DF898
:10307800EAE7FFF757FAA0E6FFF738FAA3E64FF4B6
:1030880000611148FEF741F8C6E64FF480610E482A
:10309800FEF73BF8CAE6134B1A7842F001021A70A1
:1030A8001A7842F002021A70DDE608210B48FEF792
:1030B8002CF8E8E64FF480510848FEF726F8EEE6CB
:1030C800C1020020BF02002000040240580900206D
:1030D80000200040C2020020C00200200000024080
:1030E80000040140F0020020F8B5774E4FF6FE7359
:1030F8003382764D29780020FFF740FB0446744B55
:103108001B899BB207EE103AB8EE477AF0EE0C7ABC
:1031180027EE277A6F4BD3ED046AF8EE666AC7EE9E
:10312800267AB6EE007A77EE877A9FED6B7A67EEAD
:10313800877AFCEEE77A17EE903A9BB233852B78C4
:10314800DBB2664A52F8333013F0007F5CD029783E
:103158000020FFF7DBFB0546614B1B7823B1604B72
:103168001B78DBB2062B45D15E4B1B68AB4222D8DD
:103178005C4B1B68AB4250D25A4B1A68AD1A07EE2B
:10318800905AF8EE677A07EE104AF8EE476A87EE2B
:10319800A67A554AD2ED007AF8EE677A67EE877A12
:1031A800FCEEE77A17EE901A1B68194489B20020E2
:1031B800FDF7D8FE31E04B4A13685B1B07EE903AE7
:1031C800B8EE677A07EE904AF8EE677AC7EE276A94
:1031D8001168454BD3ED007AF8EE677A67EEA67A68
:1031E800FCEEE77A17EE903AC91A89B20020FDF78B
:1031F800B9FEBDE7354B19780020FFF787FB81B290
:103208000020FDF7AFFE08E0304B19780020FFF7EB
:103218007DFB81B20020FDF7A5FE2C4B1B78DBB2AD
:103228002E4A52F83310C1F389310020FEF7D6FC3C
:103238002046FDF70FF902460B4621A1D1E900010E
:10324800FDF7ACFA06460F46274B1868FDF702F95A
:1032580002460B4630463946FDF776F9FDF786FB00
:10326800C0F57F7103310120FEF7B8FC1C4B1B78B9
:1032780023B11B4B1B78DBB2062B03D11A4A136808
:1032880001331360184B1B68A34233D2144B1B78CD
:10329800DBB2012B00F04681114B1B78DBB2032B0C
:1032A80000F09681114B1B7843B9114B1A7842F004
:1032B80001021A701A7842F002021A70F8BD00BFB3
:1032C8000000000000F88F4000080040BF02002006
:1032D8003808002050020020001024465809002019
:1032E800C1020020A0020020C4020020B002002079
:1032F800F0020020AD4B19780020FFF707FBAC4B1C
:103308001860AC4B1B78DBB2062B74D0A74B1A782D
:10331800A94B03EBC2035B6813F0020F06D0A54A62
:103328001378DBB2A5490B70022313709F4B1A78F0
:10333800A14B03EBC2035B6813F0080F5FD19B4BF3
:103348001A789D4B03EBC2035B6813F0040F6AD134
:10335800964B1A78984B03EBC2035B6813F0020F85
:103368000ED1924B1A78944B03EBC2035B6813F0AF
:10337800080F05D18D4B1A788F4B03EBC2035B689E
:103388008F4B00221A608B4B1B78002B5AD0894B2D
:103398001B78DBB2022B00F08780864B1B78DBB2F0
:1033A800062B7FF473AF814C21780020FFF706FCD1
:1033B80020704FF400718348FDF7A7FE22787E4BFA
:1033C80003EBC2035B6813F4006F40F09F80774BF8
:1033D8001A78794B03EBC2035B6813F4805F40F003
:1033E8009B80794C01212046FEF776F80021204683
:1033F800FEF763F84AE76F4B02221A7086E74FF42C
:1034080080717048FDF778FE002898D1694B1B78C9
:10341800DBB2042B93D0674A1378DBB267490B7091
:10342800042313708BE74FF480716648FDF764FE40
:1034380001288DD15F4A1378DBB260490B700523F0
:10344800137085E7594C21781046FFF7B7FB2070B9
:103458004FF400715B48FDF758FE2278564B03EB9A
:10346800C2035B6813F4006F12D1504B1A78524BA9
:1034780003EBC2035B6813F4805F0FD1524C012148
:103488002046FEF729F800212046FEF716F87EE7C9
:103498004FF400614B48FDF738FEE6E74FF48061D2
:1034A8004848FDF732FEE9E7444B1B78002B3FF410
:1034B80074AF4FF400714348FDF727FE3B4B1A7871
:1034C8003D4B03EBC2035B6813F4006F12D1374B1B
:1034D8001A78394B03EBC2035B6813F4805F0FD192
:1034E800394C01212046FDF7F7FF00212046FDF762
:1034F800E4FF52E74FF400613248FDF706FEE6E7C5
:103508004FF480612F48FDF700FEE9E74FF40061B2
:103518002C48FDF7FAFD5AE74FF480612948FDF77A
:10352800F4FD5EE7214B1A78D2B2284B1B78013B99
:103538009A423FF4B1AE254B1B78013BDBB21B4CE2
:10354800237021780020FFF7E1F981B20020FDF710
:1035580009FD4FF400711B48FDF7D7FD2278164B83
:1035680003EBC2035B6813F4006F12D10F4B1A7898
:10357800114B03EBC2035B6813F4805F0FD1124C4D
:1035880001212046FDF7A8FF00212046FDF795FF01
:1035980082E64FF400610B48FDF7B7FDE6E74FF40C
:1035A80080610848FDF7B1FDE9E700BFBF020020D0
:1035B800A0020020C102002058090020BD020020FE
:1035C800C4020020000402400020004074020020D1
:1035D800094B1B78013BDBB2084A137011780020B5
:1035E800FFF794F981B20020FDF7BCFC044B1B786F
:1035F800DBB2044A137055E674020020BF020020B3
:10360800BD020020C10200202DE9F843764E4FF696
:10361800FE733382754D29780120FFF7AFF8044611
:10362800734B5889FCF726FF0022724BFCF78CFF7E
:1036380080468946704B5869FCF70CFF02460B46DA
:1036480040464946FDF7AAF800226C4BFCF7C6FD38
:1036580061A3D3E90023FCF777FFFDF787F980B270
:1036680030852B782033664A52F8333013F0007FC8
:103678005CD029780120FFF749F90546614B1B7892
:1036880023B1604B1B78DBB2062B45D15E4B1B6820
:10369800AB4222D85C4B1B68AB4250D25A4B1A68DB
:1036A800AD1A07EE905AF8EE677A07EE104AF8EE70
:1036B800476A87EEA67A554AD2ED007AF8EE677A1D
:1036C80067EE877AFCEEE77A17EE901A1B681944C2
:1036D80089B20020FDF756FC31E04B4A13685B1BAA
:1036E80007EE903AB8EE677A07EE904AF8EE677AF6
:1036F800C7EE276A1168454BD3ED007AF8EE677A72
:1037080067EEA67AFCEEE77A17EE903AC91A89B204
:103718000020FDF737FCBDE7344B19780120FFF78F
:10372800F5F881B20020FDF72DFC08E02F4B197841
:103738000120FFF7EBF881B20020FDF723FC2B4BAB
:103748001B7820332E4A52F83310C1F389310220F6
:10375800FEF744FA2046FCF77DFE02460B4620A100
:10376800D1E90001FDF71AF806460F46274B1868FD
:10377800FCF770FE02460B4630463946FCF7E4FE7D
:10378800FDF7F4F8C0F57F7103310320FEF726FA40
:103798001C4B1B7823B11B4B1B78DBB2062B03D1C8
:1037A8001A4A136801331360184B1B68A34231D2BD
:1037B800144B1B78DBB2012B00F01F81114B1B78D7
:1037C800DBB2032B00F05E81114B1B78DBB2012BBF
:1037D80000F06C81BDE8F883000000000082C4405E
:1037E8000000000000F88F40000C0040C0020020DC
:1037F8003808002000000C40500200200000E03F84
:1038080058090020C2020020A4020020C80200209B
:10381800B0020020AA4B19780120FFF777F8A94BCE
:103828001860A94B1B78DBB2062B7BD0A44B1B7806
:1038380003F12002A54B03EBC2035B6813F0020FF0
:1038480006D0A14A1378DBB2A1490B70022313708A
:103858009B4B1B7803F120029C4B03EBC2035B6874
:1038680013F0080F62D1964B1B7803F12002974B97
:1038780003EBC2035B6813F0040F6AD1904B1B780B
:1038880003F12002914B03EBC2035B6813F0020FB4
:1038980012D18B4B1B7803F120028C4B03EBC20334
:1038A8005B6813F0080F07D1854B1B7803F12002E2
:1038B800864B03EBC2035B68864B00221A60824B7F
:1038C8001B78002B5AD0804B1B78DBB2022B7FF47D
:1038D8006FAF7F4B1B78002B3FF46AAF04217E4803
:1038E800FDF713FC764B1B7803F12002774B03EBB3
:1038F800C2035B6813F4006F74D1714B1B7803F13A
:103908002002724B03EBC2035B6813F4805F6ED135
:10391800724C01212046FDF7DFFD00212046FDF70E
:10392800CCFD45E7684B02221A707FE740216C48BE
:10393800FDF7E2FB002896D1634B1B78DBB2042B22
:1039480091D0614A1378DBB261490B70042313707C
:1039580089E740216248FDF7CFFB01288ED15A4BF9
:103968001B78DBB2052B89D0574A1378DBB258494C
:103978000B7005231370FEF7D5FD7FE7504C2178B7
:103988000120FFF71BF9207004215348FDF7BDFB08
:10399800237803F120024D4B03EBC2035B6813F459
:1039A800006F14D1464B1B7803F12002474B03EB01
:1039B800C2035B6813F4805F0ED1484C0121204696
:1039C800FDF78AFD00212046FDF777FD7BE70821FA
:1039D8004148FDF79AFBE5E74FF480513E48FDF773
:1039E80094FBEAE708213C48FDF78FFB85E74FF495
:1039F80080513948FDF789FB8AE7314B1A78D2B2F2
:103A0800384B5B78013B9A423FF4D8AE354B5B7834
:103A1800013BDBB22A4C237021780120FEF776FFA8
:103A280081B20020FDF7AEFA04212B48FDF76DFBAB
:103A3800237803F12002254B03EBC2035B6813F4E0
:103A4800006F14D11E4B1B7803F120021F4B03EBB0
:103A5800C2035B6813F4805F0ED1204C012120461D
:103A6800FDF73AFD00212046FDF727FDA6E60821CF
:103A78001948FDF74AFBE5E74FF480511648FDF772
:103A880044FBEAE7174B5B78013BDBB20C4A137047
:103A980011780120FEF73AFF81B20020FDF772FA93
:103AA8000B4B1B78DBB2084A13708DE60E4B1A7865
:103AB80042F001021A701A7842F002021A7089E67E
:103AC800C0020020A4020020C202002058090020E1
:103AD800BE020020C802002000000240000401408D
:103AE8000004024074020020F00200202DE9F04199
:103AF80084B001210420FDF78BFB01A8FDF7D4FC5D
:103B080042F60413ADF80430012402940025ADF800
:103B18000C50ADF806504D4F01A93846FDF786FC0C
:103B280021463846FDF7CBFC21463846FDF7D4FC44
:103B380021460820FDF76CFB454E01A93046FDF7EC
:103B480075FC21463046FDF7BAFC21463046FDF7A4
:103B5800C3FC224621463846FDF7DEFC22462146B4
:103B68003046FDF7D9FC1E238DF800308DF8015042
:103B78008DF802508DF803406846FDF7CFF83223E0
:103B88008DF800308DF801508DF802508DF8034003
:103B98006846FDF7C3F82F4E86F81E5386F8325351
:103BA8002D4B2E4ADA6008232D4A13602D4A1360E4
:103BB8002D4A13602D4A136021464FF48070FDF79B
:103BC80027FB01A8FDF770FC4FF0D208ADF8048080
:103BD8004FF4A0730293ADF80C50ADF8065007F5FA
:103BE800C05701A93846FDF721FC29463846FDF79C
:103BF80073FC224621463846FDF78EFC4FF40053ED
:103C0800736021460220FDF711FB01A8FDF74CFC6B
:103C1800ADF804804FF420730293ADF80C50ADF862
:103C2800065007F5644701A93846FDF7FFFB29460A
:103C38003846FDF751FC224621463846FDF76CFC14
:103C48004FF48053736004B0BDE8F0810008004071
:103C5800000C004000E100E000ED00E00007FA057C
:103C6800C4020020C8020020B4020020B8020020CC
:103C780038B501210E48FDF759FC00B938BD0C4D87
:103C880000212846FDF728FC0A4C04212046FDF7B0
:103C98003AFA08212046FDF736FA4FF480512046BB
:103CA800FDF731FA01212846FDF74CFCE6E700BF95
:103CB800000401400000024038B501210F48FDF71B
:103CC80035FC00B938BD0D4D00212846FDF704FC30
:103CD8000B4C4FF400712046FDF715FA4FF40061C4
:103CE8002046FDF710FA4FF480612046FDF70BFAE5
:103CF80001212846FDF726FCE4E700BF002000402C
:103D08000004024010B5404B4FF6FE721A823F4B3A
:103D18001B78DBB2042B0FD03C4B1B78DBB2042B97
:103D280012D03A4B1B78DBB2052B24D0374B1B78CB
:103D3800DBB2052B27D010BD4FF480713448FDF756
:103D4800DBF90028EDD0E7E74FF480713048FDF744
:103D5800D3F90128E5D100202C4B18702D4C21787F
:103D6800FEF72CFF2070284A13889BB223F001032A
:103D78009BB21380D5E74FF480712548FDF7BCF955
:103D88000128D3D1D7E74FF480712148FDF7B4F962
:103D98000028D0D11D4B18701E4C2178FEF70EFF5D
:103DA8002070194A13889BB223F001039BB2138039
:103DB8004FF400711648FDF7A8F92278164B03EB6B
:103DC800C2035B6813F4006F12D1124B1A78124BBE
:103DD80003EBC2035B6813F4805F0FD10F4C012122
:103DE8002046FDF779FB00212046FDF766FBA2E798
:103DF8004FF400610648FDF788F9E6E74FF4806163
:103E08000348FDF782F9E9E700040040C1020020F9
:103E180000040240BF020020580900200020004092
:103E280010B5404B4FF6FE721A823F4B1B78DBB23F
:103E3800042B0FD03C4B1B78DBB2042B11D03A4B30
:103E48001B78DBB2052B22D0374B1B78DBB2052B56
:103E580024D010BD40213548FDF74EF90028EED09A
:103E6800E8E740213148FDF747F90128E7D12E4B13
:103E780000221A702E4C2178FEF7A0FE2070294AE5
:103E880013889BB223F001039BB21380D7E740212C
:103E98002648FDF731F90128D6D1DAE74021234831
:103EA800FDF72AF90028D4D11F4B00221A70204CA4
:103EB80021780120FEF782FE20701A4A13889BB2EF
:103EC80023F001039BB2138004211A48FDF71DF962
:103ED800237803F12002184B03EBC2035B6813F449
:103EE800006F14D1124B1B7803F12002124B03EB25
:103EF800C2035B6813F4805F0ED1104C0121204689
:103F0800FDF7EAFA00212046FDF7D7FAA1E70821D4
:103F18000848FDF7FAF8E5E74FF480510548FDF742
:103F2800F4F8EAE700140040C2020020000402404E
:103F3800C00200200000024058090020000401408F
:103F4800F0B583B001210220FDF754F90027ADF840
:103F580006704FF46063009301248DF80440032633
:103F68008DF805601A4D69462846FDF777F84FF435
:103F780000712846FDF7C7F84FF400612846FDF7A1
:103F8800C2F84FF480612846FDF7BDF82146204667
:103F9800FDF730F9ADF8067041F20C0300938DF887
:103FA80004408DF805600B4C69462046FDF756F82D
:103FB80004212046FDF7A7F808212046FDF7A3F8BD
:103FC8004FF480512046FDF79EF803B0F0BD00BFC6
:103FD800000402400000024000B583B001210846F9
:103FE800FDF708F9C023009303238DF8053001235A
:103FF8008DF8043000238DF8063069460248FDF735
:104008002DF803B05DF804FB0000024010B586B03F
:1040180002A8FCF78DFF01210846FDF7EBF83023D5
:10402800009303238DF8043069461448FDF716F809
:1040380001214FF00050FDF7EBF800240294022311
:1040480005930394FCF74FFF02A92046FCF758FF9D
:1040580002A91020FCF754FF01212046FCF76EFF4F
:1040680001211020FCF76AFF21462046FCF77AFF61
:1040780021462046FCF786FF06B010BD000002402E
:10408800F0B583B00446FDF764FF002800F0D58240
:104098001F26C64B1B78002B40F0D182C44B1B78DF
:1040A800DBB2C24A1278D2B2012A00F0CA820022D8
:1040B800BE490978C9B2022900F0C782BB4909780C
:1040C800C9B2032900F0C582B8490978C9B20429E0
:1040D80000F0C382B5490978C9B2052900F0C18248
:1040E800B2490978C9B2062900F0BF82AF490978F8
:1040F800C9B2072900F0BD8217461D4603EB4213DB
:10410800AC4A02EBC30393E8030002AB03E90300E4
:10411800627812F0100F0FD19DF8033043F01003AE
:104128009DF804106FF300018DF8041003F01F03CD
:104138006FF382038DF8033012F0200F11D19DF830
:10414800033003F0EF0343F020039DF804106FF3EE
:1041580000018DF8041003F03F036FF382038DF81C
:10416800033012F0400F11D19DF8033003F0CF0354
:1041780043F040039DF804106FF300018DF804101C
:1041880003F07F036FF382038DF8033012F0800F82
:104198000FD19DF8033003F08F039DF804106FF3DF
:1041A80000018DF8041063F07F036FF382038DF82C
:1041B8000330A37813F0010F0DD19DF803109DF87B
:1041C800040040F001008DF8040001F00F016FF3C6
:1041D80082018DF8031012F0010F0DD19DF8031024
:1041E8009DF804006FF300008DF8040001F00F0142
:1041F80041F004018DF80310E17811F0100F05D19A
:104208009DF8050040F008008DF8050011F0200F1A
:1042180005D19DF805006FF3C3008DF8050011F076
:10422800400F05D19DF8050040F010008DF80500FD
:1042380011F0800F05D19DF805106FF304118DF86A
:104248000510217811F0100F05D19DF8030040F0FA
:1042580001008DF8030011F0200F05D19DF803002F
:104268006FF300008DF8030011F0400F05D19DF8A1
:10427800030040F002008DF8030011F0800F05D113
:104288009DF803106FF341018DF8031012F0040F2D
:1042980005D19DF8031041F008018DF8031012F0C4
:1042A800080F05D19DF803206FF3C3028DF8032092
:1042B80013F0020F3DD19DF8042042F0020202F0F3
:1042C800F7026FF382028DF80420384A127822B17F
:1042D800364A1278D2B2022A05D1374A1278D2B2B7
:1042E800052A00F0CA81314A1278D2B2012A00F0B8
:1042F800C8812E4A1278D2B2032A00F0C2812B4A12
:10430800127822B1294A1278D2B2022A05D12A4A51
:104318001278D2B2042A00F0CD81244A1278D2B29F
:10432800012A00F0CB81214A1278D2B2032A00F088
:10433800C58113F0040F05D19DF804206FF34102E5
:104348008DF8042013F0080F23D19DF8042042F0C3
:10435800040202F0FD026FF3C3028DF80420134A31
:10436800127822B1114A1278D2B2022A05D1124A21
:104378001278D2B2042A00F0AB810C4A1278D2B279
:10438800012A00F0AB81094A1278D2B2032A00F060
:10439800A58113F0100F28D19DF804206FF3820235
:1043A8008DF80420014A12786AB107E0B0020020B3
:1043B800BF02002058090020C1020020B64A127826
:1043C800D2B2022A05D1B54A1278D2B2052A00F033
:1043D8009181B14A1278D2B2012A00F09181AE4A95
:1043E8001278D2B2032A00F08B8113F0200F23D168
:1043F8009DF8042042F0080202F0FD026FF38202E9
:104408008DF80420A44A127822B1A34A1278D2B2B5
:10441800022A05D1A14A1278D2B2052A00F07C817D
:104428009D4A1278D2B2012A00F07C819A4A127809
:10443800D2B2032A00F0768113F0400F1FD19DF805
:1044480004206FF3C3028DF80420934A127822B136
:10445800914A1278D2B2022A05D1904A1278D2B281
:10446800042A00F06B818C4A1278D2B2012A00F03B
:104478006B81894A1278D2B2032A00F0658113F061
:10448800800F07D19DF8043043F010036FF34513F4
:104498008DF80430A37913F0010F05D19DF804209D
:1044A8006FF304128DF8042013F0020F07D19DF862
:1044B800042042F020026FF304128DF8042013F058
:1044C800040F05D19DF804206FF345128DF80420E0
:1044D800227912F0010F05D19DF8051041F0040171
:1044E8008DF8051012F0020F05D19DF805206FF325
:1044F80082028DF8052013F0080F0FD19DF80420D3
:1045080042F040026FF3C7128DF804209DF8052091
:1045180002F0FE026FF341028DF8052013F0100F30
:104528000FD19DF8042002F0BF0242F080028DF8FE
:1045380004209DF8052002F0FE026FF341028DF879
:10454800052013F0200F0FD19DF8042002F0BF02C0
:104558006FF3C7128DF804209DF8052042F0010280
:104568006FF341028DF8052013F0400F0FD19DF82D
:10457800043003F0BF036FF3C7138DF804309DF8C0
:10458800053003F0FE0343F002038DF8053023786D
:1045980013F0010F00F0E480237813F0020F00F00D
:1045A8003D81237813F0040F40F020823A4B1B78AA
:1045B8002BB9394B02221A70394B01221A70364B2B
:1045C8001B78DBB2012B00F06E81334B1B78DBB21A
:1045D800022B00F06F81304B1B78DBB2032B00F00D
:1045E80069812D4B1B78DBB2042B0FD02A4B1B782B
:1045F800DBB2052B0AD0284B1B78DBB2062B05D083
:10460800254B1B78DBB2072B40F0F381244B1B783A
:10461800002B00F0AB81234A1288002A40F09C81CD
:10462800013B1F4A13701F4A1388013313801E4A27
:10463800137843F002031370DBE10F2629E500230A
:104648002FE51A4B1B78DBB232E5154B1B7800229D
:1046580034E5134B1B78012236E5114B1B780022F9
:1046680038E50F4B1B7801223AE50D4B1B780022E9
:104678003CE50B4B1B7801223EE5084A02211170EC
:1046880031E60B4A1278D2B2052A7FF438AE084ACE
:104698000221117033E600BFB0020020C1020020E1
:1046A800B1020020AC020020F0020020C00200206D
:1046B800C20200209D4A022111702EE69C4A1278FF
:1046C800D2B2042A7FF435AE994A0221117030E63D
:1046D800984A1278D2B295490A704EE6944A1278EE
:1046E800D2B2042A7FF455AE934A1278D2B29049D6
:1046F8000A704EE68F4A1278D2B28C490A7068E680
:104708008B4A1278D2B2052A7FF46FAE8A4A1278A1
:10471800D2B287490A7068E6864A1278D2B28349CB
:104728000A707DE6824A1278D2B2052A7FF484AEF6
:10473800814A1278D2B27E490A707DE67D4A1278A3
:10474800D2B27A490A708EE6794A1278D2B2042A2D
:104758007FF495AE784A1278D2B275490A708EE61F
:10476800FDF7FCFE754B1B78DBB2062B18D0734B9C
:104778001B78DBB2072B27D0704B1B78002B37D167
:104788006E4B06221A706E4B00221A706D4B1A7807
:1047980042F002021A701A7842F001021A70FBE61F
:1047A800674B1878FDF766FF674B01221A700021E6
:1047B800624B19705D4A1378DBB25E480370634B35
:1047C800197002231370E7E65D4B1878FDF752FF66
:1047D80001235D4A1370594A1370554A1378DBB2A6
:1047E80055490B705A4B0021197002231370D3E6F8
:1047F800524B1B78DBB2012B7FF4CEAE4F4B072216
:104808001A704F4B00221A704E4B1A7842F002026F
:104818001A701A7842F001021A70BDE6FDF79EFE82
:10482800464B1B78DBB2042B17D0444B1B78DBB20A
:10483800052B1AD0414B1B78FBB9404B04221A7048
:104848003F4B00221A703F4B1A7842F002021A704E
:104858001A7842F001021A70A3E6394B1878FDF76E
:10486800CBFE364B00221A709BE6354B1878FDF7C5
:10487800C3FE324B01221A7093E6304B1B78DBB231
:10488800012B7FF48EAE2D4B05221A702C4B002283
:104898001A702C4B1A7842F002021A701A7842F0F9
:1048A80001021A707DE6254B03221A70244B01225F
:1048B8001A708AE6224B1B78E3B1264A128882B91D
:1048C800013B1F4A1370234A1388013313801D4B81
:1048D8001A7842F001021A701A7842F002021A702D
:1048E8007FE6782AEFD91B4A64211180013B144ADC
:1048F8001370E8E7174B1B887BB9114B1E70154ADC
:104908001388013313800F4B1A7842F001021A7092
:104918001A7842F002021A7063E6782BEFD90D4B31
:1049280064221A80064B1E70E9E700BFC10200200E
:10493800C2020020BD020020BE020020B0020020FA
:10494800B1020020F0020020BC020020BF020020BB
:10495800C0020020AC020020782A7FF664AE874AA5
:1049680064211180013B864A13705CE6834B1B88E7
:104978005BB1782B20D8814A138801331380814A90
:10498800137843F00203137033E0FDF7E2FA78B9C5
:104998007B4B0F221A707C4B1B78DBB2012B03D0A8
:1049A800794B01221A70E6E7774B02221A70E2E788
:1049B800734B1F221A70DEE7704B64221A80FDF7D2
:1049C800C8FA78B96E4B0F221A706F4B1B78DBB29E
:1049D800012B03D06C4B01221A70CCE76A4B0222E0
:1049E8001A70C8E7664B1F221A70C4E7634B00228F
:1049F8001A80237813F0080F40F0CC80634B1B78A3
:104A080023B9624B02221A705D4B1E705F4B1B78F4
:104A1800DBB2012B4AD05D4B1B78DBB2022B04D0F2
:104A28005A4B1B78DBB2032B17D1554B1B78B3427B
:104A38004BD2574A1288002A3ED10133504A13708C
:104A4800534A1388013313804E4B1A7842F00102FF
:104A58001A701A7842F002021A704C4B1B78DBB2BB
:104A6800042B0FD0494B1B78DBB2052B0AD0474BE0
:104A78001B78DBB2062B05D0444B1B78DBB2072B27
:104A880040F08B803E4B1B78B34237D2404A1288A5
:104A98005ABB01333A4A13703D4A138801331380D5
:104AA800384A137843F00203137076E0374B032239
:104AB8001A70334B1E70AEE7782AC1D9344A642184
:104AC800118001332E4A1370BAE7314B1B881BB98A
:104AD8002B4B00221A70B3E7782BB1D92C4B6422E8
:104AE8001A80274B00221A70AAE7782AD4D9284AB4
:104AF800642111800133224A1370CDE7244B1B88AF
:104B08005BB1782B20D8224A1388013313801D4AC1
:104B1800137843F0020313703FE0FDF71AFA78B9EF
:104B2800174B00221A70184B1B78DBB2012B03D0ED
:104B3800154B01221A70E6E7134B02221A70E2E7BE
:104B48000F4B00221A70DEE7114B64221A80FDF722
:104B580000FA78B90A4B00221A700B4B1B78DBB2AB
:104B6800012B03D0084B01221A70CCE7064B022216
:104B78001A70C8E7024B00221A70C4E7AC02002082
:104B8800B1020020F002002070020020B0020020D4
:104B9800AE020020AA4B00221A80AA4B01221A70EA
:104BA800A94B1B78C3B9637913F0040F05D1A74B40
:104BB8001B7813B1A54B00221A70237913F0400F0C
:104BC8000AD1A24B1B78DBB2012B05D09F4B0122E7
:104BD8001A709C4B00221A70637913F0020F1FD1D0
:104BE8009B4B1B78DBB2012B1AD09A4B00221A7010
:104BF800994B1A7842F001021A701A7842F00202B0
:104C08001A70934B1B78DBB2042B04D0904B1B78A3
:104C1800DBB2052B04D1914B1B78DBB28C4A1370A5
:104C2800237913F0200F1FD18D4A1278D2B2012AAE
:104C38001AD08C4A00211170874A117841F001017D
:104C48001170117841F002011170854A1278D2B2C0
:104C5800042A04D0824A1278D2B2052A04D1824AA0
:104C68001278D2B27E490A7013F0100F3AD07F4BF7
:104C78001B78002B36D17D4B01221A707C4B1B7898
:104C8800013BDBB2734A1370704B1B7843B9724B0C
:104C98001A7842F001021A701A7842F002021A7069
:104CA8004FF400717348FCF730FA6A4B1A78724B6C
:104CB80003EBC2035B6813F4006F40F06E81654B31
:104CC8001A786D4B03EBC2035B6813F4805F40F006
:104CD8006A816A4E01213046FCF7FEFB002130460E
:104CE800FCF7EBFB237913F0100F02D15F4B002286
:104CF8001A70637913F0100F33D15D4B1B78013BA9
:104D0800DBB2544A1370514B1B7843B9524B1A7893
:104D180042F001021A701A7842F002021A704FF437
:104D280000715448FCF7F1F94A4B1A78524B03EBDF
:104D3800C2035B6813F4006F40F03B81454B1A785F
:104D48004D4B03EBC2035B6813F4805F40F037817F
:104D58004A4E01213046FCF7BFFB00213046FCF7E4
:104D6800ACFBE37813F0080F33D0454B1B78002BCE
:104D78002FD1434B01221A703D4B5B78013BDBB2CC
:104D8800384A1370314B1B78DBB2012B00F01D81C0
:104D980004213C48FCF7B9F92E4B1A78364B03EB43
:104DA800C2035B6813F4006F40F01981294B1A782D
:104DB800314B03EBC2035B6813F4805F40F014814E
:104DC800314E01213046FCF787FB00213046FCF7C5
:104DD80074FBE37813F0080F02D1294A00211170FF
:104DE80013F0020F58D1224B5B78013BDBB21D4A0E
:104DF8001370164B1B78DBB2012B00F0FB800421EB
:104E08002048FCF782F9174B1B7803F120021A4B54
:104E180003EBC2035B6813F4006F40F0F580114B9D
:104E28001B7803F12002144B03EBC2035B6813F4F5
:104E3800805F40F0EE80144E0121304626E000BF2E
:104E4800AE020020CC020020BC020020B0020020EC
:104E5800C1020020BF020020F0020020BD02002095
:104E6800C2020020C0020020BE020020D80200209A
:104E7800740200200004024058090020002000406D
:104E8800D90200200000024000040140FCF724FB86
:104E980000213046FCF711FB637913F0200F40F036
:104EA800BE80AE4A1278D2B2012A0ED0AB490A7837
:104EB800D2B2AB48027001220A70AA490A7842F0BD
:104EC80001020A70A84A00211170E27812F0040F5A
:104ED80040F0BD80A54A1278D2B2012A0ED0A3496B
:104EE8000A78D2B2A248027001220A709D490A7853
:104EF80042F001020A709C4A0021117013F0010F60
:104F080040F0D9809B4A13780133DBB21370934B7E
:104F18001B78DBB2012B00F0D180904B1B78002B63
:104F280000F0AD808D4B1B78DBB2052B09D08B4B85
:104F38001B78DBB2042B04D0884B1B78DBB2884A81
:104F480013708D4E31780020FDF738FE3070834B9A
:104F580002221A704FF400718848FCF7D6F8864B85
:104F68001A78874B03EBC2035B6813F4006F40F0B9
:104F78009680814B1A78824B03EBC2035B6813F46B
:104F8800805F40F092807F4E01213046FCF7A4FA02
:104F980000213046FCF791FA90E04FF40061774821
:104FA800FCF7B3F88BE64FF480617448FCF7ADF872
:104FB8008FE64FF400617148FCF7A7F8BEE64FF49E
:104FC80080616E48FCF7A1F8C2E6664B1A7842F099
:104FD80001021A701A7842F002021A70D8E6082103
:104FE8006948FCF792F8E1E64FF480516648FCF70F
:104FF8008CF8E5E65B4B1A7842F001021A701A78D1
:1050080042F002021A70FAE608215F48FCF77DF8C0
:1050180005E74FF480515C48FCF777F80BE74F4AF7
:105028001278D2B2012A7FF450AF4D4A1278D2B228
:105038004A490A704B4A117841F001011170117800
:1050480041F002011170484A002111703DE7474ABA
:105058001278D2B2012A7FF451AF454A1278D2B2FF
:1050680042490A703F4A117841F0010111701178E4
:1050780041F0020111703C4A002111703EE73E4E9A
:1050880031780020FDF742FC404B18603178002051
:10509800FDF794FD30703E4B00221A6057E74FF43D
:1050A80000613648FCF731F863E74FF48061334814
:1050B800FCF72BF867E72F4B00221A70637913F07F
:1050C800080F40F08880334A13780133DBB213703D
:1050D800264B1B78DBB2012B00F08080234B1B781A
:1050E800002B5DD0214B1B78DBB2052B09D01F4B61
:1050F8001B78DBB2042B04D01C4B1B78DBB21C4A98
:105108001370254C21780120FDF758FD2070174BAE
:1051180002221A7004211C48FBF7F7FF1E4B1B786C
:1051280003F12002164B03EBC2035B6813F4006F14
:1051380046D1194B1B7803F12002114B03EBC20334
:105148005B6813F4805F40D1144C01212046FCF7C2
:10515800C3F900212046FCF7B0F93FE0C102002066
:10516800BD020020F0020020CC020020C202002074
:10517800BE020020A8020020BF0200200004024056
:10518800580900200020004000000240A002002032
:10519800C4020020A9020020C0020020000401402F
:1051A8001B4C21780120FDF7B1FB1A4B18602178C0
:1051B8000120FDF703FD2070174B00221A60A6E7B7
:1051C80008211648FBF7A1FFB3E74FF480511348B5
:1051D800FBF79BFFB8E7124B00221A70114B1B78A4
:1051E8002BB1104B00221A70012003B0F0BD05EB63
:1051F80047150D4F07EBC50502AB13E9030085E81A
:1052080003000A4A137843F001031370ECE700BF68
:10521800C0020020A4020020C802002000000240B2
:10522800A9020020BC02002058090020F00200203A
:1052380070B582B0FF238DF804308DF805308DF8F5
:1052480006308DF80730C04B1B7823B1BE4B1B7856
:10525800DBB2062B05D19DF804306FF382038DF87D
:105268000430B94B1B78DBB2012B09D0B64B1B7845
:10527800DBB2042B04D0B44B1B78DBB2052B05D171
:105288009DF804306FF341038DF80430AE4B1B7862
:10529800DBB2022B00F08781AC4B1B7823B1AB4B00
:1052A8001B78DBB2062B05D19DF804306FF345134C
:1052B8008DF80430A54B1B78DBB2012B09D0A34B2A
:1052C8001B78DBB2042B04D0A04B1B78DBB2052B78
:1052D80005D19DF804306FF304138DF804309B4B0F
:1052E8001B78DBB2022B00F06581994B1B78002BF1
:1052F80040F06781974B1978C9B2954B1B78DBB2A0
:10530800012B00F060810025914B1B78DBB2022B4A
:1053180000F05E818E4B1B78DBB2032B00F05C81C2
:105328002C460B4601EB45128B4800EBC202D078A5
:10533800C0F3800080F001009DF8076060F38206EA
:105348008DF80760D078C0F3001080F00100F6B245
:1053580060F304168DF80760D078C0F3401080F031
:105368000100F6B260F345168DF80760D078C0F3F7
:10537800801080F00100F6B260F386168DF80760A1
:10538800D0786FEAD010F6B260F3C7168DF80760D0
:10539800127902F0010282F001029DF8060062F320
:1053A80000008DF806006D4A1278002A00F0188176
:1053B80001EB4511684A02EBC1014A79C2F30012B8
:1053C80082F001029DF8040062F386108DF8040053
:1053D8004A79C2F3C00282F00102C1B262F3C71176
:1053E8008DF8041003EB44135B4A02EBC3031A79EC
:1053F800C2F3001282F001029DF8061062F3041154
:105408008DF806101A79C2F3401282F00102C9B26F
:1054180062F345118DF80610DA78C2F3C00282F003
:1054280001029DF8071062F3C3018DF80710DA78BE
:10543800C2F3400282F00102C9B262F341018DF861
:105448000710DA7802F0010282F00102C9B262F3B1
:1054580000018DF807101A79C2F3801282F0010258
:105468009DF8061062F386118DF806101A796FEA16
:10547800D212C9B262F3C7118DF806105A7902F038
:10548800010282F001029DF8051062F300018DF817
:1054980005105A79C2F3400282F00102C9B262F3E0
:1054A80041018DF805105A79C2F3800282F0010299
:1054B800C9B262F382018DF805101A79C2F340026D
:1054C80082F001029DF8061062F341018DF8061082
:1054D8001A79C2F3800282F00102C9B262F3820132
:1054E8008DF806101B79C3F3C00383F00103CAB219
:1054F80063F3C3028DF80620154B1B78DBB2042B2F
:105508000FD0134B1B78DBB2052B0AD0104B1B783E
:10551800DBB2062B05D00E4B1B78DBB2072B40F015
:105528009D80FF238DF804308DF805308DF8063006
:105538008DF80730064B1B78DBB2042B6BD0044B7D
:105548001B78DBB20CE000BFC1020020C2020020C1
:10555800B0020020BF02002058090020DA02002013
:10556800052B58D0664B1B78DBB2062B04D0644B56
:105578001B78DBB2072B63D19DF8043043F002039C
:105588008DF804305F4B1A6801321A601A6840F2CD
:10559800DB539A4200F29C809DF804306FF30413A9
:1055A8008DF804304CE09DF804306FF300038DF85B
:1055B800043071E69DF804306FF3C3038DF80430AE
:1055C80093E6002199E6504B1978C9B201259BE66C
:1055D8004E4B197800259DE64C4B197801259FE61E
:1055E80001EB45114A4A02EBC1014A79C2F3C002F4
:1055F80082F001029DF8040062F386108DF8040021
:105608004A79C2F3001282F00102C1B262F3C711F3
:105618008DF80410E6E69DF8043043F010038DF889
:1056280004303C4B1A6801321A601A6840F2DB53A6
:105638009A423CD89DF804306FF341038DF804304A
:10564800FCF787FC50B9344B1B78DBB2012B50D0E8
:105658009DF8043003F07F038DF8043001A8FCF7AF
:10566800E5FC274B1B7823B1254B1B78DBB2022BBB
:1056780008D12A4C40212046FBF745FD80212046D1
:10568800FBF743FD1E4B1B78DBB2012B04D01C4BF0
:105698001B78DBB2032B08D1204C80212046FBF776
:1056A80032FD40212046FBF730FD02B070BD194B9A
:1056B8001A6840F6B7339A4206D89DF8043043F08A
:1056C80002038DF80430BBE7124B00221A60B7E7DB
:1056D8000C4B1A6840F6B7339A4206D89DF8043046
:1056E80043F010038DF80430AAE7064B00221A6035
:1056F800A6E79DF8043023F040038DF80430ADE7A9
:10570800B0020020D0020020C0020020B102002018
:1057180058090020D4020020700200200000024036
:1057280008B51A4B1B783BB3184B1B78DBB2012B1F
:1057380027D0164B1B78DBB2022B18D0134B1B78E3
:10574800DBB2032B13D0114B1B78DBB2042B0ED02A
:105758000E4B1B78DBB2052B09D00C4B1B78DBB248
:10576800062B04D0094B1B78DBB2072B03D1084B5F
:105778001878FCF7F5FC08BD064B1878FCF7F0FC28
:10578800D2E7054B1878FCF7EBFCD2E7B002002013
:10579800B1020020BF020020C002002030B583B053
:1057A800FF238DF804308DF805308DF806308DF81C
:1057B80007302A4C40212046FBF7A7FC80212046D1
:1057C800FBF7A3FCFCF756F9044600250EE0B5F5F7
:1057D800166F1BD29DF804306FF386138DF80430D2
:1057E80001A8FCF723FCFCF745F90446230E03F057
:1057F8005002502A0CD10135B5F5966FE7D29DF8C5
:10580800043043F040038DF80430E9E70025E7E76A
:1058180013F0100F12D1124B00221A7001221049F6
:105828004CF62000FBF79AFF9DF804306FF38613BF
:1058380002A800F8043DFCF7F9FB06E0084B01223A
:105848001A70EBE7FCF716F90446C4F3076404F092
:105858005004502CF6D103B030BD00BF0000024008
:10586800DA02002030B583B0FCF704F90D46FF23B7
:105878008DF804308DF805308DF806308DF8073036
:10588800354C80212046FBF740FC40212046FBF7A1
:105898003CFC002414E0B4F57A6F25D29DF804305E
:1058A80003F0FB0343F0030303F0DF0343F01803A3
:1058B8008DF8043001A8FCF7B9FBFCF7DBF80D46BE
:1058C80015F4006F25D00134B4F5FA6FE3D29DF8D2
:1058D800043043F0060303F0FE0343F030036FF394
:1058E800C3038DF80430E5E741F26F739C420ED88C
:1058F8009DF8043043F0040303F0FD0343F0210353
:1059080003F0EF0343F008038DF80430D2E70024D6
:10591800D0E7002300E00133072B10D80F4A32F8F4
:10592800132092B20E4941F8232051F82320632A0C
:10593800F1D80A4640F6FF7142F82310EBE7FCF76E
:105948001FFD202206494FF44840FBF707FFFCF7EC
:1059580061FC03B030BD00BF0000024038080020E1
:105968005002002010B586B0044601A8FBF7E6FBFC
:10597800029B084AA2FB03235B0B04FB03F305937A
:1059880002E0059B013B0593059B002BF9D106B06E
:1059980010BD00BF5917B7D138B57B4B4FF6FE7213
:1059A8001A82FCF767F8794B1B781D2B2DD8784A9B
:1059B80012781D2A29D8C0B200F00301032914D097
:1059C80010F0010F09D1013370490B7010F0020F6C
:1059D80007D101326E4B1A701DE06C4B0021197013
:1059E800F4E76B4B00221A7015E00021674B197021
:1059F800674B1970644C2046FBF75FFD23889BB208
:105A080023F001039BB2238005E01E2B04D0604BDA
:105A18001B781E2B00D038BD0020FCF789FB4FF403
:105A2800FA70FFF79FFF4FF6FF70FCF781FB4FF40A
:105A3800FA70FFF797FF0020FCF77AFB4FF4FA7033
:105A4800FFF790FF4FF6FF70FCF772FB4FF4FA7008
:105A5800FFF788FF0020FCF76BFB4FF4FA70FFF7A5
:105A680081FF4FF6FF70FCF763FB474C002120468F
:105A7800FBF723FD23889BB223F001039BB223800D
:105A8800424B1B781E2B23D0414B1B781E2B47D033
:105A980000233E4A13703E4A13703E4B1B78DBB21C
:105AA800062B04D03B4B1B78DBB2042B02D1394BBD
:105AB80000221A70374B1B78DBB2072B04D0354B0A
:105AC8001B78DBB2052BA6D1324B01221A70A2E754
