:020000040800F2
:100000000000022081600008D3600008D56000086D
:10001000D7600008D9600008DB600008000000001D
:10002000000000000000000000000000DD6000088B
:10003000DF60000800000000E1600008E3600008E5
:10004000D1600008D1600008D1600008D1600008CC
:10005000D1600008D1600008BD200008C921000857
:10006000D1600008D1600008D1600008D1600008AC
:10007000D1600008D1600008D1600008D16000089C
:10008000D1600008D16000087D5B0008D1600008E5
:10009000D1600008D1600008D16000088D280008F8
:1000A000D1600008D1600008D1600008D16000086C
:1000B000D1600008AD380008A12C0008D16000080C
:1000C000D1600008D1600008D1600008D16000084C
:1000D000D1600008D1600008D1600008D16000083C
:1000E000D1600008D1600008D1600008D16000082C
:1000F0001938000861380008D1600008D160000894
:10010000D1600008D1600008B9310008D160000852
:10011000D1600008D1600008E9540008213A0008C5
:10012000D1600008D1600008D1600008D1600008EB
:10013000D1600008D1600008D1600008D1600008DB
:10014000D1600008D1600008D1600008D1600008CB
:10015000D1600008D1600008D1600008D1600008BB
:10016000D1600008D1600008D1600008D1600008AB
:10017000D1600008D1600008D1600008D16000089B
:08018000D1600008D160000805
:1001880010B5054C237833B9044B13B10448AFF3C9
:1001980000800123237010BD8002002000000000B1
:1001A8008064000808B5034B1BB103490348AFF34B
:1001B800008008BD00000000840200208064000860
:1001C80081F0004102E000BF83F0004330B54FEA00
:1001D80041044FEA430594EA050F08BF90EA020F6D
:1001E8001FBF54EA000C55EA020C7FEA645C7FEA00
:1001F800655C00F0E2804FEA5454D4EB5555B8BF23
:100208006D420CDD2C4480EA020281EA030382EA93
:10021800000083EA010180EA020281EA0303362D25
:1002280088BF30BD11F0004F4FEA01314FF4801CF8
:100238004CEA113102D0404261EB410113F0004F0A
:100248004FEA03334CEA133302D0524263EB4303C1
:1002580094EA050F00F0A780A4F10104D5F1200E5F
:100268000DDB02FA0EFC22FA05F2801841F10001BA
:1002780003FA0EF2801843FA05F359410EE0A5F18E
:1002880020050EF1200E012A03FA0EFC28BF4CF0BF
:10029800020C43FA05F3C01851EBE37101F0004575
:1002A80007D54FF0000EDCF1000C7EEB00006EEB82
:1002B8000101B1F5801F1BD3B1F5001F0CD349080C
:1002C8005FEA30004FEA3C0C04F101044FEA445263
:1002D80012F5800F80F09A80BCF1004F08BF5FEAEA
:1002E800500C50F1000041EB045141EA050130BDCA
:1002F8005FEA4C0C404141EB010111F4801FA4F16D
:100308000104E9D191F0000F04BF01460020B1FAC1
:1003180081F308BF2033A3F10B03B3F120020CDAF9
:100328000C3208DD02F1140CC2F10C0201FA0CF0D7
:1003380021FA02F10CE002F11402D8BFC2F1200C3C
:1003480001FA02F120FA0CFCDCBF41EA0C019040F2
:10035800E41AA2BF01EB0451294330BD6FEA04043B
:100368001F3C1CDA0C340EDC04F11404C4F1200226
:1003780020FA04F001FA02F340EA030021FA04F338
:1003880045EA030130BDC4F10C04C4F1200220FA8F
:1003980002F001FA04F340EA0300294630BD21FACD
:1003A80004F0294630BD94F0000F83F4801306BF93
:1003B80081F480110134013D4EE77FEA645C18BF87
:1003C8007FEA655C29D094EA050F08BF90EA020F1E
:1003D80005D054EA000C04BF1946104630BD91EA16
:1003E800030F1EBF0021002030BD5FEA545C05D119
:1003F8004000494128BF41F0004130BD14F5800458
:100408003CBF01F5801130BD01F0004545F0FE41CB
:1004180041F470014FF0000030BD7FEA645C1ABF00
:10042800194610467FEA655C1CBF0B46024650EA37
:10043800013406BF52EA033591EA030F41F4002163
:1004480030BD00BF90F0000F04BF0021704730B5E9
:100458004FF4806404F132044FF000054FF00001BE
:1004680050E700BF90F0000F04BF0021704730B57F
:100478004FF4806404F1320410F0004548BF404254
:100488004FF000013EE700BF42004FEAE2014FEAA9
:1004980031014FEA02701FBF12F07F4393F07F4F84
:1004A80081F06051704732F07F4208BF704793F087
:1004B8007F4F04BF41F40021704730B54FF460749A
:1004C80001F0004521F000411CE700BF50EA01029D
:1004D80008BF704730B54FF000050AE050EA010246
:1004E80008BF704730B511F0004502D5404261EBB6
:1004F80041014FF4806404F132045FEA915C3FF4F7
:10050800D8AE4FF003025FEADC0C18BF03325FEA93
:10051800DC0C18BF033202EBDC02C2F1200300FA44
:1005280003FC20FA02F001FA03FE40EA0E0021FA69
:1005380002F11444BDE600BF70B54FF0FF0C4CF457
:10054800E06C1CEA11541DBF1CEA135594EA0C0F09
:1005580095EA0C0F00F0DEF82C4481EA030621EA44
:100568004C5123EA4C5350EA013518BF52EA03357F
:1005780041F4801143F4801338D0A0FB02CE4FF031
:100588000005E1FB02E506F00042E0FB03E54FF061
:100598000006E1FB03569CF0000F18BF4EF0010E59
:1005A800A4F1FF04B6F5007F64F5407404D25FEA55
:1005B8004E0E6D4146EB060642EAC62141EA555108
:1005C8004FEAC52040EA5E504FEACE2EB4F1FD0C4A
:1005D80088BFBCF5E06F1ED8BEF1004F08BF5FEAC8
:1005E800500E50F1000041EB045170BD06F000467A
:1005F80046EA010140EA020081EA0301B4EB5C0427
:10060800C2BFD4EB0C0541EA045170BD41F480111E
:100618004FF0000E013C00F3AB8014F1360FDEBF43
:10062800002001F0004170BDC4F10004203C35DA1F
:100638000C341BDC04F11404C4F1200500FA05F3A2
:1006480020FA04F001FA05F240EA020001F0004243
:1006580021F0004110EBD37021FA04F642EB0601B9
:100668005EEA430E08BF20EAD37070BDC4F10C04E3
:10067800C4F1200500FA04F320FA05F001FA04F2A7
:1006880040EA020001F0004110EBD37041F1000193
:100698005EEA430E08BF20EAD37070BDC4F120059E
:1006A80000FA05F24EEA020E20FA04F301FA05F206
:1006B80043EA020321FA04F001F0004121FA04F2AE
:1006C80020EA020000EBD3705EEA430E08BF20EA7E
:1006D800D37070BD94F0000F0FD101F000464000B8
:1006E80041EB010111F4801F08BF013CF7D041EA3A
:1006F800060195F0000F18BF704703F0004652003E
:1007080043EB030313F4801F08BF013DF7D043EA0E
:100718000603704794EA0C0F0CEA135518BF95EAC4
:100728000C0F0CD050EA410618BF52EA4306D1D14B
:1007380081EA030101F000414FF0000070BD50EA6A
:10074800410606BF1046194652EA430619D094EAF4
:100758000C0F02D150EA013613D195EA0C0F05D1DE
:1007680052EA03361CBF104619460AD181EA030132
:1007780001F0004141F0FE4141F470014FF00000EA
:1007880070BD41F0FE4141F4780170BD70B54FF085
:10079800FF0C4CF4E06C1CEA11541DBF1CEA135505
:1007A80094EA0C0F95EA0C0F00F0A7F8A4EB0504E7
:1007B80081EA030E52EA03354FEA013100F08880DE
:1007C8004FEA03334FF0805545EA131343EA1263A7
:1007D8004FEA022245EA111545EA10654FEA00265C
:1007E8000EF000419D4208BF964244F1FD0404F515
:1007F800407402D25B084FEA3202B61A65EB030571
:100808005B084FEA32024FF480104FF4002CB6EB2D
:10081800020E75EB030E22BFB61A754640EA0C00AD
:100828005B084FEA3202B6EB020E75EB030E22BFED
:10083800B61A754640EA5C005B084FEA3202B6EB2E
:10084800020E75EB030E22BFB61A754640EA9C00ED
:100858005B084FEA3202B6EB020E75EB030E22BFBD
:10086800B61A754640EADC0055EA060E18D04FEA7B
:10087800051545EA16754FEA06164FEAC30343EA1B
:1008880052734FEAC2025FEA1C1CC0D111F4801FE8
:100898000BD141EA00014FF000004FF0004CB6E7E1
:1008A80011F4801F04BF01430020B4F1FD0C88BF80
:1008B800BCF5E06F3FF6AFAEB5EB030C04BFB6EB8B
:1008C800020C5FEA500C50F1000041EB045170BD7E
:1008D8000EF0004E4EEA113114EB5C04C2BFD4EBAB
:1008E8000C0541EA045170BD41F480114FF0000E2F
:1008F800013C90E645EA060E8DE60CEA135594EAAB
:100908000C0F08BF95EA0C0F3FF43BAF94EA0C0FAD
:100918000AD150EA01347FF434AF95EA0C0F7FF422
:1009280025AF104619462CE795EA0C0F06D152EA76
:1009380003353FF4FDAE1046194622E750EA41065A
:1009480018BF52EA43067FF4C5AE50EA41047FF46B
:100958000DAF52EA43057FF4EBAE12E74A0011D21D
:1009680012F5001211D20DD56FF47873B3EB625201
:100978000ED44FEAC12343F0004343EA505323FA0D
:1009880002F070474FF00000704750EA013002D182
:100998004FF0FF3070474FF0000070477BB972B9D5
:1009A8000029BEBF00204FF0004106E008BF002824
:1009B8001CBF6FF000414FF0FF3000F0A5B9ADF15A
:1009C800080C6DE904CE002909DB002B1ADB00F0C6
:1009D80035F8DDF804E0DDE9022304B07047404251
:1009E80061EB4101002B1BDB00F028F8DDF804E087
:1009F800DDE9022304B0404261EB4101524263EB5E
:100A080043037047524263EB430300F017F8DDF8E5
:100A180004E0DDE9022304B0404261EB4101704784
:100A2800524263EB430300F009F8DDF804E0DDE926
:100A3800022304B0524263EB430370472DE9F047A9
:100A4800089E04468846002B4BD18A42154667D932
:100A5800B2FA82F24AB1C2F1200701FA02F320FA8F
:100A680007F7954047EA030894404FEA154E230CD0
:100A7800B8FBFEF71FFA85FC0EFB178843EA08430C
:100A880007FB0CF1994209D9EB1807F1FF3080F008
:100A98001B81994240F21881023F2B445B1AA4B291
:100AA800B3FBFEF00EFB103344EA034400FB0CFCDE
:100AB800A44509D92C1900F1FF3380F00781A4451A
:100AC80040F2048102382C4440EA0740A4EB0C04AD
:100AD80000271EB1D4400023C6E900433946BDE8CB
:100AE800F0878B4209D9002E00F0EB800027C6E979
:100AF800000138463946BDE8F087B3FA83F7002F7E
:100B080047D18B4202D3824200F2FA80841A61EB09
:100B1800030301209846002EE0D0C6E90048DDE72F
:100B280002B9FFDEB2FA82F2002A40F08F80491B38
:100B38004FEA154E1FFA85F80127B1FBFEFC230C7E
:100B48000EFB1C1143EA014308FB0CF1994207D93B
:100B5800EB180CF1FF3002D2994200F2CD808446A6
:100B6800591AA3B2B1FBFEF00EFB101443EA044479
:100B780008FB00F8A04507D92C1900F1FF3302D271
:100B8800A04500F2B6801846A4EB080440EA0C40E1
:100B98009FE7C7F1200CBB4022FA0CFE4EEA030E79
:100BA80001FA07F420FA0CF521FA0CF34FEA1E4873
:100BB8002543B3FBF8F92C0C08FB19331FFA8EFAFE
:100BC80044EA034309FB0AF49C4202FA07F200FADA
:100BD80007F10BD91EEB030309F1FF3080F0878082
:100BE8009C4240F28480A9F1020973441B1BADB2F8
:100BF800B3FBF8F008FB103345EA034400FB0AFA9C
:100C0800A24508D91EEB040400F1FF336BD2A245BC
:100C180069D90238744440EA0940A0FB0289A4EB70
:100C28000A044C45C2464B4654D351D0002E69D0D5
:100C3800B1EB0A0564EB030404FA0CFCFD40FC402C
:100C48004CEA0505C6E90054002747E7C2F120032E
:100C580020FA03F7954001FA02F021FA03F34FEA6C
:100C6800154E3843010CB3FBFEF71FFA85F80EFB4F
:100C7800173341EA034107FB08F38B4204FA02F4F5
:100C880007D9691807F1FF3C2FD28B422DD9023FB3
:100C98002944CB1A81B2B3FBFEF00EFB103341EAB4
:100CA800034100FB08F38B4207D9691800F1FF3CA8
:100CB80017D28B4215D902382944C91A40EA074786
:100CC8003BE73746304609E70746E7E61846FBE6BE
:100CD8004145ABD2B8EB020A69EB0E020138134664
:100CE800A4E76046E9E7184695E76746D1E78146F5
:100CF8007CE702382C4447E7ACF1020C2B442FE781
:100D0800384608E73746E9E6704700BFC37853B965
:100D1800037803F01F015B0901228A40203312493E
:100D280041F823207047114BDB68DB43C3F30222F1
:100D3800C2F10401C9B20F23134142788A40D2B2EA
:100D480081780B4013431B01DBB2027806490A4441
:100D580082F80033037803F01F005B090122824008
:100D680041F82320704700BF00E100E000ED00E0FB
:100D780010B4426822F0407222F480720C790B6839
:100D880043EA04231343436083680C4A1A400B69FF
:100D9800CC6823438C6823434C7943EA44031343C8
:100DA8008360C36A23F470030A7D013AD2B243EA2E
:100DB8000253C3625DF8044B704700BFFDF7FFC0E4
:100DC80000230360037143718360C36003610123DF
:100DD8000375704721B9836823F001038360704766
:100DE800836843F001038360704770B409291DD9F3
:100DF800C568A1F10A0404EB44040726A64025EAC5
:100E0800060503FA04F42C43C460062A1AD90C2AEE
:100E180026D9C36A0D3A02EB82021F24944023EAC2
:100E2800040301FA02F21A43C26217E0056901EBF2
:100E380041060724B44025EA040503FA06F42C43C6
:100E48000461E2E7436B013A02EB82021F249440FB
:100E580023EA040301FA02F21A43426370BC7047A2
:100E6800036B073A02EB82021F24944023EA04032F
:100E780001FA02F21A430263F0E7C9B2012303FA46
:100E880001F122B9436823EA0101416070474368D0
:100E98001943416070470368194201D10020704727
:100EA80001207047C9430160704708B501214FF020
:100EB800005000F0ABF900214FF0005000F0A6F907
:100EC80008BD000030B40A4C226840F6FE73834027
:100ED80022EA03020B684D682B438D682B43C968CF
:100EE8000B4303FA00F01043206030BC704700BF8A
:100EF800007400400023036043608360C360704750
:100F080041B908490B68012202FA00F023EA0000FF
:100F18000860704703490B68012202FA00F0184381
:100F2800086070470074004082B000230193054BAD
:100F38000193019B184408300190019B196002B08D
:100F4800704700BF0074004082B000230193054B36
:100F58000193019B184414300190019B196002B061
:100F6800704700BF00740040044B00221A605A60AA
:100F78009A60DA60024A5A61704700BF003C01403B
:100F8800FFFF7F008379002B36D010B4204B1A68FE
:100F9800016822EA01021A605A68016822EA01021D
:100FA8005A60027902F1804202F59E3211680468A3
:100FB800214311609A68016822EA01029A60DA689E
:100FC800016822EA0102DA604379102B0AD003F1A2
:100FD800804303F59E331A6801680A431A605DF876
:100FE800044B70470A4B9A6801680A439A60DA68AA
:100FF80001680A43DA60F2E7037903F1804303F5F5
:101008009E331A68016822EA01021A60704700BF1D
:10101800003C0140014B5861704700BF003C014053
:1010280000230F2B40D8F0B410E0C2689CB26600D1
:101038000324B44022EA0402C260C268CC7904FAEC
:1010480005F51543C56001330F2B2BD801229A40B3
:101058000C68A243F7D104685D000322AA40D2437A
:101068001440046004680E79AE40344304600C797F
:10107800013CE4B2012CD8D884682240826082689E
:101088004C79AC402243826044689FB20126BE403E
:1010980024EA0604446044688A79BA4092B222433A
:1010A8004260C2E7F0BC704770474FF6FF730360B9
:1010B8000023037143718371C37170470369194237
:1010C80001D1002070470120704701837047418398
:1010D800704730B401F007039B009A40C9080831F3
:1010E80050F821400F2505FA03F324EA030340F8DA
:1010F800213050F821301A4340F8212030BC704785
:1011080010B4294B9B6803F00C03042B23D0082B45
:1011180024D013B1254B036001E0244B0360224C1B
:10112800A368C3F303132249CB5CDAB20368D34044
:101138004360A268C2F382228A5CD2B223FA02F226
:101148008260A268C2F342328A5CD2B2D340C360E2
:101158005DF8044B7047174B0360E0E7124B5A6881
:101168005B6803F03F0312F4800F12D0114AB2FB00
:10117800F3F20D4B5B68C3F3881303FB02F30A4ACF
:101188005268C2F3014201325200B3FBF2F303602A
:10119800C5E7064AB2FBF3F2034B5B68C3F3881357
:1011A80003FB02F3EBE700BF003802400024F40021
:1011B8000000002040787D0129B9054A136B23EA15
:1011C800000010637047024A136B1843106370479E
:1011D8000038024029B9054A136C23EA000010645C
:1011E8007047024A136C1843106470470038024075
:1011F80029B9054A536C23EA000050647047024A33
:10120800536C1843506470470038024029B9054AA6
:10121800136A23EA000010627047024A136A1843EF
:10122800106270470038024029B9054A536A23EA18
:10123800000050627047024A536A18435062704770
:101248000038024008B52A4B98420FD0294B9842E3
:1012580017D0294B98421FD0284B984227D0284BAB
:1012680098422FD0274B984237D008BD01214FF420
:101278008050FFF7D9FF00214FF48050FFF7D4FFCB
:10128800F3E701214FF48040FFF7C0FF00214FF43E
:101298008040FFF7BBFFE8E701214FF40040FFF76C
:1012A800B5FF00214FF40040FFF7B0FFDDE7012153
:1012B8004FF40050FFF7B8FF00214FF40050FFF73C
:1012C800B3FFD2E701214FF48010FFF7ADFF0021F3
:1012D8004FF48010FFF7A8FFC7E701214FF4001073
:1012E800FFF7A2FF00214FF40010FFF79DFFBCE7B6
:1012F8000030014000380040003C0040003401400C
:1013080000500140005401402DE9F041038803F4E6
:101318004152B1F800E0B1F80280B1F804C0CF88BA
:101328000E894D898C89CB894EEA080E4CEA0E0C41
:1013380047EA0C073E4335432C43234313430380BA
:10134800838B9BB223F400639BB283830B8A038253
:10135800BDE8F0810023038043808380C38003813C
:1013680043818381C38107230382704731B903888E
:101378009BB223F040039BB203807047038843F07D
:101388004003038070474FF6FF63994204D00388F7
:1013980043F480730380704703889BB223F48073FF
:1013A8009BB20380704780897047818170470389A9
:1013B800194201D1002070470120704730B401F074
:1013C80003039B000F2404FA03F58908074A023136
:1013D80052F8214024EA050442F8214052F82140FD
:1013E8009840204342F8210030BC70470038014043
:1013F80003889BB21B4A904212D002F58062904249
:101408000ED0B0F1804F0BD0A2F58032904207D0B9
:1014180002F58062904203D002F58062904203D1C7
:1014280023F070034A8813430F4A904208D002F50C
:101438008062904204D023F440739BB20A8913431C
:1014480003804B68C3620B880385064B984203D020
:1014580003F58063984201D18B7A03860123838246
:10146800704700BF00000140001000404FF0FF33FC
:101478004360002303800381438083727047416285
:10148800704731B903889BB223F080039BB2038075
:101498007047038843F080030380704731B903889D
:1014A8009BB223F001039BB203807047038843F08B
:1014B8000103038070478163704710B401238B4098
:1014C8009BB2048C24EA03030384038C02FA01F11F
:1014D80089B2194301845DF8044B704722B98389A6
:1014E80023EA01018181704783891943818170470B
:1014F800028A83890B40114202D01BB90020704731
:101508000020704701207047C94389B201827047A3
:1015180083889BB223F070039BB28380838819432E
:101528008180704710B5044602210948FFF73FFF44
:101538000028F9D021460648FFF737FF0121044863
:10154800FFF735FF0028F9D00148FFF72CFF10BD41
:10155800003C004008B502210948FFF728FF002891
:10156800F9D000210648FFF720FF01210448FFF7C2
:101578001EFF0028F9D00248FFF715FF08BD00BF7D
:10158800003C00402DE9F04389B001210420FFF719
:1015980013FE06A8FFF789FD4FF4E05306930227D0
:1015A8008DF81C7000258DF81E5001248DF81F4001
:1015B8008DF81D70324E06A93046FFF731FD2146E1
:1015C8000820FFF7F9FD06A8FFF76FFD4FF00409A3
:1015D800CDF818908DF81C408DF81E508DF81F40DE
:1015E80003238DF81D30DFF89C8006A94046FFF7DD
:1015F80017FD06220A213046FFF76BFD06220B2154
:101608003046FFF766FD06220C213046FFF761FDE4
:1016180049464046FFF759FD21464FF40040FFF781
:10162800D9FDA6F5E6363046FFF70CFE0DEB0900AE
:10163800FFF790FEADF804501023ADF810304FF4CA
:101648008273ADF80630ADF80850ADF80A70ADF801
:101658000C40ADF812504FF40073ADF80E300DEB9E
:1016680009013046FFF750FE21463046FFF77EFE5F
:101678004FF480713046FFF786FE09B0BDE8F0836D
:1016880000080240000C024038B50B4C04212046EB
:10169800FFF71DFD0520FFF745FF022004F0CCFCF5
:1016A800FFF758FFC5B2C82004F0C6FC0421204645
:1016B800FFF70BFD284638BD000C024010B5084C5A
:1016C80004212046FFF703FD0620FFF72BFFC82063
:1016D80004F0B2FC04212046FFF7F7FC10BD00BF60
:1016E800000C02402DE9F04107460E461546FFF76B
:1016F800E5FF04212C48FFF7EAFC0220FFF712FF60
:10170800380AFFF70FFF5FFA87F84046FFF70AFF2E
:10171800002422E0012003F0C9FEFFF7B5FF10F016
:10172800010FF7D1012003F0C1FEFFF7C7FF042125
:101738001D48FFF7CCFC0220FFF7F4FEE019C0F3C8
:101748000720FFF7EFFE58FA84F0C0B2FFF7EAFE71
:10175800305DFFF7E7FE0134A4B2AC420FD214F0BB
:101768007F0FF5D1002CF3D0C82004F065FC0421CC
:101778000D48FFF7AAFC012003F098FECDE7C8202A
:1017880004F05AFC04210848FFF79FFC012003F0ED
:101798008DFEFFF779FF10F0010F03D0012003F051
:1017A80085FEF6E7BDE8F081000C024070B50446FE
:1017B8000E46154604210E48FFF789FC0320FFF763
:1017C800B1FE200AFFF7AEFEE0B2FFF7ABFE002441
:1017D80004E0FFF7BFFE30550134A4B2AC42F8D3A1
:1017E800C82004F029FC04210148FFF76EFC70BDF5
:1017F800000C024070B584B001210420FFF7DCFC26
:101808000026ADF80E600E23029301258DF80C50CA
:1018180003238DF80D300C4C02A92046FFF700FC7D
:101828000196009569462046FFF7FAFB08212046F5
:10183800FFF74BFC04212046FFF749FC0221204614
:10184800FFF745FC04B070BD0008024010B50A4C13
:1018580004212046FFF73BFC02212046FFF737FC16
:1018680008212046FFF733FC012004F069F908211C
:101878002046FFF72AFC10BD0008024070B5012180
:101888001848FFF71BFC012806D00025022115483F
:10189800FFF71BFC00240AE00125F7E702211148A5
:1018A800FFF713FC012004F04BF90134E4B2062CD5
:1018B80012D80C4E02213046FFF709FC012004F033
:1018C8003FF96D00EDB201213046FFF7F7FB012823
:1018D800E4D145F00105E1E702210248FFF7F7FBF3
:1018E800284670BD0008024070B5FFF7C7FF0546DF
:1018F800FFF7C4FF0646FFF7C1FF0446FFF7BEFF28
:10190800240444EA006040EA0620284370BD38B544
:10191800FFF7B4FF0546FFF7B1FF0446FFF7AEFF38
:10192800240244EA0040284338BD000070B50C4C3E
:1019380004212046FFF7CBFB0A2004F001F9FFF74A
:1019480085FFFFF7D1FF0546FFF7E1FF06460421B3
:101958002046FFF7BAFB002343EA0500314670BD75
:101968000008024010B5044602210948FFF71FFD90
:101978000028F9D021460648FFF717FD0121044841
:10198800FFF715FD0028F9D00148FFF70CFD10BD41
:101998000038004070B506460D46094C4FF480519A
:1019A8002046FFF794FB3046FFF7DCFF2846FFF799
:1019B800D9FF4FF480512046FFF787FB70BD00BF69
:1019C80000040240F0B589B001210220FFF7F4FBC2
:1019D8002F4D05220D212846FFF77BFB05220F21FD
:1019E8002846FFF776FB4FF42043069302278DF82D
:1019F8001C7000248DF81E408DF81F408DF81D7056
:101A080006A92846FFF70CFB4FF4805306930126DE
:101A18008DF81C608DF81E408DF81F608DF81D70C4
:101A280006A92846FFF7FCFA31464FF48040FFF735
:101A3800D1FBA5F5E6352846FFF704FC01A8FFF71A
:101A480089FC4FF48043ADF80430ADF810404FF4F2
:101A58008273ADF806300823ADF80830ADF80A40B7
:101A6800ADF80C40ADF812404FF40073ADF80E30ED
:101A780001A92846FFF748FC31462846FFF776FCBF
:101A88004FF480712846FFF77EFC09B0F0BD00BF17
:101A98000004024008B5B1F5806F01D340F2FF3170
:101AA800032825D8DFE800F0020C141CC1F38310CA
:101AB80040F03000C9B28900C9B2FFF76BFF08BD1A
:101AC800C1F3831040F07000C9B28900C9B2F4E7CD
:101AD800C1F3831040F0B000C9B28900C9B2ECE785
:101AE800C1F3871040F0F000C9B28900C9B2E4E739
:101AF80000210846E1E7000000B583B00121042079
:101B0800FFF75AFB0023ADF806304FF4604300930B
:101B180002238DF8053001238DF804308DF8073045
:101B280069460348FFF77CFA03B05DF804FB00BF81
:101B38000008024000230CE00D4A4FF48041118355
:101B48000B4A4FF40051518311834000C0B2013356
:101B5800DBB2072B07D810F0800FEDD1044A4FF401
:101B680080415183ECE7024B4FF480425A8370471F
:101B78000008024010B50446C8B2FFF7DBFF200E8C
:101B8800FFF7D8FFE0B2FFF7D5FFC4F30720FFF750
:101B9800D1FFC4F30740FFF7CDFF034B4FF40042DA
:101BA8005A831A8310BD00BF0008024008B5044BD1
:101BB80003EBC000D0E90001FFF7DCFF08BD00BF60
:101BC8001000002000B583B001210846FFF7F4FAA1
:101BD8004FF40943009300238DF8043001228DF857
:101BE80007208DF8053069460248FFF719FA03B057
:101BF8005DF804FB0000024038B50F4D4FF400615A
:101C08002846FFF75BFAC0434FF0000460F3000476
:101C180044F004044FF400412846FFF74FFAC0434C
:101C280060F341044FF480712846FFF747FAC04338
:101C380060F3C304204638BD0000024000B583B0FD
:101C480001210220FFF7B8FA4FF4804300930023E4
:101C58008DF8043002228DF807208DF8053069468A
:101C68000248FFF7DDF903B05DF804FB0004024009
:101C780008B5FFF7C1FF10F0080F01D1002008BD1B
:101C88000120FCE700B583B001210420FFF794FA96
:101C98000023ADF806307023009302238DF8053039
:101CA80001238DF804308DF8073069460248FFF7A4
:101CB800B7F903B05DF804FB0008024070B50546AB
:101CC800002410E020210F48FFF7FFF90D4E1021E6
:101CD8003046FFF7FCF910213046FFF7F6F96D00A2
:101CE800EDB20134E4B2072C07D815F0800FE9D122
:101CF80020210448FFF7EBF9E8E720210148FFF726
:101D0800E6F970BD0008024010B504460078FFF7F8
:101D1800D5FF6078FFF7D2FFA078FFF7CFFFE07814
:101D2800FFF7CCFF044C40212046FFF7D0F94021B3
:101D38002046FFF7CAF910BD0008024000B583B07D
:101D480001210420FFF738FA0023ADF806304FF4DC
:101D58006073009303238DF8053001238DF8043058
:101D68008DF8073069460348FFF75AF903B05DF864
:101D780004FB00BF0008024070B50546002411E0CE
:101D88004FF480711048FFF7A0F90F4E80213046BC
:101D9800FFF79DF980213046FFF797F96D00EDB206
:101DA8000134E4B2072C08D815F0800FE8D14FF4BD
:101DB80080710548FFF78BF9E7E74FF48071024817
:101DC800FFF785F970BD00BF0008024010B5044652
:101DD800C0F30720FFF7D0FFE0B2FFF7CDFF064CB6
:101DE8004FF400712046FFF772F94FF40071204656
:101DF800FFF76BF910BD00BF0008024038B500239B
:101E08006FF0010404E0640044F001040133DBB224
:101E18008342F8D3FFF72CFFD0B1250EC4F3074057
:101E2800FFF7AAFF2846FFF7A7FFC4F30720FFF72D
:101E3800A3FFE0B2FFF7A0FF074C4FF40071204664
:101E4800FFF745F94FF400712046FFF73EF938BD1A
:101E5800A0B2FFF7BBFFFAE7000802402DE9F04106
:101E68008CB001210846FFF7B5F901A8FFF7FEFA83
:101E78000024ADF80440ADF8064041F26703029330
:101E8800ADF80C4001A94FF08040FFF7B1FA50219E
:101E98004FF08040FFF73CFB012204214FF08040C7
:101EA800FFF70BFB01214FF08040FFF704FB4FF0D9
:101EB8008040038B43F4E04303830121FFF7EEFAEC
:101EC800DFF8EC80102388F8123301210846FFF769
:101ED80073F90B9403230A938DF82C300AA9304820
:101EE800FFF79EF801214FF48070FFF781F9012177
:101EF8004FF40070FFF77CF904A8FEF761FF8DF836
:101F0800154008944FF0C06307934FF08053069331
:101F180001258DF8245004948DF81440214F04A90C
:101F28003846FEF725FF204E04A93046FEF720FF6D
:101F380007232A4621463846FEF757FF07232A4635
:101F480029463046FEF751FF12238DF800308DF8F0
:101F580001508DF802408DF803506846FEF7D6FE12
:101F6800124B1C702046FFF721FE4FF48023C8F85F
:101F780000302A4640F205213846FEF77EFF2A4601
:101F880040F205213046FEF778FF29463846FEF72D
:101F980021FF29463046FEF71DFF0CB0BDE8F08151
:101FA8000000024000200140002101409C02002066
:101FB80000E100E0024B4FF48022C3F88020704714
:101FC80000E100E030B587B001214FF48040FFF711
:101FD8000FF900248DF8144040F2E31504958DF8AC
:101FE800174003238DF8153004A93148FFF718F876
:101FF80021460120FFF7E2F901210846FFF7DEF943
:1020080005210120FFF7DAF906210120FFF7D6F9AB
:1020180007210120FFF7D2F908210120FFF7CEF9A7
:10202800FEF7A2FF02958DF80C4010238DF80D30B5
:1020380001258DF80E5002A8FEF7A4FF06238DF89F
:1020480004308DF805408DF806408DF8075001A83A
:10205800FEF75CFE07238DF804308DF805408DF8F7
:1020680006408DF8075001A8FEF750FE17238DF89B
:1020780004308DF805408DF806408DF8075001A80A
:10208800FEF744FE2846FEF7C5FF0220FEF7C2FF12
:102098002020FEF7BFFF4020FEF7BCFF8020FEF7A0
:1020A800B9FF4FF48070FEF7B5FF07B030BD00BF31
:1020B8000004024008B5134B1B6913F0010F1DD132
:1020C800114B1B78DBB2012B18D00F4B1B78DBB2FE
:1020D800042B13D00C4B1B78DBB2052B0ED00B4B0B
:1020E80000221A70084B02221A70094B1A7842F023
:1020F80001021A701A7842F002021A700120FEF7E3
:1021080089FF08BD00040240C1020020BD02002072
:10211800F002002008B501210220FFF75BF8094B07
:1021280042F604121A850122DA62002159629A8164
:102138001A8842F001021A80034B4FF000521A60CD
:1021480008BD00BF0004004000E100E008B501211F
:102158002020FFF73FF8094B42F604121A850122A6
:10216800DA62002159629A811A8842F001021A80C3
:10217800034B4FF400025A6008BD00BF0014004032
:1021880000E100E008B501211020FFF723F80A4814
:1021980045F208230385C823C36200234362012153
:1021A800818103880B430380044B4FF480025A60FB
:1021B8000A46FFF793F908BD0010004000E100E06F
:1021C80008B5134B1B6913F0020F1DD1114B1B7877
:1021D800DBB2012B18D00F4B1B78DBB2042B13D0CA
:1021E8000C4B1B78DBB2052B0ED00B4B00221A7060
:1021F800084B02221A70094B1A7842F001021A7031
:102208001A7842F002021A700220FEF703FF08BD96
:1022180000040240C2020020BE020020F00200209A
:1022280070B50446FFF7C6FEFFF722FDB0B12034B3
:102238006402A4B2174D4FF4807229462046FFF776
:1022480051FA04F580704FF48072A91800F47F40A9
:10225800FFF748FAFFF702FE002070BD0E4E3078F7
:10226800A4B20C4D00FB04F040024FF480722946E2
:1022780000F47E40FFF736FA307800FB04F04002A5
:1022880000F580704FF48072A91800F47F40FFF7C2
:1022980029FADFE7A40800207002002070B5044680
:1022A800FFF788FEFFF7E4FC38BB394E3078A4B25C
:1022B800384D00FB04F040024FF48072294600F4C8
:1022C8007E40FFF773FA307800FB04F0400200F517
:1022D80080704FF48072A91800F47F40FFF766FA07
:1022E8002D4B1B7813F0040F4FD102232B4A137088
:1022F8002B4A1370FFF7B2FD70BD20346402A4B2FC
:10230800244D4FF4807229462046FFF74FFA04F512
:1023180080704FF48072A91800F47F40FFF746FAE6
:10232800DEE71C4B03EBC201486840F400504860EC
:10233800486840F48040486002F1200103EBC10185
:10234800486840F400504860486840F4804048605D
:1023580002F1100103EBC101486840F400504860E5
:10236800486840F48040486002F1300103EBC10343
:10237800596841F400515960596841F480415960E5
:102388000132D2B20F2ACCD9AFE70022FAE700BF58
:1023980070020020A4080020E8020020C1020020EA
:1023A800C202002082B001EB4012564B03EBC2037D
:1023B8005B6813F4806F4DD01346524A52F83320AD
:1023C800C2F30B32504B83FB02C31344C3F34723BE
:1023D800032B00D903234D4A52F8232007EE902AF5
:1023E8004B4A52F8233007EE103AB8EE477A9FED81
:1023F800496AC6EE076AF8EE677A67EEA67AFCEED7
:10240800E77A01EB40133F4A02EBC3035B6813F022
:10241800400F2AD10023019301EB4013394A02EB04
:10242800C3035B6813F0800F32D101EB4013354AC8
:1024380002EBC3035B6813F4807F3CD101EB4011CE
:10244800304800EBC1014B6813F4007F46D1019876
:1024580002B0704701EB40132A4A52F83330C3F3F5
:102468000B33013307EE903ACBE7F8EE676A9FED3E
:102478002A7A66EE876A9FED276A86EE867AF2EEFA
:10248800006A37EE267ABCEEC77A8DED017AC3E78B
:10249800F8EE676A9FED217A66EE876A9FED1D6AFE
:1024A80086EE867ADFED1E6A37EE267ABCEEC77AAC
:1024B8008DED017AB9E7F8EE676A9FED1A7A66EE54
:1024C800876A9FED146A86EE867ADFED176A37EE23
:1024D800267ABCEEC77A8DED017AAFE7F8EE677A17
:1024E8009FED127A67EE877ADFED0A6A87EEA67AA1
:1024F800DFED0F7A77EE277AFCEEE77ACDED017AF9
:10250800A5E700BFA408002003082080F8070020E2
:102518005002002000F07F450000E04200008C449B
:102528000000A04200002F460000484400C0DA47DF
:102538000000FA4530B401EB4012A04B53F832309A
:1025480013F0006F51D013469C4A52F83320C2F35F
:102558000B029B4B83FB02431344C3F34723032B18
:1025680000D90323974A52F8232007EE902A964A67
:1025780052F8233007EE103AB8EE477A9FED936A87
:10258800C6EE076AF8EE677A67EEA67AFCEEE77A97
:1025980017EE903AB3F5805F01D3DFED8D7A01EB4A
:1025A8004013864A52F8333013F0806F27D001EB7E
:1025B800401352F8333013F0807F00F0FC80854BD5
:1025C80093ED007AF2EE086A67EE266AB8EE676A5B
:1025D80086EE267ABCEEC77AB8EE477A27EE267AD8
:1025E800BCEEC77A17EE103A0AE001EB4013734AC3
:1025F80052F83330C3F30B0307EE903AC8E70023D1
:1026080001EB40126D4C54F8322012F0805F1FD05D
:10261800B8EE677A6F4B93ED006AC7EE066ABCEEB8
:10262800E67A17EE103A01EB401254F8322012F015
:10263800807F0DD0684D2A68684CA4FB02C2D2087E
:10264800B3FBF2F32A68A4FB0242D20803FB02F3AD
:1026580001EB4012594C54F8322012F0005F22D09E
:10266800F8EE676A5B4B93ED006A86EE867ABCEEFD
:10267800C77A17EE103A01EB401254F8322012F0E4
:10268800807F0DD0544A1468544DA5FB04C4E40857
:10269800B3FBF4F31268A5FB0242D20803FB02F372
:1026A8004D4A1268134401EB4012444C54F832204E
:1026B80012F0804F23D0F8EE676A464B93ED006A1C
:1026C80086EE867ABCEEC77A17EE103A01EB401216
:1026D80054F8322012F0807F0DD03F4A14683F4DE5
:1026E800A5FB04C4E408B3FBF4F31268A5FB02429B
:1026F800D20803FB02F3384A126803EB420301EBEA
:1027080040122E4C54F83220002A24DAF8EE676A78
:10271800304B93ED006A86EE867ABCEEC77A17EEE8
:10272800103A01EB401254F8322012F0807F0DD09D
:10273800294A1468294DA5FB04C4E408B3FBF4F343
:102748001268A5FB0242D20803FB02F3224A126870
:1027580002EB4202134401EB4012184C04EBC20294
:10276800526812F0010F23D0F8EE677A194BD3EDB7
:10277800006A87EEA67AFCEEC77A17EE903A01EB6C
:10278800401154F8312012F0807F0DD012480268B1
:102798001249A1FB0242D208B3FBF2F30068A1FB85
:1027A8000020C00803FB00F30B4A106803EB80030A
:1027B800184630BC704717EE903A21E7A40800206D
:1027C80003082080F80700205002002000F07F4511
:1027D800FF0F000098080020A0080020ABAAAAAAB2
:1027E800F8B505460C46FFF743FA18B90F2C42D83E
:1027F8000F2100E01F212E46274604EB4515204BEC
:1028080003EBC5056868C0F3401078BB02469ABB65
:10281800A14232D90134E0B22EE0DA1B8A1A02EB67
:102828004612174D05EBC202526812F0100F15D16F
:102838008B4219D00133DBB28B4219D8A342ECD8B2
:10284800FA1A02EB46150E4A02EBC502526812F05C
:10285800100FEDD0E31A0246D8B2D8E7E31A51FABE
:1028680083F30246D8B2D2E70020E3E70023E3E788
:1028780002460020CBE70020F8BD1046FCE700BF69
:10288800A408002030B583B0A64B5B6913F4807FA1
:1028980040F0A880A34B5B6913F0400F22D0A24BF5
:1028A8001B78DBB2052B0ED09F4B1B78DBB2042BB9
:1028B80009D09D4B1B78DBB2012B04D09A4B1B78B7
:1028C800002B40F04D81984B1B78DBB2042B00F0B5
:1028D8007A81954B1B78DBB2052B00F0A98140204B
:1028E800FEF798FB8F4B5B6913F0200F36D08F4BA8
:1028F8001B78013BDBB28E4A13708E4B1B7843B9B1
:102908008D4B1A7842F001021A701A7842F00202CE
:102918001A704FF400718948FEF7D9FB844B1A7876
:10292800874B03EBC2035B6813F4006F40F08381AD
:102938007F4B1A78824B03EBC2035B6813F4805F0A
:1029480040F07F817F4C01212046FEF7A7FD002142
:102958002046FEF794FD2020FEF75CFB714B5B6977
:1029680013F0800F33D0714B5B78013BDBB2764AB2
:102978001370704B1B78DBB2012B00F068810421C7
:102988007248FEF7A4FB704B1B7803F120026C4BD6
:1029980003EBC2035B6813F4006F40F062816A4B7B
:1029A8001B7803F12002664B03EBC2035B6813F448
:1029B800805F40F05B81664C01212046FEF76EFD8A
:1029C80000212046FEF75BFD8020FEF723FB5A4BD3
:1029D8001A7842F001021A701A7842F002021A704C
:1029E80003B030BD5B4C2378DBB25B4803705049C1
:1029F8000A78237800780D78514901EBC5014968B8
:102A0800C1F3C0210191009040F25121534803F0D5
:102A1800ECFC2378DBB2052B09D02378DBB2042B3E
:102A280005D02378DBB2012B01D0237873B9494B49
:102A38001B78DBB2042B3CD0464B1B78DBB2052B52
:102A48006DD04FF48070FEF7E5FA23E70020207080
:102A5800374C2178FFF7C4FE20704FF400713748D7
:102A6800FEF735FB2278364B03EBC2035B6813F4A1
:102A7800006F12D12E4B1A78314B03EBC2035B68FF
:102A880013F4805F0FD12F4C01212046FEF706FD7D
:102A980000212046FEF7F3FCC9E74FF40061274800
:102AA800FEF715FBE6E74FF480612448FEF70FFBBD
:102AB800E9E7FFF72FFB0020264B18701C4C217804
:102AC800FFF78EFE20704FF400711C48FEF7FFFAE6
:102AD80022781B4B03EBC2035B6813F4006F12D11F
:102AE800134B1A78164B03EBC2035B6813F4805F31
:102AF8000FD1144C01212046FEF7D0FC00212046BE
:102B0800FEF7BDFC98E74FF400610C48FEF7DFFACA
:102B1800E6E74FF480610948FEF7D9FAE9E7FFF7DD
:102B2800F9FA8EE7003C0140C2020020740200203E
:102B3800BF020020B0020020F00200200004024082
:102B4800A408002000200040C0020020000002402D
:102B580000040140C1020020BD0200209864000862
:102B6800454B00221A70454C21780120FFF738FEAA
:102B7800207004214248FEF7AAFA2278414B03EB61
:102B8800C2035B6813F4006F12D13C4B1A783D4BBB
:102B980003EBC2035B6813F4805F0ED13A4C01214A
:102BA8002046FEF77BFC00212046FEF768FC8AE6FB
:102BB80008213348FEF78BFAE7E74FF48051304895
:102BC800FEF785FAEAE7FFF7C1FA2B4B00221A70E5
:102BD8002A4C21780120FFF703FE207004212848A1
:102BE800FEF775FA2278274B03EBC2035B6813F4F0
:102BF800006F12D1214B1A78224B03EBC2035B689A
:102C080013F4805F0ED1204C01212046FEF746FCCC
:102C180000212046FEF733FC5BE608211848FEF742
:102C280056FAE7E74FF480511548FEF750FAEAE7FD
:102C3800FFF770FA53E64FF400611448FEF747FABD
:102C480076E64FF480611148FEF741FA7AE6104BB8
:102C58001A7842F001021A701A7842F002021A70C9
:102C68008DE608210648FEF732FA98E64FF48051BF
:102C78000348FEF72CFA9EE6C2020020C00200209C
:102C880000000240A40800200004014000040240A3
:102C9800F002002000000000F8B5774E4FF6FE73F2
:102CA8003382764D29780020FFF77CFB0446744B6D
:102CB80093ED047AB8EE477AF0EE0C7A27EE277A8D
:102CC800704BD3ED046AF8EE666AC7EE267AB6EE64
:102CD800007A77EE877A9FED6C7A67EE877AFCEE5A
:102CE800E77A17EE903A9BB233852B78DBB2674AC6
:102CF80052F8333013F0007F5CD029780020FFF7BA
:102D080019FC0546624B1B7823B1614B1B78DBB27B
:102D1800062B45D15F4B1B68AB4222D85D4B1B6825
:102D2800AB4250D25B4B1A68AD1A07EE905AF8EED8
:102D3800677A07EE104AF8EE476A87EEA67A564A8F
:102D4800D2ED007AF8EE677A67EE877AFCEEE77ADA
:102D580017EE901A1B68194489B20020FEF7E4F8B0
:102D680031E04C4A13685B1B07EE903AB8EE677A7D
:102D780007EE904AF8EE677AC7EE276A1168464B65
:102D8800D3ED007AF8EE677A67EEA67AFCEEE77A7A
:102D980017EE903AC91A89B20020FEF7C5F8BDE7C8
:102DA800364B19780020FFF7C5FB81B20020FEF7EB
:102DB800BBF808E0314B19780020FFF7BBFB81B264
:102DC8000020FEF7B1F82D4B1B78DBB22F4A52F8E2
:102DD8003310C1F389310020FEF75CFE2046FDF771
:102DE80031FB02460B4622A1D1E90001FDF7CEFCDA
:102DF80006460F46284B1868FDF724FB02460B468B
:102E080030463946FDF798FBFDF7A8FDC0F57F7100
:102E180003310120FEF73EFE1D4B1B7823B11C4BEE
:102E28001B78DBB2062B03D11B4A136801331360EE
:102E3800194B1B68A34235D2154B1B78DBB2012B0B
:102E480000F04381124B1B78DBB2032B00F0928118
:102E5800124B1B7843B9124B1A7842F001021A70D0
:102E68001A7842F002021A70F8BD00BFAFF3008072
:102E78000000000000F88F4000080040BF0200205A
:102E8800F80700205002002000102446A408002063
:102E9800C1020020A0020020C4020020B0020020CD
:102EA800F0020020AA4B19780020FFF743FBA94B3A
:102EB8001860A94B1B78DBB2062B74D0A44B1A7888
:102EC800A64B03EBC2035B6813F0020F06D0A24ABD
:102ED8001378DBB2A2490B70022313709C4B1A784B
:102EE8009E4B03EBC2035B6813F0080F5FD1984B4E
:102EF8001A789A4B03EBC2035B6813F0040F6AD18C
:102F0800934B1A78954B03EBC2035B6813F0020FDF
:102F18000ED18F4B1A78914B03EBC2035B6813F009
:102F2800080F05D18A4B1A788C4B03EBC2035B68F8
:102F38008C4B00221A60884B1B78002B5AD0864B8A
:102F48001B78DBB2022B00F08780834B1B78DBB247
:102F5800062B7FF471AF7E4C21780020FFF740FCF0
:102F680020704FF400718048FEF7B1F822787B4B4F
:102F780003EBC2035B6813F4006F40F09A80744B54
:102F88001A78764B03EBC2035B6813F4805F40F05A
:102F98009680764C01212046FEF780FA00212046D3
:102FA800FEF76DFA48E76C4B02221A7086E74FF479
:102FB80080716D48FEF782F8002898D1664B1B781F
:102FC800DBB2042B93D0644A1378DBB264490B70EC
:102FD800042313708BE74FF480716348FEF76EF893
:102FE80001288DD15C4A1378DBB25D490B7005234B
:102FF800137085E7564C21781046FFF7F1FB2070D7
:103008004FF400715848FEF762F82278534B03EBEF
:10301800C2035B6813F4006F12D14D4B1A784F4B03
:1030280003EBC2035B6813F4805F0FD14F4C01219F
:103038002046FEF733FA00212046FEF720FA7EE705
:103048004FF400614848FEF742F8E6E74FF4806124
:103058004548FEF73CF8E9E74FF400714248FEF7AF
:1030680036F83B4B1A783D4B03EBC2035B6813F40D
:10307800006F12D1364B1A78384B03EBC2035B68EA
:1030880013F4805F0FD1394C01212046FEF706FA70
:1030980000212046FEF7F3F957E74FF40061324864
:1030A800FEF715F8E6E74FF480612F48FEF70FF8B2
:1030B800E9E74FF400612C48FEF709F85FE74FF4A1
:1030C80080612948FEF703F863E7214B1A78D2B2EA
:1030D800274B1B78013B9A423FF4B4AE244B1B7834
:1030E800013BDBB21A4C237021780020FFF722FA4B
:1030F80081B20020FDF718FF4FF400711A48FDF760
:10310800E6FF2278154B03EBC2035B6813F4006FEC
:1031180012D10F4B1A78114B03EBC2035B6813F4FF
:10312800805F0FD1114C01212046FEF7B7F900212D
:103138002046FEF7A4F985E64FF400610A48FDF73A
:10314800C6FFE6E74FF480610748FDF7C0FFE9E7EF
:10315800BF020020A0020020C1020020A408002015
:10316800BD020020C40200200004024000200040EC
:1031780074020020094B1B78013BDBB2084A13702C
:1031880011780020FFF7D6F981B20020FDF7CCFEB8
:10319800044B1B78DBB2044A137059E67402002012
:1031A800BF020020BD020020C10200200000000074
:1031B8002DE9F843764E4FF6FE733382754D297824
:1031C8000120FFF7EFF80446734B5869FDF73AF909
:1031D8000022724BFDF7B0F980468946704B58695A
:1031E800FDF730F902460B4640464946FDF7CEFA50
:1031F80000226C4BFCF7EAFF61A3D3E90023FDF73B
:103208009BF9FDF7ABFB80B230852B782033664AFB
:1032180052F8333013F0007F5CD029780120FFF793
:1032280089F90546614B1B7823B1604B1B78DBB2EB
:10323800062B45D15E4B1B68AB4222D85C4B1B6802
:10324800AB4250D25A4B1A68AD1A07EE905AF8EEB4
:10325800677A07EE104AF8EE476A87EEA67A554A6B
:10326800D2ED007AF8EE677A67EE877AFCEEE77AB5
:1032780017EE901A1B68194489B20020FDF764FE06
:1032880031E04B4A13685B1B07EE903AB8EE677A59
:1032980007EE904AF8EE677AC7EE276A1168454B41
:1032A800D3ED007AF8EE677A67EEA67AFCEEE77A55
:1032B80017EE903AC91A89B20020FDF745FEBDE71E
:1032C800344B19780120FFF735F981B20020FDF75A
:1032D8003BFE08E02F4B19780120FFF72BF981B24C
:1032E8000020FDF731FE2B4B1B7820332E4A52F875
:1032F8003310C1F389310220FEF7CCFB2046FDF7DD
:10330800A1F802460B4620A1D1E90001FDF73EFADB
:1033180006460F46274B1868FDF794F802460B46F9
:1033280030463946FDF708F9FDF718FBC0F57F71FF
:1033380003310320FEF7AEFB1C4B1B7823B11B4B5C
:103348001B78DBB2062B03D11A4A136801331360CA
:10335800184B1B68A34231D2144B1B78DBB2012BEC
:1033680000F01A81114B1B78DBB2032B00F0598156
:10337800114B1B78DBB2012B00F06781BDE8F883A5
:10338800000000000082C4400000000000F88F40E8
:10339800000C0040C0020020F807002000000C408C
:1033A800500200200000E03FA4080020C2020020D4
:1033B800A4020020C8020020B0020020A84B1978FF
:1033C8000120FFF7B7F8A74B1860A74B1B78DBB2B3
:1033D800062B76D0A24B1B7803F12002A34B03EBFC
:1033E800C2035B6813F0020F06D09F4A1378DBB262
:1033F8009F490B7002231370994B1B7803F120022D
:103408009A4B03EBC2035B6813F0080F5DD1944B32
:103418001B7803F12002954B03EBC2035B6813F0A2
:10342800040F65D18E4B1B7803F120028F4B03EB01
:10343800C2035B6813F0020F12D1894B1B7803F1AA
:1034480020028A4B03EBC2035B6813F0080F07D115
:10345800834B1B7803F12002844B03EBC2035B68A8
:10346800844B00221A60804B1B78002B55D07E4B72
:103478001B78DBB2022B7FF46FAF04217E48FDF787
:1034880026FE774B1B7803F12002784B03EBC2032F
:103498005B6813F4006F74D1714B1B7803F1200241
:1034A800724B03EBC2035B6813F4805F6ED1734CFD
:1034B80001212046FDF7F2FF00212046FDF7DFFF3E
:1034C8004AE7694B02221A7084E740216C48FDF7ED
:1034D800F5FD00289BD1644B1B78DBB2042B96D0FA
:1034E800614A1378DBB262490B70042313708EE7CC
:1034F80040216348FDF7E2FD012893D15A4B1B7820
:10350800DBB2052B8ED0584A1378DBB258490B70C2
:1035180005231370FEF71AFE84E7514C2178012029
:10352800FFF75EF9207004215348FDF7D0FD23789A
:1035380003F120024D4B03EBC2035B6813F4006FE9
:1035480014D1474B1B7803F12002484B03EBC2030D
:103558005B6813F4805F0ED1484C01212046FDF7CB
:103568009DFF00212046FDF78AFF80E70821424899
:10357800FDF7ADFDE5E74FF480513F48FDF7A7FDA6
:10358800EAE708213C48FDF7A2FD85E74FF48051A2
:103598003948FDF79CFD8AE7314B1A78D2B2394B8E
:1035A8005B78013B9A423FF4DDAE364B5B78013BDA
:1035B800DBB22B4C237021780120FEF7BBFF81B2D0
:1035C8000020FDF7C1FC04212B48FDF780FD23787E
:1035D80003F12002254B03EBC2035B6813F4006F71
:1035E80014D11F4B1B7803F12002204B03EBC203BD
:1035F8005B6813F4805F0ED1204C01212046FDF753
:103608004DFF00212046FDF73AFFABE608211A4896
:10361800FDF75DFDE5E74FF480511748FDF757FDCD
:10362800EAE7184B5B78013BDBB20D4A137011785F
:103638000120FEF77FFF81B20020FDF785FC0C4BCF
:103648001B78DBB2084A137092E60F4B1A7842F0E7
:1036580001021A701A7842F002021A708EE600BF50
:10366800C0020020A4020020C2020020A4080020FA
:10367800BE020020C80200200000024000040140F1
:103688000004024074020020F00200202DE9F041FD
:1036980084B001210420FDF79DFD01A8FDF7E6FE99
:1036A80042F60413ADF80430012402940025ADF865
:1036B8000C50ADF806504D4F01A93846FDF798FE5D
:1036C80021463846FDF7DDFE21463846FDF7E6FE81
:1036D80021460820FDF77EFD454E01A93046FDF73D
:1036E80087FE21463046FDF7CCFE21463046FDF7E1
:1036F800D5FE224621463846FDF7F0FE22462146F1
:103708003046FDF7EBFE1E238DF800308DF8015092
:103718008DF802508DF803406846FDF7F7FA32231A
:103728008DF800308DF801508DF802508DF8034067
:103738006846FDF7EBFA2F4E86F81E5386F832538B
:103748002D4B2E4ADA6008232D4A13602D4A136048
:103758002D4A13602D4A136021464FF48070FDF7FF
:1037680039FD01A8FDF782FE4FF0D208ADF80480BC
:103778004FF4A0730293ADF80C50ADF8065007F55E
:10378800C05701A93846FDF733FE29463846FDF7EC
:1037980085FE224621463846FDF7A0FE4FF4005329
:1037A800736021460220FDF723FD01A8FDF75EFEA8
:1037B800ADF804804FF420730293ADF80C50ADF8C7
:1037C800065007F5644701A93846FDF711FE29465A
:1037D8003846FDF763FE224621463846FDF77EFE51
:1037E8004FF48053736004B0BDE8F08100080040D6
:1037F800000C004000E100E000ED00E00007FA05E1
:10380800C4020020C8020020B4020020B802002030
:1038180038B501210E48FDF76BFE00B938BD0C4DD7
:1038280000212846FDF73AFE0A4C04212046FDF700
:103838004CFC08212046FDF748FC4FF480512046F7
:10384800FDF743FC01212846FDF75EFEE6E700BFD1
:10385800000401400000024038B501210F48FDF77F
:1038680047FE00B938BD0D4D00212846FDF716FE6C
:103878000B4C4FF400712046FDF727FC4FF4006114
:103888002046FDF722FC4FF480612046FDF71DFC21
:1038980001212846FDF738FEE4E700BF002000407C
:1038A8000004024070B582B0534B4FF6FE721A8284
:1038B800524B1B78DBB2042B10D0504B1B78DBB279
:1038C800042B13D04D4B1B78DBB2052B25D04B4B6B
:1038D8001B78DBB2052B3CD002B070BD4FF4807171
:1038E8004748FDF7EBFB0028ECD0E6E74FF4807182
:1038F8004348FDF7E3FB0128E4D100203F4B187053
:10390800404C2178FEF76CFF20703B4A13889BB22D
:1039180023F001039BB21380D4E74FF48071384839
:10392800FDF7CCFB0128D2D136490A78334B1B78F6
:10393800354800780C78354901EBC4014968C1F372
:10394800C0210191009040F2CB51314802F04DFD69
:10395800C2E74FF480712A48FDF7B0FB0028BBD1BD
:10396800284C2278254E3378274908782178274D26
:1039780005EBC1014968C1F3C0210191009040F2F3
:10398800D251234802F031FD002030702178FEF733
:1039980027FF2070184A13889BB223F001039BB2BB
:1039A80013804FF400711648FDF791FB237805EB5F
:1039B800C3056B6813F4006F12D1124B1A78134BBE
:1039C80003EBC2035B6813F4805F0FD1114C012134
:1039D8002046FDF763FD00212046FDF750FD7BE7FB
:1039E8004FF400610648FDF772FBE6E74FF480618B
:1039F8000348FDF76CFBE9E700040040C102002022
:103A080000040240BF020020BD020020A4080020DC
:103A1800986400080020004010B5404B4FF6FE7235
:103A28001A823F4B1B78DBB2042B0FD03C4B1B7820
:103A3800DBB2042B11D03A4B1B78DBB2052B22D01A
:103A4800374B1B78DBB2052B24D010BD40213548FD
:103A5800FDF734FB0028EED0E8E740213148FDF7B8
:103A68002DFB0128E7D12E4B00221A702E4C21780D
:103A7800FEF7B6FE2070294A13889BB223F0010393
:103A88009BB21380D7E740212648FDF717FB012892
:103A9800D6D1DAE740212348FDF710FB0028D4D11E
:103AA8001F4B00221A70204C21780120FEF798FE47
:103AB80020701A4A13889BB223F001039BB213802B
:103AC80004211A48FDF703FB237803F12002184B61
:103AD80003EBC2035B6813F4006F14D1124B1B781D
:103AE80003F12002124B03EBC2035B6813F4805FFF
:103AF8000ED1104C01212046FDF7D0FC00212046B4
:103B0800FDF7BDFCA1E708210848FDF7E0FAE5E765
:103B18004FF480510548FDF7DAFAEAE7001400404F
:103B2800C202002000040240C0020020000002403F
:103B3800A408002000040140F0B583B00121022050
:103B4800FDF73AFB0027ADF806704FF46063009369
:103B580001248DF8044003268DF805601A4D694646
:103B68002846FDF75DFA4FF400712846FDF7ADFAD7
:103B78004FF400612846FDF7A8FA4FF48061284603
:103B8800FDF7A3FA21462046FDF716FBADF80670AF
:103B980041F20C0300938DF804408DF805600B4C3E
:103BA80069462046FDF73CFA04212046FDF78DFAC8
:103BB80008212046FDF789FA4FF480512046FDF789
:103BC80084FA03B0F0BD00BF0004024000000240C8
:103BD80000B583B001210846FDF7EEFAC023009333
:103BE80003238DF8053001238DF8043000238DF868
:103BF800063069460248FDF713FA03B05DF804FB86
:103C08000000024010B586B002A8FDF773F9012143
:103C18000846FDF7D1FA3023009303238DF80430CA
:103C280069461448FDF7FCF901214FF00050FDF7F3
:103C3800D1FA00240294022305930394FDF735F981
:103C480002A92046FDF73EF902A91020FDF73AF92E
:103C580001212046FDF754F901211020FDF750F904
:103C680021462046FDF760F921462046FDF76CF90C
:103C780006B010BD00000240F0B583B00446FDF761
:103C8800F7FF002800F0D5821F26C64B1B78002BB3
:103C980040F0D182C44B1B78DBB2C24A1278D2B250
:103CA800012A00F0CA820022BE490978C9B2022955
:103CB80000F0C782BB490978C9B2032900F0C58260
:103CC800B8490978C9B2042900F0C382B54909780E
:103CD800C9B2052900F0C182B2490978C9B20629DA
:103CE80000F0BF82AF490978C9B2072900F0BD8248
:103CF80017461D4603EB4213AC4A02EBC30393E895
:103D0800030002AB03E90300627812F0100F0FD131
:103D18009DF8033043F010039DF804106FF3000181
:103D28008DF8041003F01F036FF382038DF803303E
:103D380012F0200F11D19DF8033003F0EF0343F088
:103D480020039DF804106FF300018DF8041003F0B0
:103D58003F036FF382038DF8033012F0400F11D147
:103D68009DF8033003F0CF0343F040039DF804109F
:103D78006FF300018DF8041003F07F036FF38203E3
:103D88008DF8033012F0800F0FD19DF8033003F047
:103D98008F039DF804106FF300018DF8041063F091
:103DA8007F036FF382038DF80330A37813F0010FBC
:103DB8000DD19DF803109DF8040040F001008DF826
:103DC800040001F00F016FF382018DF8031012F067
:103DD800010F0DD19DF803109DF804006FF300004A
:103DE8008DF8040001F00F0141F004018DF8031073
:103DF800E17811F0100F05D19DF8050040F008009A
:103E08008DF8050011F0200F05D19DF805006FF31E
:103E1800C3008DF8050011F0400F05D19DF805008D
:103E280040F010008DF8050011F0800F05D19DF8C5
:103E380005106FF304118DF80510217811F0100F9B
:103E480005D19DF8030040F001008DF8030011F042
:103E5800200F05D19DF803006FF300008DF80300D3
:103E680011F0400F05D19DF8030040F002008DF8D5
:103E7800030011F0800F05D19DF803106FF3410185
:103E88008DF8031012F0040F05D19DF8031041F0CE
:103E980008018DF8031012F0080F05D19DF80320D2
:103EA8006FF3C3028DF8032013F0020F3DD19DF884
:103EB800042042F0020202F0F7026FF382028DF84A
:103EC8000420384A127822B1364A1278D2B2022A2D
:103ED80005D1374A1278D2B2052A00F0CA81314A90
:103EE8001278D2B2012A00F0C8812E4A1278D2B2D2
:103EF800032A00F0C2812B4A127822B1294A12788B
:103F0800D2B2022A05D12A4A1278D2B2042A00F083
:103F1800CD81244A1278D2B2012A00F0CB81214AFD
:103F28001278D2B2032A00F0C58113F0040F05D12C
:103F38009DF804206FF341028DF8042013F0080F58
:103F480023D19DF8042042F0040202F0FD026FF331
:103F5800C3028DF80420134A127822B1114A12784C
:103F6800D2B2022A05D1124A1278D2B2042A00F03B
:103F7800AB810C4A1278D2B2012A00F0AB81094A0F
:103F88001278D2B2032A00F0A58113F0100F28D1BD
:103F98009DF804206FF382028DF80420014A1278FC
:103FA8006AB107E0B0020020BF020020A408002088
:103FB800C1020020B64A1278D2B2022A05D1B54A07
:103FC8001278D2B2052A00F09181B14A1278D2B2A1
:103FD800012A00F09181AE4A1278D2B2032A00F089
:103FE8008B8113F0200F23D19DF8042042F00802A2
:103FF80002F0FD026FF382028DF80420A44A1278C1
:1040080022B1A34A1278D2B2022A05D1A14A127863
:10401800D2B2052A00F07C819D4A1278D2B2012AD8
:1040280000F07C819A4A1278D2B2032A00F0768195
:1040380013F0400F1FD19DF804206FF3C3028DF8D1
:104048000420934A127822B1914A1278D2B2022AF5
:1040580005D1904A1278D2B2042A00F06B818C4ABA
:104068001278D2B2012A00F06B81894A1278D2B252
:10407800032A00F0658113F0800F07D19DF8043002
:1040880043F010036FF345138DF80430A37913F050
:10409800010F05D19DF804206FF304128DF8042058
:1040A80013F0020F07D19DF8042042F020026FF3AD
:1040B80004128DF8042013F0040F05D19DF8042094
:1040C8006FF345128DF80420227912F0010F05D103
:1040D8009DF8051041F004018DF8051012F0020F4B
:1040E80005D19DF805206FF382028DF8052013F0A5
:1040F800080F0FD19DF8042042F040026FF3C71259
:104108008DF804209DF8052002F0FE026FF34102AD
:104118008DF8052013F0100F0FD19DF8042002F040
:10412800BF0242F080028DF804209DF8052002F0BD
:10413800FE026FF341028DF8052013F0200F0FD116
:104148009DF8042002F0BF026FF3C7128DF8042017
:104158009DF8052042F001026FF341028DF8052019
:1041680013F0400F0FD19DF8043003F0BF036FF335
:10417800C7138DF804309DF8053003F0FE0343F0B3
:1041880002038DF80530237813F0010F00F0E48066
:10419800237813F0020F00F03D81237813F0040F09
:1041A80040F034823A4B1B782BB9394B02221A70F3
:1041B800394B01221A70364B1B78DBB2012B00F009
:1041C8006E81334B1B78DBB2022B00F06F81304BD2
:1041D8001B78DBB2032B00F069812D4B1B78DBB217
:1041E800042B0FD02A4B1B78DBB2052B0AD0284BA7
:1041F8001B78DBB2062B05D0254B1B78DBB2072BCF
:1042080040F00782244B1B78002B00F0BA81234A28
:104218001288002A40F0A581013B1F4A13701F4AEB
:104228001388013313801E4A137843F00203137076
:10423800EFE10F2629E500232FE51A4B1B78DBB2A7
:1042480032E5154B1B78002234E5134B1B7801220D
:1042580036E5114B1B78002238E50F4B1B780122FD
:104268003AE50D4B1B7800223CE50B4B1B780122ED
:104278003EE5084A0221117031E60B4A1278D2B2A3
:10428800052A7FF438AE084A0221117033E600BFD0
:10429800B0020020C1020020B1020020AC020020C0
:1042A800F0020020C0020020C20200209B4A022126
:1042B80011702EE69A4A1278D2B2042A7FF435AEEB
:1042C800974A0221117030E6964A1278D2B2934981
:1042D8000A704EE6924A1278D2B2042A7FF455AE9A
:1042E800914A1278D2B28E490A704EE68D4A1278F7
:1042F800D2B28A490A7068E6894A1278D2B2052A87
:104308007FF46FAE884A1278D2B285490A7068E69F
:10431800844A1278D2B281490A707DE6804A1278BE
:10432800D2B2052A7FF484AE7F4A1278D2B27C4991
:104338000A707DE67B4A1278D2B278490A708EE616
:10434800774A1278D2B2042A7FF495AE764A127868
:10435800D2B273490A708EE6FDF714FF734B1B78CF
:10436800DBB2062B18D0714B1B78DBB2072B27D09A
:104378006E4B1B78002B37D16C4B06221A706C4B96
:1043880000221A706B4B1A7842F002021A701A78DF
:1043980042F001021A70FBE6654B1878FDF77EFFC4
:1043A800654B01221A700021604B19705B4A137823
:1043B800DBB25C480370614B197002231370E7E6A7
:1043C8005B4B1878FDF76AFF01235B4A1370574A65
:1043D8001370534A1378DBB253490B70584B0021C2
:1043E800197002231370D3E6504B1B78DBB2012BF4
:1043F8007FF4CEAE4D4B07221A704D4B00221A7037
:104408004C4B1A7842F002021A701A7842F00102F4
:104418001A70BDE6FDF7B6FE444B1B78DBB2042BE1
:1044280017D0424B1B78DBB2052B1AD03F4B1B78B9
:10443800FBB93E4B04221A703D4B00221A703D4BCB
:104448001A7842F002021A701A7842F001021A70C1
:10445800A3E6374B1878FDF7E3FE344B00221A70B9
:104468009BE6334B1878FDF7DBFE304B01221A70C0
:1044780093E62E4B1B78DBB2012B7FF48EAE2B4BD1
:1044880005221A702A4B00221A702A4B1A7842F019
:1044980002021A701A7842F001021A707DE6234B64
:1044A80003221A70224B01221A708AE6204B1B78CD
:1044B8000BB3244A128882B9013B1D4A1370214A62
:1044C8001388013313801B4B1A7842F001021A70CB
:1044D8001A7842F002021A707FE6B2F5FA7FEED33C
:1044E800B2F5167FEBD9174A4FF4FA711180013BE8
:1044F8000F4A1370E3E7134B1B882BBB0C4B1E7042
:10450800104A1388013313800A4B1A7842F00102CB
:104518001A701A7842F002021A705EE6C102002090
:10452800C2020020BD020020BE020020B00200200E
:10453800B1020020F0020020BC020020BF020020CF
:10454800C0020020AC020020B3F5FA7FD8D3B3F53F
:10455800167FD5D9954B4FF4FA721A80944B1E707A
:10456800CEE7B2F5FA7FFFF45AAEB2F5167F7FF6C2
:1045780056AE8E4A4FF4FA711180013B8C4A137083
:104588004DE68A4B1B887BB1B3F5FA7F02D3B3F5AE
:10459800167F20D8854A138801331380854A1378FB
:1045A80043F00203137034E0FDF762FB78B9804BE7
:1045B8000F221A70804B1B78DBB2012B03D07E4B85
:1045C80001221A70E6E77C4B02221A70E2E7784B68
:1045D8001F221A70DEE7754B4FF4FA721A80FDF746
:1045E80047FB78B9724B0F221A70734B1B78DBB2FA
:1045F800012B03D0704B01221A70CBE76E4B0222BD
:104608001A70C7E76A4B1F221A70C3E7674B00226C
:104618001A80237813F0080F40F0F680674B1B7858
:1046280023B9664B02221A70614B1E70634B1B78CC
:10463800DBB2012B33D0614B1B78DBB2022B34D0B9
:104648005E4B1B78DBB2032B2FD05C4B1B78DBB2A5
:10465800042B0FD0594B1B78DBB2052B0AD0574BD4
:104668001B78DBB2062B05D0544B1B78DBB2072B2B
:1046780040F0CD804E4B1B78B3426CD2504A128822
:10468800002A5AD101334A4A13704D4A138801331C
:104698001380484A137843F002031370B7E0474B7E
:1046A80003221A70424B1E70C5E7414B1B78B34278
:1046B80021D2434A128882B901333D4A1370404AD5
:1046C8001388013313803B4B1A7842F001021A70A9
:1046D8001A7842F002021A70B7E7B2F5FA7FEED301
:1046E800B2F5167FEBD9364A4FF4FA7111800133CF
:1046F8002F4A1370E3E7324B1B8883B92C4B0022F7
:104708001A702F4A1388013313802A4B1A7842F003
:1047180001021A701A7842F002021A7095E7B3F58E
:10472800FA7FEED3B3F5167FEBD9254B4FF4FA7227
:104738001A801F4B00221A70E3E7B2F5FA7FA4D360
:10474800B2F5167FA1D91E4A4FF4FA7111800133D0
:10475800174A137099E71A4B1B887BB1B3F5FA7F98
:1047680002D3B3F5167F2DD8154A13880133138069
:10477800104A137843F00203137048E0FDF778FA03
:1047880078B90B4B00221A700B4B1B78DBB2012B4C
:1047980003D0094B01221A70E6E7074B02221A7070
:1047A800E2E7034B00221A70DEE700BFAC020020EC
:1047B800B1020020F002002070020020B0020020A8
:1047C800AE0200200D4B4FF4FA721A80FDF750FA32
:1047D80078B90B4B00221A700A4B1B78DBB2012BFD
:1047E80003D0084B01221A70BEE7064B02221A704A
:1047F800BAE7034B00221A70B6E700BFAE020020EA
:10480800B102002070020020AA4B00221A80AA4B95
:1048180001221A70A94B1B78C3B9637913F0040FEE
:1048280005D1A74B1B7813B1A54B00221A70237929
:1048380013F0400F0AD1A24B1B78DBB2012B05D035
:104848009F4B01221A709C4B00221A70637913F057
:10485800020F1FD19B4B1B78DBB2012B1AD09A4B4E
:1048680000221A70994B1A7842F001021A701A78CD
:1048780042F002021A70934B1B78DBB2042B04D06F
:10488800904B1B78DBB2052B04D1914B1B78DBB224
:104898008C4A1370237913F0200F1FD18D4A127898
:1048A800D2B2012A1AD08C4A00211170874A117895
:1048B80041F001011170117841F002011170854A2F
:1048C8001278D2B2042A04D0824A1278D2B2052AC7
:1048D80004D1824A1278D2B27E490A7013F0100FBE
:1048E8003AD07F4B1B78002B36D17D4B01221A70B2
:1048F8007C4B1B78013BDBB2734A1370704B1B78FF
:1049080043B9724B1A7842F001021A701A7842F0D1
:1049180002021A704FF400717348FCF7D8FB6A4B17
:104928001A78724B03EBC2035B6813F4006F40F014
:104938006E81654B1A786D4B03EBC2035B6813F409
:10494800805F40F06A816A4E01213046FCF7A6FD7F
:1049580000213046FCF793FD237913F0100F02D1A4
:104968005F4B00221A70637913F0100F33D15D4B3F
:104978001B78013BDBB2544A1370514B1B7843B987
:10498800524B1A7842F001021A701A7842F0020269
:104998001A704FF400715448FCF799FB4A4B1A7887
:1049A800524B03EBC2035B6813F4006F40F03B818A
:1049B800454B1A784D4B03EBC2035B6813F4805FD9
:1049C80040F037814A4E01213046FCF767FD00214F
:1049D8003046FCF754FDE37813F0080F33D0454B0D
:1049E8001B78002B2FD1434B01221A703D4B5B786B
:1049F800013BDBB2384A1370314B1B78DBB2012B19
:104A080000F01D8104213C48FCF761FB2E4B1A780D
:104A1800364B03EBC2035B6813F4006F40F0198157
:104A2800294B1A78314B03EBC2035B6813F4805FA0
:104A380040F01481314E01213046FCF72FFD002152
:104A48003046FCF71CFDE37813F0080F02D1294A21
:104A58000021117013F0020F58D1224B5B78013BF3
:104A6800DBB21D4A1370164B1B78DBB2012B00F02A
:104A7800FB8004212048FCF72AFB174B1B7803F125
:104A880020021A4B03EBC2035B6813F4006F40F07B
:104A9800F580114B1B7803F12002144B03EBC20382
:104AA8005B6813F4805F40F0EE80144E01213046BD
:104AB80026E000BFAE020020CC020020BC0200208D
:104AC800B0020020C1020020BF020020F002002036
:104AD800BD020020C2020020C0020020BE02002049
:104AE800D80200207402002000040240A40800201C
:104AF80000200040D90200200000024000040140CC
:104B0800FCF7CCFC00213046FCF7B9FC637913F0C4
:104B1800200F40F0BE80AE4A1278D2B2012A0ED0E1
:104B2800AB490A78D2B2AB48027001220A70AA498E
:104B38000A7842F001020A70A84A00211170E2784E
:104B480012F0040F40F0BD80A54A1278D2B2012AB3
:104B58000ED0A3490A78D2B2A248027001220A7084
:104B68009D490A7842F001020A709C4A002111709E
:104B780013F0010F40F0D9809B4A13780133DBB260
:104B88001370934B1B78DBB2012B00F0D180904B54
:104B98001B78002B00F0AD808D4B1B78DBB2052B0A
:104BA80009D08B4B1B78DBB2042B04D0884B1B78C5
:104BB800DBB2884A13708D4E31780020FDF710FE65
:104BC8003070834B02221A704FF400718848FCF74A
:104BD8007EFA864B1A78874B03EBC2035B6813F4A3
:104BE800006F40F09680814B1A78824B03EBC2032A
:104BF8005B6813F4805F40F092807F4E012130465D
:104C0800FCF74CFC00213046FCF739FC90E04FF4EF
:104C180000617748FCF75BFA8BE64FF480617448D3
:104C2800FCF755FA8FE64FF400617148FCF74FFA2C
:104C3800BEE64FF480616E48FCF749FAC2E6664B5F
:104C48001A7842F001021A701A7842F002021A70B9
:104C5800D8E608216948FCF73AFAE1E64FF48051B2
:104C68006648FCF734FAE5E65B4B1A7842F0010235
:104C78001A701A7842F002021A70FAE608215F48A0
:104C8800FCF725FA05E74FF480515C48FCF71FFA5A
:104C98000BE74F4A1278D2B2012A7FF450AF4D4A3F
:104CA8001278D2B24A490A704B4A117841F0010190
:104CB8001170117841F002011170484A00211170F9
:104CC8003DE7474A1278D2B2012A7FF451AF454AEC
:104CD8001278D2B242490A703F4A117841F0010174
:104CE8001170117841F0020111703C4A00211170D5
:104CF8003EE73E4E31780020FDF71CFC404B186023
:104D080031780020FDF76CFD30703E4B00221A60B0
:104D180057E74FF400613648FCF7D9F963E74FF4D9
:104D280080613348FCF7D3F967E72F4B00221A70EC
:104D3800637913F0080F40F08880334A1378013301
:104D4800DBB21370264B1B78DBB2012B00F080809E
:104D5800234B1B78002B5DD0214B1B78DBB2052B36
:104D680009D01F4B1B78DBB2042B04D01C4B1B78DB
:104D7800DBB21C4A1370254C21780120FDF730FD69
:104D88002070174B02221A7004211C48FCF79FF967
:104D98001E4B1B7803F12002164B03EBC2035B6822
:104DA80013F4006F46D1194B1B7803F12002114B05
:104DB80003EBC2035B6813F4805F40D1144C0121FC
:104DC8002046FCF76BFB00212046FCF758FB3FE030
:104DD800C1020020BD020020F0020020CC02002009
:104DE800C2020020BE020020A8020020BF0200204C
:104DF80000040240A40800200020004000000240F7
:104E0800A0020020C4020020A9020020C002002045
:104E1800000401401B4C21780120FDF78BFB1A4B45
:104E2800186021780120FDF7DBFC2070174B002269
:104E38001A60A6E708211648FCF749F9B3E74FF4CA
:104E480080511348FCF743F9B8E7124B00221A7057
:104E5800114B1B782BB1104B00221A70012003B0A4
:104E6800F0BD05EB47150D4F07EBC50502AB13E980
:104E7800030085E803000A4A137843F0010313701E
:104E8800ECE700BFC0020020A4020020C8020020F6
:104E980000000240A9020020BC020020A408002053
:104EA800F002002010B582B0FF238DF804308DF891
:104EB80005308DF806308DF80730BD4B1B7823B1CF
:104EC800BB4B1B78DBB2062B05D19DF804306FF382
:104ED80082038DF80430B64B1B78DBB2012B09D066
:104EE800B34B1B78DBB2042B04D0B14B1B78DBB27D
:104EF800052B05D19DF804306FF341038DF804307C
:104F0800AB4B1B78DBB2022B00F07381A94B1B78EB
:104F180023B1A84B1B78DBB2062B05D19DF80430D2
:104F28006FF345138DF80430A24B1B78DBB2012BCD
:104F380009D0A04B1B78DBB2042B04D09D4B1B7807
:104F4800DBB2052B05D19DF804306FF304138DF8FF
:104F58000430984B1B78DBB2022B00F05181964B42
:104F68001B78002B40F05381944B1B78DBB2924A9C
:104F78001278D2B2012A00F04C8100218E4A1278B0
:104F8800D2B2022A00F04A818B4A1278D2B2032A9E
:104F980000F0488103EB4113894A02EBC303DA7836
:104FA800C2F3800282F001029DF8071062F38201C9
:104FB8008DF80710DA78C2F3001282F00102C9B244
:104FC80062F304118DF80710DA78C2F3401282F008
:104FD8000102C9B262F345118DF80710DA78C2F3FD
:104FE800801282F00102C9B262F386118DF80710AF
:104FF800DA786FEAD212C9B262F3C7118DF80710D6
:105008001A7902F0010282F001029DF8061062F39B
:1050180000018DF806105A79C2F3C00282F001022D
:105028009DF8041062F386118DF804105A79C2F3C2
:10503800001282F00102C9B262F3C7118DF80410A0
:105048001A79C2F3001282F001029DF8061062F389
:1050580004118DF806101A79C2F3401282F0010289
:10506800C9B262F345118DF80610DA78C2F3C002AE
:1050780082F001029DF8071062F3C3018DF8071052
:10508800DA78C2F3400282F00102C9B262F3410148
:105098008DF80710DA7802F0010282F00102C9B235
:1050A80062F300018DF807101A79C2F3801282F0BA
:1050B80001029DF8061062F386118DF806101A7920
:1050C8006FEAD212C9B262F3C7118DF806105A7985
:1050D80002F0010282F001029DF8051062F300015E
:1050E8008DF805105A79C2F3400282F00102C9B264
:1050F80062F341018DF805105A79C2F3800282F0FB
:105108000102C9B262F382018DF805101A79C2F35F
:10511800400282F001029DF8061062F341018DF809
:1051280006101A79C2F3800282F00102C9B262F352
:1051380082018DF806101B79C3F3C00383F00103C5
:10514800CAB263F3C3028DF806201B4B1B78DBB28F
:10515800042B0ED0184B1B78DBB2052B09D0164B4D
:105168001B78DBB2062B04D0134B1B78DBB2072B62
:105178007FD1FF238DF804308DF805308DF8063087
:105188008DF807300C4B1B78DBB2042B4ED00A4B42
:105198001B78DBB2052B49D0074B1B78DBB2062BFB
:1051A80010D0054B1B78DBB2072B54D10AE000BFA7
:1051B800C1020020C2020020B0020020BF0200206D
:1051C800A40800209DF8043043F002038DF8043051
:1051D800514B1A6801321A601A6840F2DB539A423E
:1051E80000F281809DF804306FF304138DF80430C9
:1051F80031E09DF804306FF300038DF8043085E644
:105208009DF804306FF3C3038DF80430A7E600233C
:10521800ADE6424B1B78DBB20121AFE6404B1B7871
:105228000021B1E63E4B1B780121B3E69DF804301E
:1052380043F010038DF804303A4B1A6801321A60B3
:105248001A6840F2DB539A423CD89DF804306FF359
:1052580041038DF80430FCF70BFD50B9324B1B7835
:10526800DBB2012B50D09DF8043003F07F038DF89A
:10527800043001A8FCF748FD2C4B1B7823B12B4BBD
:105288001B78DBB2022B08D1294C40212046FBF7C2
:105298001CFF80212046FBF71AFF244B1B78DBB24A
:1052A800012B04D0214B1B78DBB2032B08D1204CF7
:1052B80080212046FBF709FF40212046FBF707FF26
:1052C80002B010BD174B1A6840F6B7339A4206D899
:1052D8009DF8043043F002038DF80430BBE7114B0E
:1052E80000221A60B7E70C4B1A6840F6B7339A42A7
:1052F80006D89DF8043043F010038DF80430AAE76F
:10530800054B00221A60A6E79DF8043023F04003FD
:105318008DF80430ADE700BFD0020020C0020020A5
:10532800B1020020D402002070020020B002002048
:105338000000024008B51A4B1B783BB3184B1B788A
:10534800DBB2012B27D0164B1B78DBB2022B18D00F
:10535800134B1B78DBB2032B13D0114B1B78DBB23A
:10536800042B0ED00E4B1B78DBB2052B09D00C4B4F
:105378001B78DBB2062B04D0094B1B78DBB2072B5A
:1053880003D1084B1878FCF739FD08BD064B18788F
:10539800FCF734FDD2E7054B1878FCF72FFDD2E770
:1053A800B0020020B1020020BF020020C00200208D
:1053B80030B583B0FCF7BAFA0D46FF238DF80430F8
:1053C8008DF805308DF806308DF80730344C802183
:1053D8002046FBF77CFE40212046FBF778FE0024A0
:1053E80014E0B4F57A6F25D29DF8043003F0FB037E
:1053F80043F0030303F0DF0343F018038DF8043090
:1054080001A8FCF781FCFCF791FA0D4615F4006F32
:1054180025D00134B4F5FA6FE3D29DF8043043F097
:10542800060303F0FE0343F030036FF3C3038DF864
:105438000430E5E741F26F739C420ED89DF80430C2
:1054480043F0040303F0FD0343F0210303F0EF03EB
:1054580043F008038DF80430D2E70024D0E7002396
:1054680000E00133072B0FD80E4A52F823100E4ADA
:1054780042F8231052F82320632AF2D80A4A40F649
:10548800FF7142F82310ECE7FCF794FD202206494F
:105498004FF44840FCF726F9FCF7E0FC03B030BDB8
:1054A80000000240F80700205002002010B586B026
:1054B800044601A8FBF724FE029B084AA2FB03232B
:1054C8005B0B04FB03F3059302E0059B013B05938B
:1054D800059B002BF9D106B010BD00BF5917B7D1F5
:1054E80038B57B4B4FF6FE721A82FCF71FFA794BE0
:1054F8001B781D2B2DD8784A12781D2A29D8C0B2BE
:1055080000F00301032914D010F0010F09D1013371
:1055180070490B7010F0020F07D101326E4B1A70F0
:105528001DE06C4B00211970F4E76B4B00221A70D8
:1055380015E00021674B1970674B1970644C2046C1
:10554800FBF79DFF23889BB223F001039BB22380C6
:1055580005E01E2B04D0604B1B781E2B00D038BDF5
:105568000020FCF733FC4FF4FA70FFF79FFF4FF66B
:10557800FF70FCF72BFC4FF4FA70FFF797FF002041
:10558800FCF724FC4FF4FA70FFF790FF4FF6FF701A
:10559800FCF71CFC4FF4FA70FFF788FF0020FCF7BB
:1055A80015FC4FF4FA70FFF781FF4FF6FF70FCF718
:1055B8000DFC474C00212046FBF761FF23889BB276
:1055C80023F001039BB22380424B1B781E2B23D070
:1055D800414B1B781E2B47D000233E4A13703E4A8E
:1055E80013703E4B1B78DBB2062B04D03B4B1B7869
:1055F800DBB2042B02D1394B00221A70374B1B78CF
:10560800DBB2072B04D0354B1B78DBB2052BA6D1B8
:10561800324B01221A70A2E7314A0023D37013716A
:105628005371516841F080015160116841F0806107
:10563800116010E02A4A02EBC30492E8030084E8F0
:10564800030003F1100402EBC40492E8030084E8A9
:1056580003000133DBB20F2BECD9224B02221A7064
:10566800214B00221A70B7E71D4A002382F8033144
:1056780082F8043182F80531D2F8041141F0800132
:10568800C2F80411D2F8001141F08061C2F800118B
:1056980014E0134A03F1200502EBC50502F58074F6
:1056A80094E8030085E8030003F1300102EBC1022E
:1056B80094E8030082E803000133DBB20F2BE8D93A
:1056C8000A4B02221A700A4B00221A7084E700BFA4
:1056D80000100040AA020020AB020020B002002007
:1056E800A4080020C1020020BF020020C20200203E
:1056F800C002002000000000F0B589B0B44B0022C1
:105708001A701A7842F001021A701A7842F00202EE
:105718001A70B04B5A6842F080025A601A6842F018
:1057280080621A6003F5807293E8030082E8030040
:10573800012220E0A74B03EBC20493E8030084E8AE
:10574800030002F1200403EBC40493E8030084E897
:10575800030002F1100403EBC40493E8030084E897
:10576800030002F1300403EBC40493E8030084E867
:1057780003000132D2B20F2ADCD99748FBF7C0FCEC
:10578800FEF7DAF9FEF724FAFCF71CFAFCF734FA0C
:10579800924C2070FCF7D2FA4FF6FF70FCF716FB1C
:1057A8004FF47A70FFF782FE207840F47F4040F093
:1057B800F000FCF70BFB4FF47A70FFF777FEFBF76E
:1057C800E1FEFCF75FFAFF238DF815308DF81630EF
:1057D8008DF8173008A86FF0090300F80C3DFCF7A6
:1057E80093FAFCF707F8FCF7A1F8CDE9020176A3D4
:1057F800D3E90023CDE90023FCF7E4F8FCF77CF9B2
:105808000020FCF7D3F9FCF729FBFDF73FFFFCF775
:10581800D9FBFEF7F7F9FCF711FA0223704A137067
:10582800704A1370FCF782F8CDE90201DDE9022322
:10583800CDE9062313F4807F29D1FFF7B9FD0025B0
:10584800664B1B7813F0020F36D1644B1B7813F0AC
:10585800010F39D1644B40F233321A60634B644A0A
:105868001A60002D38D0022D3BD00135EDB2022D43
:1058780000D90025564B1B7813F0010F79D1544BF2
:105888001B7813F0020F40F0968000243AE12022A2
:1058980058494FF44840FBF789FF0023072BCEDC1B
:1058A800544A52F82320632A04D8524A40F6FF711A
:1058B80042F823100133F1E74B4B40F299121A607A
:1058C8004A4B4D4A1A60CCE7474B40F2ED121A603A
:1058D800464B4A4A1A60C4E7FCF728F8CDE90201AA
:1058E800C1E7FCF723F8DDE90223994208BF90429B
:1058F800BBD1DDE90223CDE9062341490978C9B2C4
:10590800042922D03E490978C9B205291DD03C494D
:105918000978C9B2062918D039490978C9B20729BE
:1059280013D0DDE90267DDE900018F4208BF864236
:1059380003D102F00C020C2A97D006A8FEF79CF9B6
:10594800DDE90223CDE900238FE7DDE90267DDE920
:1059580000018F4208BF864203D102F00C020C2AD4
:1059680083D006A8FEF788F9DDE90223CDE90023F4
:105978007BE7FFF797FA164A13786FF30003137063
:105988001F4B1B78DBB2042B0FD01D4B1B78DBB2EF
:10599800052B0AD01A4B1B78DBB2062B05D0184B07
:1059A8001B78DBB2072B7FF46AAF094A137843F000
:1059B8000103137063E7FFF7BDFC054A13786FF323
:1059C8004103137061E700BFFFFDFFF767BF7F006A
:1059D800F0020020A4080020240B0020E802002088
:1059E800C1020020C2020020A00800209808002060
:1059F8000000A0405002002000002041D7A304412D
:105A0800B00200204FF01F0C484A135DDBB2484932
:105A18000B55135DDBB20CF1010C634524DA175DFD
:105A2800A31D444A52F8233007FB03F7B7FBFCF7E2
:105A3800BFB21437BFB23D4B1B5DDBB2012B15D98A
:105A48003A4B1E5D731EA21D3A4951F8226006FBAF
:105A580003F6B6FBFCF6B6B2143EB6B200210A460F
:105A680018E04FF00F0CCFE70027E4E70026F5E732
:105A7800314B9B69C3EB03332E488069B3FBF0F3CA
:105A88009BB2B3F5805F01D340F6FF73194400E081
:105A980019440132092A10DC002CE9D0264BDB69B5
:105AA800C3EB03332348C069B3FBF0F39BB2B3F5F0
:105AB800805FEDD340F6FF73EAE71C4B1B5DDBB25A
:105AC8009C450CDD1D4A82FB0132CB17C3EBA203B8
