:020000040800F2
:1000000000000220D5530008275400082954000896
:100010002B5400082D5400082F5400080000000045
:100020000000000000000000000000003154000843
:10003000335400080000000035540008375400080D
:1000400025540008255400082554000825540008AC
:100050002554000825540008F91B0008F91C000865
:10006000255400082554000825540008255400088C
:10007000255400082554000825540008255400087C
:100080002554000825540008D94F000825540008BD
:10009000255400082554000825540008B5220008FE
:1000A000255400082554000825540008255400084C
:1000B00025540008B5320008C1270008255400085F
:1000C000255400082554000825540008255400082C
:1000D000255400082554000825540008255400081C
:1000E000255400082554000825540008255400080C
:1000F000293200086D3200082554000825540008F4
:100100002554000825540008612C000825540008D7
:100110002554000825540008494A000809340008FD
:1001200025540008255400082554000825540008CB
:1001300025540008255400082554000825540008BB
:1001400025540008255400082554000825540008AB
:10015000255400082554000825540008255400089B
:10016000255400082554000825540008255400088B
:10017000255400082554000825540008255400087B
:08018000255400082554000875
:1001880010B5054C237833B9044B13B10448AFF3C9
:1001980000800123237010BD7802002000000000B9
:1001A8008057000808B5034B1BB103490348AFF358
:1001B800008008BD000000007C0200208057000875
:1001C800034613F8012B002AFBD1181A013870478F
:1001D80081F0004102E000BF83F0004330B54FEAF0
:1001E80041044FEA430594EA050F08BF90EA020F5D
:1001F8001FBF54EA000C55EA020C7FEA645C7FEAF0
:10020800655C00F0E2804FEA5454D4EB5555B8BF12
:100218006D420CDD2C4480EA020281EA030382EA83
:10022800000083EA010180EA020281EA0303362D15
:1002380088BF30BD11F0004F4FEA01314FF4801CE8
:100248004CEA113102D0404261EB410113F0004FFA
:100258004FEA03334CEA133302D0524263EB4303B1
:1002680094EA050F00F0A780A4F10104D5F1200E4F
:100278000DDB02FA0EFC22FA05F2801841F10001AA
:1002880003FA0EF2801843FA05F359410EE0A5F17E
:1002980020050EF1200E012A03FA0EFC28BF4CF0AF
:1002A800020C43FA05F3C01851EBE37101F0004565
:1002B80007D54FF0000EDCF1000C7EEB00006EEB72
:1002C8000101B1F5801F1BD3B1F5001F0CD34908FC
:1002D8005FEA30004FEA3C0C04F101044FEA445253
:1002E80012F5800F80F09A80BCF1004F08BF5FEADA
:1002F800500C50F1000041EB045141EA050130BDBA
:100308005FEA4C0C404141EB010111F4801FA4F15C
:100318000104E9D191F0000F04BF01460020B1FAB1
:1003280081F308BF2033A3F10B03B3F120020CDAE9
:100338000C3208DD02F1140CC2F10C0201FA0CF0C7
:1003480021FA02F10CE002F11402D8BFC2F1200C2C
:1003580001FA02F120FA0CFCDCBF41EA0C019040E2
:10036800E41AA2BF01EB0451294330BD6FEA04042B
:100378001F3C1CDA0C340EDC04F11404C4F1200216
:1003880020FA04F001FA02F340EA030021FA04F328
:1003980045EA030130BDC4F10C04C4F1200220FA7F
:1003A80002F001FA04F340EA0300294630BD21FABD
:1003B80004F0294630BD94F0000F83F4801306BF83
:1003C80081F480110134013D4EE77FEA645C18BF77
:1003D8007FEA655C29D094EA050F08BF90EA020F0E
:1003E80005D054EA000C04BF1946104630BD91EA06
:1003F800030F1EBF0021002030BD5FEA545C05D109
:100408004000494128BF41F0004130BD14F5800447
:100418003CBF01F5801130BD01F0004545F0FE41BB
:1004280041F470014FF0000030BD7FEA645C1ABFF0
:10043800194610467FEA655C1CBF0B46024650EA27
:10044800013406BF52EA033591EA030F41F4002153
:1004580030BD00BF90F0000F04BF0021704730B5D9
:100468004FF4806404F132044FF000054FF00001AE
:1004780050E700BF90F0000F04BF0021704730B56F
:100488004FF4806404F1320410F0004548BF404244
:100498004FF000013EE700BF42004FEAE2014FEA99
:1004A80031014FEA02701FBF12F07F4393F07F4F74
:1004B80081F06051704732F07F4208BF704793F077
:1004C8007F4F04BF41F40021704730B54FF460748A
:1004D80001F0004521F000411CE700BF50EA01028D
:1004E80008BF704730B54FF000050AE050EA010236
:1004F80008BF704730B511F0004502D5404261EBA6
:1005080041014FF4806404F132045FEA915C3FF4E6
:10051800D8AE4FF003025FEADC0C18BF03325FEA83
:10052800DC0C18BF033202EBDC02C2F1200300FA34
:1005380003FC20FA02F001FA03FE40EA0E0021FA59
:1005480002F11444BDE600BF70B54FF0FF0C4CF447
:10055800E06C1CEA11541DBF1CEA135594EA0C0FF9
:1005680095EA0C0F00F0DEF82C4481EA030621EA34
:100578004C5123EA4C5350EA013518BF52EA03356F
:1005880041F4801143F4801338D0A0FB02CE4FF021
:100598000005E1FB02E506F00042E0FB03E54FF051
:1005A8000006E1FB03569CF0000F18BF4EF0010E49
:1005B800A4F1FF04B6F5007F64F5407404D25FEA45
:1005C8004E0E6D4146EB060642EAC62141EA5551F8
:1005D8004FEAC52040EA5E504FEACE2EB4F1FD0C3A
:1005E80088BFBCF5E06F1ED8BEF1004F08BF5FEAB8
:1005F800500E50F1000041EB045170BD06F000466A
:1006080046EA010140EA020081EA0301B4EB5C0416
:10061800C2BFD4EB0C0541EA045170BD41F480110E
:100628004FF0000E013C00F3AB8014F1360FDEBF33
:10063800002001F0004170BDC4F10004203C35DA0F
:100648000C341BDC04F11404C4F1200500FA05F392
:1006580020FA04F001FA05F240EA020001F0004233
:1006680021F0004110EBD37021FA04F642EB0601A9
:100678005EEA430E08BF20EAD37070BDC4F10C04D3
:10068800C4F1200500FA04F320FA05F001FA04F297
:1006980040EA020001F0004110EBD37041F1000183
:1006A8005EEA430E08BF20EAD37070BDC4F120058E
:1006B80000FA05F24EEA020E20FA04F301FA05F2F6
:1006C80043EA020321FA04F001F0004121FA04F29E
:1006D80020EA020000EBD3705EEA430E08BF20EA6E
:1006E800D37070BD94F0000F0FD101F000464000A8
:1006F80041EB010111F4801F08BF013CF7D041EA2A
:10070800060195F0000F18BF704703F0004652002D
:1007180043EB030313F4801F08BF013DF7D043EAFE
:100728000603704794EA0C0F0CEA135518BF95EAB4
:100738000C0F0CD050EA410618BF52EA4306D1D13B
:1007480081EA030101F000414FF0000070BD50EA5A
:10075800410606BF1046194652EA430619D094EAE4
:100768000C0F02D150EA013613D195EA0C0F05D1CE
:1007780052EA03361CBF104619460AD181EA030122
:1007880001F0004141F0FE4141F470014FF00000DA
:1007980070BD41F0FE4141F4780170BD70B54FF075
:1007A800FF0C4CF4E06C1CEA11541DBF1CEA1355F5
:1007B80094EA0C0F95EA0C0F00F0A7F8A4EB0504D7
:1007C80081EA030E52EA03354FEA013100F08880CE
:1007D8004FEA03334FF0805545EA131343EA126397
:1007E8004FEA022245EA111545EA10654FEA00264C
:1007F8000EF000419D4208BF964244F1FD0404F505
:10080800407402D25B084FEA3202B61A65EB030560
:100818005B084FEA32024FF480104FF4002CB6EB1D
:10082800020E75EB030E22BFB61A754640EA0C009D
:100838005B084FEA3202B6EB020E75EB030E22BFDD
:10084800B61A754640EA5C005B084FEA3202B6EB1E
:10085800020E75EB030E22BFB61A754640EA9C00DD
:100868005B084FEA3202B6EB020E75EB030E22BFAD
:10087800B61A754640EADC0055EA060E18D04FEA6B
:10088800051545EA16754FEA06164FEAC30343EA0B
:1008980052734FEAC2025FEA1C1CC0D111F4801FD8
:1008A8000BD141EA00014FF000004FF0004CB6E7D1
:1008B80011F4801F04BF01430020B4F1FD0C88BF70
:1008C800BCF5E06F3FF6AFAEB5EB030C04BFB6EB7B
:1008D800020C5FEA500C50F1000041EB045170BD6E
:1008E8000EF0004E4EEA113114EB5C04C2BFD4EB9B
:1008F8000C0541EA045170BD41F480114FF0000E1F
:10090800013C90E645EA060E8DE60CEA135594EA9A
:100918000C0F08BF95EA0C0F3FF43BAF94EA0C0F9D
:100928000AD150EA01347FF434AF95EA0C0F7FF412
:1009380025AF104619462CE795EA0C0F06D152EA66
:1009480003353FF4FDAE1046194622E750EA41064A
:1009580018BF52EA43067FF4C5AE50EA41047FF45B
:100968000DAF52EA43057FF4EBAE12E74A0011D20D
:1009780012F5001211D20DD56FF47873B3EB6252F1
:100988000ED44FEAC12343F0004343EA505323FAFD
:1009980002F070474FF00000704750EA013002D172
:1009A8004FF0FF3070474FF000007047017870B586
:1009B80001F01F0301269E40C3784D09CBB10F4BB0
:1009C800DA684378D243C2F30222C2F10404E4B2E3
:1009D800A340DCB20F2343FA02F283781340084A9B
:1009E80023431B011144DBB281F8003342F8256030
:1009F80070BD2035024B43F82560F9E700ED00E0B3
:100A080000E100E043680A7923F0407323F480731F
:100A180043EA02230A6813434360D1E903231343DB
:100A28008A6810B513438468084A224013434A79F8
:100A380043EA420383600A7DC36A013A23F47003E0
:100A4800D2B243EA0253C36210BD00BFFDF7FFC034
:100A58000023036003714371C0E90233036101237A
:100A680003757047836819B143F0010383607047C9
:100A780023F00103FAE7092970B51BD9A1F10A048B
:100A8800C56804EB44040726A64025EA060503FAD0
:100A980004F42C43C460062A18D8013A436B02EBCD
:100AA80082021F24944023EA040301FA02F21A4343
:100AB800426370BD056901EB41060724B44025EA8D
:100AC800040503FA06F42C430461E4E70C2A0CD865
:100AD800073A036B02EB82021F24944023EA0403C3
:100AE80001FA02F21A430263E3E70D3AC36A02EB22
:100AF80082021F24944023EA040391401943C162EF
:100B0800D7E70123C9B203FA01F1436812B11943C7
:100B18004160704723EA0101FAE70368194214BFEC
:100B2800012000207047C9430160704708B50121C2
:100B38004FF0005000F076F900214FF00050BDE86A
:100B4800084000F06FB9000030B5094C40F6FE735C
:100B58002268834022EA0302D1E900352B438D68DD
:100B6800C9682B430B4303FA00F01043206030BDE3
:100B7800007400400023C0E90033C0E90233704725
:100B8800012303FA00F0044B1A6811B110431860EE
:100B9800704722EA0000FAE70074004082B00023A0
:100BA8000193054B0193019B083318440190019B65
:100BB800196002B0704700BF0074004082B0002383
:100BC8000193054B0193019B143318440190019B39
:100BD800196002B0704700BF00740040044B002247
:100BE8001A605A609A60DA60024A5A61704700BF18
:100BF800003C0140FFFF7F000279837930B505682A
:100C080002F1804202F59E32E9431BB3134B1C6884
:100C18000C401C605C6821405960116829431160D0
:100C280002689C68D1430C409C60DC682140D96014
:100C38004179102906D1996811439960D9680A4306
:100C4800DA6030BD01F1804303F59E3319680A4329
:100C58001A60F6E713680B401360F2E7003C0140A6
:100C6800014B5861704700BF003C01402DE9F0433B
:100C78000D6800220126032406FA02FE3EEA050357
:100C88003DD15700D0F800C004FA07F3DB430CEA63
:100C9800030CC0F800C091F804C0D0F800900CFA1A
:100CA80007F80CF1FF3C48EA0908BCF1010FC0F84D
:100CB800008017D8D0F808C003EA0C0383604B798A
:100CC800D0F808C0BB4043EA0C038360436823EABA
:100CD8000E0343608B79D0F804C093409BB243EA7B
:100CE8000C034360C36804FA07FC23EA0C03C360DF
:100CF800CB79D0F80CC0BB4043EA0C03C360013287
:100D0800102AB9D1BDE8F0834FF6FF7303600023C2
:100D1800037143718371C37170470369194214BF2A
:100D2800012000207047018370474183704701F01C
:100D38000703C90800EB810010B5016A9B000F2466
:100D48009C4021EA04010162016A9A400A43026256
:100D580010BD00001D4A936803F00C03042B10B566
:100D68001AD0082B1AD01A4B184A036093681949ED
:100D7800C3F30313CC5C0368E34043609468C4F393
:100D880082240C5D23FA04F484609268C2F3423230
:100D98008A5CD340C36010BD0F4BE5E754685168C7
:100DA80052686302C2F3881201F03F014CBF0A4B3C
:100DB800074BB3FBF1F35343044A5268C2F30142B1
:100DC80001325200B3FBF2F3CEE700BF0038024015
:100DD8000024F4000000002040787D01044B1A6BC9
:100DE80011B110431863704722EA0000FAE700BF08
:100DF80000380240044B1A6C11B110431864704754
:100E080022EA0000FAE700BF00380240044B5A6C9F
:100E180011B110435864704722EA0000FAE700BF96
:100E280000380240044B1A6A11B110431862704727
:100E380022EA0000FAE700BF00380240044B5A6A71
:100E480011B110435862704722EA0000FAE700BF68
:100E58000038024008B5274B98420BD101214FF4C6
:100E68008050FFF7EBFF00214FF48050BDE80840A9
:100E7800FFF7E4BF204B98420BD101214FF480408B
:100E8800FFF7D0FF00214FF48040BDE80840FFF78E
:100E9800C9BF1A4B984208D101214FF40040FFF70F
:100EA800C1FF00214FF40040EFE7154B984208D1ED
:100EB80001214FF40050FFF7C1FF00214FF400500B
:100EC800D4E7104B984208D101214FF48010FFF766
:100ED800B5FF00214FF48010C8E70B4B984208D1AA
:100EE80001214FF40010FFF7A9FF00214FF4001073
:100EF800BCE708BD0030014000380040003C00401D
:100F0800003401400050014000540140038810B5EE
:100F180003F441524C880B8823438C882343CC88A4
:100F280023430C8923434C8923438C892343CC894D
:100F3800234313430380838B23F400631B041B0C9C
:100F480083830B8A038210BD002303804380838040
:100F5800C380038143818381C38107230382704750
:100F6800038819B143F040030380704723F040031E
:100F78001B041B0CF8E74FF6FF639942038805BF73
:100F880023F480731B0443F480731B0C03807047A5
:100F980080897047818170470389194214BF0120F5
:100FA8000020704701F0030301F0FC0101F18041CA
:100FB80001F59C3110B58A689B000F249C4022EAF9
:100FC80004028A608A6898401043886010BD000057
:100FD8001C4A038890429BB212D002F5806290426C
:100FE8000ED0B0F1804F0BD0A2F58032904207D0DE
:100FF80002F58062904203D002F58062904203D1EC
:101008004A8823F0700313430F4A904208D002F530
:10101800806290421FBF23F440730A899BB2134336
:1010280003804B68C3620B880385064B984203D044
:1010380003F58063984201D18B7A0386012383826A
:10104800704700BF000001400010004000234FF02F
:10105800FF32C0E9003203818372704741627047F2
:10106800038819B143F080030380704723F080039D
:101078001B041B0CF8E7038819B143F00103038034
:10108800704723F001031B041B0CF8E781637047CA
:10109800038C10B501248C4023EA04030384038CD9
:1010A80002FA01F1194389B2018410BD838912B192
:1010B80019438181704723EA0101FAE7038A82898B
:1010C80011EA030092B203D00A4214BF01200020A3
:1010D8007047C94389B201827047838823F070033F
:1010E8001B041B0C83808388194381807047000090
:1010F80038B50C4D044602212846FFF74DFF00285D
:10110800F9D021460748074CFFF744FF0121204644
:10111800FFF742FF0028F9D00248BDE83840FFF742
:1011280037BF00BF003C004010B50B4C02212046E1
:10113800FFF732FF0028F9D000210748064CFFF7D7
:1011480029FF01212046FFF727FF0028F9D0024890
:10115800BDE81040FFF71CBF003C0040F0B501217E
:1011680089B00420FFF73AFE334D01A8FFF7CCFD04
:101178004FF4E053012401930026022301A92846D5
:101188008DF808308DF809308DF80A608DF80B401D
:10119800FFF76CFD21460820FFF720FE01A8FFF7A6
:1011A800B3FD8DF80A60254E8DF808400427032307
:1011B8000DEB070130468DF8093001978DF80B408B
:1011C800FFF754FD284606220A21FFF7B0FD2846FE
:1011D80006220B21FFF7ABFD062228460C21FFF75C
:1011E800A6FD39463046FFF79EFDA5F5E6352146B2
:1011F8004FF40040FFF7FEFD2846FFF72BFE03A83B
:10120800FFF7A2FE4FF082724FF400330C49CDE98C
:1012180003231023CDE90513284603A9FFF776FE1B
:1012280021462846FFF79CFE4FF480712846FFF7B9
:10123800A2FE09B0F0BD00BF00080240000C024049
:101248000100000238B50B4C04212046FFF76DFD64
:101258000520FFF74DFF022004F0AAF8FFF764FF0E
:101268000546C82004F0A4F820460421FFF75BFDDA
:10127800E8B238BD000C024010B5084C04212046E5
:10128800FFF753FD0620FFF733FFC82004F090F85E
:1012980020460421BDE81040FFF745BD000C024080
:1012A8002DE9F047914606468A46FFF7E5FF0421F7
:1012B8002748DFF89C80FFF738FD0220FFF718FF6A
:1012C800F7B2300AFFF714FF3846FFF711FF002482
:1012D800A145A5B20FD1C82004F06AF804211C4822
:1012E800FFF721FD012003F095FBFFF7ABFFC307D4
:1012F800F8D4BDE8F087690623D115B3C82004F0F7
:1013080057F804214046FFF70EFD012003F082FB49
:10131800FFF798FFC207F8D4012003F07BFBFFF723
:10132800ABFF04214046FFF700FD0220FFF7E0FE77
:10133800A819C0F30720FFF7DBFE3819C0B2FFF782
:10134800D7FE1AF80400FFF7D3FE0134C0E700BF48
:10135800000C024070B506460C461048042115469C
:10136800FFF7E3FC0320FFF7C3FE300AFFF7C0FED8
:10137800F0B2FFF7BDFE013C2544AC4208D1C820BD
:1013880004F016F804210548BDE87040FFF7CBBC0F
:10139800FFF7CAFE04F8010FEFE700BF000C024098
:1013A8007FB5144C01210420FFF718FD0E230026F9
:1013B800009301250323694620468DF80530ADF8D2
:1013C80006608DF80450FFF751FC02A92046CDE9CC
:1013D8000256FFF74BFC20460821FFF7A4FC2046E5
:1013E8000421FFF7A2FC02212046FFF79EFC04B06F
:1013F80070BD00BF0008024010B50B4C0421204608
:10140800FFF793FC20460221FFF78FFC08212046B6
:10141800FFF78BFC012003F0C5FD20460821BDE83D
:101428001040FFF780BC00BF0008024070B50121E2
:101438001748174EFFF771FC431E5C424FF002013C
:1014480013485C41FFF76FFC072502213046FFF780
:101458006CFC012003F0A6FD01213046FFF75DFC7E
:10146800640001284FF002010948E4B208BF44F0C3
:101478000104013DFFF757FC012003F093FD15F02F
:10148800FF05E2D102210248FFF74FFC204670BD5C
:101498000008024070B5FFF7C9FF0646FFF7C6FF10
:1014A8000546FFF7C3FF0446FFF7C0FF240444EADC
:1014B8000060304340EA052070BD38B5FFF7B6FF3D
:1014C8000546FFF7B3FF0446FFF7B0FF240244EADE
:1014D8000040284338BD000070B50C4C042120465C
:1014E800FFF723FC0A2003F05DFDFFF785FFFFF7F8
:1014F800D1FF0546FFF7E1FF042106462046FFF726
:1015080012FC002343EA0500314670BD0008024082
:1015180038B50C4D044602212846FFF73DFD00284A
:10152800F9D021460748074CFFF734FD0121204632
:10153800FFF732FD0028F9D00248BDE83840FFF730
:1015480027BD00BF0038004070B50A4C06460D465E
:1015580020464FF48051FFF7E8FB3046FFF7D8FFED
:101568002846FFF7D5FF20464FF48051BDE870406C
:10157800FFF7D9BB00040240F0B52A4C89B001211D
:101588000220FFF72BFC204605220D21FFF7CFFB99
:10159800052220460F21FFF7CAFB002602274FF439
:1015A800204301A92046012501938DF808708DF884
:1015B8000A608DF80B608DF80970FFF757FB4FF440
:1015C800805301A920460193A4F5E6348DF808500C
:1015D8008DF80A608DF80B508DF80970FFF746FBFF
:1015E80029464FF48040FFF705FC2046FFF732FC00
:1015F80003A8FFF7A9FC0C4A0823CDE9032303A994
:101608004FF000732046CDE90536FFF77FFC2946E9
:101618002046FFF7A5FC4FF480712046FFF7ABFC8E
:1016280009B0F0BD000402400040040140F2FF335D
:10163800994228BF1946032818D8DFE800F0020AA3
:101648000E12880940F03000C0B28900C9B2FFF715
:101658007BBF880940F07000F6E7880960F04F000A
:10166800F2E7C1F3831040F0F000EEE700210846EE
:10167800EDE7000007B501210420FFF7AFFB0023C9
:10168800ADF806304FF46043009302238DF805301F
:101698006946012304488DF804308DF80730FFF7B8
:1016A800E5FA03B05DF804FB000802400C4B10B5E6
:1016B80008224FF480444FF4005110F0800F02F1DB
:1016C800FF3214BF1C835C83400012F0FF02598371
:1016D800C0B21983F1D14FF480425A8310BD00BFC4
:1016E8000008024010B50446C8B2FFF7DFFF200E1D
:1016F800FFF7DCFFE0B2FFF7D9FFC4F30720FFF7DD
:10170800D5FFC4F30740FFF7D1FF034B4FF4004266
:101718005A831A8310BD00BF00080240034B03EB35
:10172800C000D0E90001FFF7DDBF00BF10000020B6
:1017380007B501210846FFF751FB4FF40943009311
:1017480001220023694606488DF804308DF80720E9
:101758008DF80530FFF78AFA03B05DF804FB00BF87
:101768000000024070B5104E4FF400613046FFF79C
:10177800D4FA4FF4004105463046FFF7CEFA4FF44D
:10178800807104463046FFF7C8FAED434FF0000376
:1017980065F30003E44364F34103C04343F00403E7
:1017A80060F3C303184670BD0000024007B501216D
:1017B8000220FFF713FB4FF480430093022200231B
:1017C800694606488DF804308DF807208DF80530F5
:1017D800FFF74CFA03B05DF804FB00BF00040240B9
:1017E80008B5FFF7BFFFC0F3C00008BD07B501216A
:1017F8000420FFF7F3FA0023ADF8063070230093B6
:1018080002238DF805306946012305488DF8043018
:101818008DF80730FFF72AFA03B05DF804FB00BF24
:101828000008024070B5104E054608242B064FF0FC
:101838002001304615D5FFF776FA10210A48FFF740
:1018480074FA013C10210848FFF76DFA6D0014F096
:10185800FF04EDB2EAD120210348BDE87040FFF74C
:1018680064BAFFF762FAE8E70008024010B50446D8
:101878000078FFF7D7FF6078FFF7D4FFA078FFF76D
:10188800D1FFE078064CFFF7CDFF20464021FFF757
:101898004CFA20464021BDE81040FFF744BA00BF8B
:1018A8000008024007B501210420FFF797FA00233A
:1018B800ADF806304FF46073009303238DF80530BC
:1018C8006946012304488DF804308DF80730FFF786
:1018D800CDF903B05DF804FB0008024070B5114E65
:1018E800054608242B064FF48071304616D5FFF7BD
:1018F8001AFA80210B48FFF718FA013C80210948A1
:10190800FFF711FA6D0014F0FF04EDB2EAD14FF4BD
:1019180080710448BDE87040FFF707BAFFF705FA81
:10192800E7E700BF0008024010B50446C0F30720EF
:10193800FFF7D4FFE0B2074CFFF7D0FF20464FF483
:101948000071FFF7F2F920464FF40071BDE810402E
:10195800FFF7E9B90008024010B500236FF0010451
:10196800DAB2904203F1010307D8FFF739FF40B913
:10197800A0B2BDE81040FFF7D7BF640044F00104EF
:10198800EEE7C4F30740FFF7A9FF200EFFF7A6FF15
:10199800C4F30720FFF7A2FFE0B2FFF79FFF4FF461
:1019A80000710548FFF7C1F94FF400710248BDE81E
:1019B8001040FFF7B8B900BF000802402DE9F04118
:1019C80001218CB00846FFF715FA03A80024FFF799
:1019D8003DFB41F2670303A94FF08040CDE9034383
:1019E800ADF81440FFF7F4FA50214FF08040FFF7AC
:1019F80074FB012204214FF08040FFF749FB0121CD
:101A08004FF08040FFF742FB4FF08040DFF8F8804E
:101A1800038B394F394E43F4E04303830121FFF729
:101A28002AFB1023012188F812330846FFF7D6F95C
:101A3800032301A93248019302948DF80830FFF777
:101A480015F901214FF48070FFF7E0F901214FF4F7
:101A58000070FFF7DBF906A8FEF7FAFF01254FF043
:101A680080534FF0C06206A93846CDE908328DF898
:101A78001D400A948DF82C5006948DF81C40FEF7F2
:101A8800C1FF06A93046FEF7BDFF2A462146384663
:101A98000723FEF7F0FF2A46294630460723FEF7BC
:101AA800EAFF4FF489736846ADF800308DF80240BC
:101AB8008DF80350FEF77AFF124B20461C70FFF793
:101AC8002DFE4FF48023C8F800302A46384640F2ED
:101AD8000521FFF716F82A46304640F20521FFF7A0
:101AE80010F829463846FEF7BDFF29463046FEF76E
:101AF800B9FF0CB0BDE8F081002001400021014091
:101B0800000002409402002000E100E030B501210D
:101B180087B04FF48040FFF779F90024032340F29F
:101B2800E31502A931488DF80D3002958DF80C4067
:101B38008DF80F40FFF79AF821460120FFF732FA97
:101B480001210846FFF72EFA05210120FFF72AFA9E
:101B580006210120FFF726FA07210120FFF722FAC4
:101B680008210120FFF71EFAFFF738F810230DEBC4
:101B78000300049501258DF815308DF814408DF873
:101B88001650FFF739F8062301A8ADF804308DF890
:101B980006408DF80750FEF709FF072301A8ADF8A6
:101BA80004308DF806408DF80750FEF7FFFE172326
:101BB80001A8ADF804308DF806408DF80750FEF7FF
:101BC800F5FE2846FFF74CF80220FFF749F82020D9
:101BD800FFF746F84020FFF743F88020FFF740F86A
:101BE8004FF48070FFF73CF807B030BD00040240A6
:101BF8000F4B1A6912F0010216D10E4B1978012900
:101C080012D0197804290FD0197805290CD00A495F
:101C18000A7002221A70094B1A7842F001021A70EF
:101C28001A7842F002021A700120FFF719B800BFB3
:101C380000040240B9020020B5020020E80200209A
:101C480008B501210220FFF7D5F8094B42F6041226
:101C58001A8500210122DA6259629A811A8842F0B3
:101C680001021A80034B4FF000521A6008BD00BFF2
:101C78000004004000E100E008B501212020FFF742
:101C8800B9F8094B42F604121A8500210122DA62DA
:101C980059629A811A8842F001021A80034B4FF464
:101CA80000025A6008BD00BF0014004000E100E0D7
:101CB80008B501211020FFF79DF80B4845F20823CD
:101CC8000385C823C36201220023436282810388FB
:101CD80013430380054B4FF4800159601146BDE85A
:101CE8000840FFF7E3B900BF0010004000E100E042
:101CF8000F4B1A6912F0020216D10E4B19780129FE
:101D080012D0197804290FD0197805290CD00A495E
:101D18000A7002221A70094B1A7842F001021A70EE
:101D28001A7842F002021A700220FEF799BF00BF2B
:101D380000040240BA020020B6020020E802002097
:101D480038B5194B4FF48022C3F880200446FFF7BA
:101D580047FDE8B9154D16492878A4B2400210FB92
:101D680004F000F47E404FF48072FFF799FA287867
:101D7800400210FB04F000F580704FF480720D49AA
:101D880000F47F40FFF78CFAFFF718FE002038BDFB
:101D980020346402A4B220464FF480720449FFF74D
:101DA8007FFA04F58070E8E700E100E070020020A7
:101DB800980800209809002038B5384B4FF4802245
:101DC800C3F880200446FFF70BFD002859D1344D95
:101DD80034492878A4B2400210FB04F000F47E4095
:101DE8004FF48072FFF7B6FA2878400210FB04F02F
:101DF80000F580704FF480722B4900F47F40FFF7A4
:101E0800A9FA2A4B1B785B0732D52649002301EB38
:101E1800C302506840F400505060506840F480405D
:101E2800506003F1200201EBC202506840F40050F8
:101E38005060506840F48040506003F1100201EB9C
:101E4800C202506840F400505060506840F480402E
:101E5800506003F1300201EBC2020133506840F4D4
:101E6800005050605068102B40F480405060CED134
:101E78000F4A022313700F4A1370BDE83840FFF76A
:101E88009DBD20346402A4B220464FF480720549F7
:101E9800FFF760FA04F58070ACE700BF00E100E0EE
:101EA800700200209808002098090020E002002015
:101EB800B9020020BA02002010B5464A4001431872
:101EC80002EBC304646852F833306405C3F30B3380
:101ED80078D540F2FF3493FBF4F3042B08BF0323B7
:101EE800DBB23D4C9FED3D6A54F8234007EE104AA3
:101EF8003B4C54F8233006EE903AF8EE666AB8EE9A
:101F0800477AC6EE267A27EE877ABCEEC77A431858
:101F180002EBC3035B685C0658D5DFED327A9FEDB0
:101F28002F6AF8EE476A66EEA76AC6EE867AF2EE80
:101F3800006A77EEA67AFCEEE77A431802EBC30351
:101F48005B681B060FD5DFED287A9FED246AF8EE53
:101F5800476A66EEA76AC6EE867ADFED246A77EEF0
:101F6800A67AFCEEE77A431802EBC3035B68DC054C
:101F78000FD5DFED1F7A9FED196AF8EE476A66EE16
:101F8800A76AC6EE867ADFED1B6A77EEA67AFCEEC4
:101F9800E77A084402EBC00253689B050FD5DFEDD2
:101FA800167ADFED0E6AB8EE477A27EE277AC7EE83
:101FB800267A9FED127A77EE877AFCEEE77A17EEAB
:101FC800900A10BD013307EE103AA0E7DFED0C7A56
:101FD800B3E700BF98080020EC07002000F07F4519
:101FE800500200200000E04200008C440000A042A3
:101FF80000002F460000484400C0DA470000FA45B8
:102008000000000070B54401824A631852F833009A
:1020180052F833300001C3F30B0340F1F48040F26F
:10202800FF3093FBF0F3042B08BF0323DBB27A489D
:102038009FED7A6A50F8230007EE900A784850F826
:10204800233006EE903AF8EE666AF8EE677A86EE86
:10205800267A40F6FF7367EE277AFCEEE77A17EEEA
:10206800900A984228BF184607EE900A631852F85B
:102078003300C0F38060C8B152F83330DB0140F15F
:10208800C580684B93ED007AF2EE086A67EE266A1F
:10209800B8EEE76A86EE267ABCEEC77AB8EE477ADB
:1020A80027EE267ABCEEC77A17EE100A631852F8A4
:1020B8003350EE0019D55B4852F8333090ED006A82
:1020C800B8EEE77ADD01C7EE066ABCEEE67A17EEEF
:1020D800100A0AD5544E0C253368B3FBF5F3B0FB50
:1020E800F3F03368B3FBF5F35843651852F835300D
:1020F8009B001CD54B4B52F8350093ED006A4A4DB6
:10210800F8EEE76A10F0807F86EE867ABCEEC77A32
:1021180017EE103A09D028680C26B0FBF6F0B3FB8E
:10212800F0F02B68B3FBF6F34343286818446518AE
:1021380052F835305E001DD53A4B52F8350093ED14
:10214800006A394DF8EEE76A10F0807F86EE867AED
:10215800BCEEC77A17EE103A09D028680C26B0FBF7
:10216800F6F0B3FBF0F32868B0FBF6F043432868B9
:1021780003EB4000651852F83530002B1EDA294B66
:1021880052F8350093ED006A274DF8EEE76A10F033
:10219800807F86EE867ABCEEC77A17EE103A09D0B1
:1021A80028680C26B0FBF6F0B3FBF0F32868B0FB08
:1021B800F6F04343286800EB40001844214402EB42
:1021C800C1035B68DB071DD5164BF8EEE77AD3ED44
:1021D800006A52F8313087EEA67A13F0807F124BEE
:1021E800FCEEC77A17EE900A09D019681A680C2411
:1021F800B1FBF4F1B2FBF4F2B0FBF1F050431B6811
:1022080000EB830070BD07EE903A2FE717EE900AB7
:102218004CE700BF98080020EC07002000F07F453D
:10222800500200208C08002094080020F8B50646CB
:102238000C46FFF7D5FA08BB0F2C1ED80F221A4DF3
:1022480071010B1905EBC3035B689F0610D50023CA
:10225800012702EB040CD8B2844211D3E61A0E44CB
:1022680005EBC6067668F60615D5201AC0B227B95A
:10227800A24286BF601CC0B20020F8BD1F22DEE764
:10228800ACEB03060E4405EBC6067668F60602D5E7
:10229800ACEB0000EAE70133824208BF0027D8B25E
:1022A8009042D8D90020E2E798080020A04B5B694B
:1022B8002DE9F743DF0540F1D4809E4EDFF8A08278
:1022C8003378DBB288F800303378052B374600F0D6
:1022D8008D803378042B00F089803378012B00F04F
:1022E80085803378002B00F08180934C934D2378C0
:1022F80005EBC3035B68C3F34013D8B200283CD096
:10230800002030702178FFF791FF4FF400712070A2
:102318008B48FEF70AFD2278337898F80000217878
:1023280005EBC1014968C1F3C021CDE900014FF4B3
:102338001771844803F0BFF9237805EBC3035B6882
:102348001E0504D54FF400617D48FEF7EEFC2378A6
:1023580005EBC3056B68D80404D54FF48061784851
:10236800FEF7E3FC01217848FEF785FE7648002158
:1023780003B0BDE8F043FEF771BE33702178FFF774
:1023880055FF4FF4007120706D48FEF7CEFC22789F
:10239800337898F80000217805EBC1014968C1F34A
:1023A800C021CDE9000140F26D21664803F083F9B0
:1023B800237805EBC3035B68190504D54FF4006166
:1023C8005F48FEF7B2FC237805EBC3056B68DA04B7
:1023D80004D54FF480615A48FEF7A7FC01215A48FA
:1023E800FEF749FE00215848FEF738FE3B78042BDB
:1023F8002ED1FFF725FC504D002038702978FFF7C3
:1024080015FF4FF4007128704D48FEF78EFC2A78AE
:102418004A4B03EBC2021C46526812F4006F04D008
:102428004FF400614648FEF780FC2B7804EBC303A9
:102438005B68DB0404D54FF480614148FEF775FC06
:1024480001214148FEF717FE00213F48FEF706FE2E
:102458003B78052B01D1FFF7F3FB4FF48070FEF7B3
:10246800FFFB334B5B695F0640F10281374B38490C
:102478001A78D2B20A701A78052A1E4600F0AD8082
:102488001A78042A00F0A9801A78012A00F0A58099
:102498001A78002A00F0A1802E4D284C2A78DFF8FF
:1024A8009490DFF8BC80244F203204EBC2025268BB
:1024B80012F0200FC2F3401154D000221A7029786C
:1024C8000120FFF7B3FE042128702348FEF72DFCF6
:1024D8003A7899F8003098F80000397804EBC1018F
:1024E8004968C1F3C021CDE9000140F2A521154892
:1024F80003F0E1F82B78203304EBC3035B681E0577
:1025080003D508211448FEF710FC2B78203304EB80
:10251800C3046368DC0404D54FF480510E48FEF709
:1025280004FC01210D48FEF7A6FD00210B481FE71A
:10253800003C0140B9020020B702002098080020A2
:10254800000402409857000800200040BA0200200A
:10255800B6020020B802002000000240000401403A
:10256800B5020020197029780120FFF75FFE287056
:102578003A7899F8003098F80000397804EBC101EE
:102588004968C1F3C021CDE900014FF42E717B48A1
:1025980003F091F87A480421FEF7C7FB2B78203323
:1025A80004EBC3035B68180503D508217448FEF7DC
:1025B800BCFB2B78203304EBC3046368D90404D52F
:1025C8004FF480516E48FEF7B0FB01216D48FEF7CD
:1025D80052FD00216B48FEF741FD3778FFB2042F0A
:1025E8003ED1FFF749FB684D684C002333702978CA
:1025F8000120FFF71BFE66492870664B66480A787B
:102608001B780078097804EBC1014968C1F3C0213F
:10261800CDE9000140F2CD21584803F04CF8394685
:102628005748FEF782FB2B7804EBC3035B681A0557
:1026380003D508215248FEF778FB2B7804EBC30436
:102648006368DB0404D54FF480514D48FEF76DFBF9
:1026580001214C48FEF70FFD00214A48FEF7FEFC19
:102668003378052B01D1FFF7EBFA4020FEF7F8FA93
:102678004A4B4B4C5B6913F0200F37D0494B444E03
:102688001B78013BDBB23370474B1B783BB923788F
:1026980043F001032370237843F0020323704FF4BF
:1026A80000714248394DFEF740FB327805EBC20213
:1026B8005268170504D54FF400613C48FEF735FB16
:1026C800337805EBC3035B68D80404D54FF4806105
:1026D8003648FEF72AFB01213548FEF7CCFC344882
:1026E8000021FEF7BBFC2020FEF7BAFA2B4B5B69F2
:1026F800190638D52B4B244E5B78013BDBB233707F
:10270800294B1B78012B07D1237843F00103237051
:10271800237843F002032370042119481B4DFEF768
:1027280004FB3278203205EBC2025268120503D549
:1027380008211348FEF7F9FA3378203305EBC30371
:102748005B68DB0404D54FF480510D48FEF7EDFAC1
:1027580001210C48FEF78FFC0A480021FEF77EFC99
:102768008020FEF77DFA237843F001032370237855
:1027780043F00203237003B0BDE8F08398570008C4
:102788000000024000040140B80200209808002020
:10279800B7020020B9020020B5020020003C014029
:1027A800E802002071020020A80200200004024074
:1027B80000200040000000002DE9F74FBE4DBF4C3F
:1027C800BF4EDFF82CA34FF6FE732B822178002032
:1027D800FFF772FBBB4B93ED047ABB4BB8EE477A1D
:1027E800D3ED046AF0EE0C7A27EE277AF8EE666AE3
:1027F8008346C7EE267AB6EE007A77EE877A9FEDA3
:10280800B37A67EE877AFCEEE77A17EE903A9BB2D6
:102818002B852378AE4DDBB255F833702178C7F39A
:102828004067002F00F005820020FFF7EBFB3378AC
:1028380007461BB13378062B40F0F581A54B1A6883
:10284800BA4298461CD91B68D8F80010DAED007A0D
:10285800DB1B07EE103AF8EE476A07EE10BAB8EE3F
:10286800476AF8EE677A86EE867A002067EE277A5E
:10287800FCEEE77A17EE903AC91A89B2FEF78EF99C
:10288800D8F80030BB421FD2D8F80010DAF8003070
:10289800D8F800207F1A07EE10BA07EE907AF8EE03
:1028A800476AF8EE677A87EEA67A07EE903AF8EE6E
:1028B800677A67EE277AFCEEE77A17EE901A1144EA
:1028C80089B20020FEF76AF92378DBB2002055F8B8
:1028D8003310C1F38931FEF7A9FE5846FDF7BAFD5A
:1028E80002460B4672A1D1E90001FDF757FFDAF85D
:1028F8000070804638468946FDF7ACFD0B46024617
:1029080049464046FDF720FEFEF730F8C0F57F71D6
:1029180003310120FEF78AFE337813B13378062B92
:1029280004D1DAF800300133CAF80030DAF80030A0
:102938005B45C0F01D8121780020FFF763FB654BE4
:1029480018603378062B04BF02233370237805EB15
:10295800C3035B68990705D533785F4ADBB2137008
:1029680002233370237805EBC3035B681A070ED57F
:102978004FF480715948FEF7D0F940B93378042BE9
:1029880005D03378544ADBB21370042333702378AC
:1029980005EBC3035B685B070CD54FF480714F48A8
:1029A800FEF7BBF9012805D133784B4ADBB2137027
:1029B80005233370237805EBC3035B689F0709D4AD
:1029C800237805EBC3035B6818075EBF237805EB24
:1029D800C3035B680023CAF80030337803F0FF00B4
:1029E800002B37D12178FFF721FC4FF400712070BC
:1029F8003A48FEF79AF938492278337808782178E6
:102A080005EBC1014968C1F3C021CDE9000140F2DD
:102A18007C41334802F04FFE237805EBC3035B6823
:102A2800190504D54FF400612C48FEF77EF9237888
:102A380005EBC3035B68DA0404D54FF480612748CB
:102A4800FEF773F901212748FEF715FB00212548F9
:102A5800FEF704FB3378022B5FD123481E4F02F0A8
:102A68004DFE224B3A781B789A4256D14FF40071AA
:102A78001A48FEF75AF9227833783878217805EB26
:102A8800C1014968C1F3C021CDE9000140F28F417D
:102A9800134802F010FE237805EBC3035B681B059F
:102AA80028D54FF400610D48FEF73FF922E000BF3A
:102AB8000000000000F88F4000080040B702002026
:102AC800B9020020EC070020500200200010244624
:102AD8009808002098020020B50200200004024057
:102AE8009857000800200040D9570008BA02002073
:102AF800BC020020237805EBC3035B68DF0404D520
:102B08004FF480614E48FEF710F901214D48FEF759
:102B1800B2FA00214B48FEF7A1FA3378062B27D1E9
:102B280021780020FFF782FB4FF4007120704448A1
:102B3800FEF7FBF8237805EBC3035B68180504D59B
:102B48004FF400613E48FEF7F0F8237805EBC30325
:102B58005B68D90404D54FF480613948FEF7E5F87D
:102B680001213848FEF787FA00213648FEF776FA41
:102B78003378012B34D1344A21781378013B9942B8
:102B88002ED01378013BDBB2237021780020FFF7A9
:102B980039FA81B20020FEF701F84FF40071284895
:102BA800FEF7C3F8237805EBC3035B681A0504D561
:102BB8004FF400612248FEF7B8F8237805EBC30507
:102BC8006B68DB0404D54FF480611D48FEF7ADF84F
:102BD80001211C48FEF74FFA00211A48FEF73EFA79
:102BE8003378032B10D1184B1B78013BDBB22370D1
:102BF80021780020FFF706FA81B20020FDF7CEFF0A
:102C0800124B1B78DBB23370114B1B7843B9114B55
:102C18001A7842F001021A701A7842F002021A7009
:102C280003B0BDE8F08F21780020FFF7EBF981B2FF
:102C380047E63846FFF7E6F981B2384642E600BF74
:102C4800000402400020004071020020B50200206C
:102C5800A8020020E80200202DE9F74FBC4DBD4C2A
:102C6800DFF834A34FF6FE732B8221780120FFF79B
:102C780023F9B94B83465869B84BD3F81480FDF74C
:102C8800E9FB0022B64BFDF75FFC064640460F46BF
:102C9800FDF7E0FB02460B4630463946FDF77EFD60
:102CA8000022B04BB04EFDF799FAA5A3D3E9002353
:102CB800FDF74AFCFDF75AFE80B228852378AB4D14
:102CC8002033012056F833702178C7F34067002F6E
:102CD80000F0DE81FFF796F92B7807461BB12B78B9
:102CE800062B40F0CF81A24B1A68BA4298461CD9ED
:102CF8001B68D8F80010DAED007ADB1B07EE103AF3
:102D0800F8EE476A07EE10BAB8EE476AF8EE677A47
:102D180086EE867A002067EE277AFCEEE77A17EED1
:102D2800903AC91A89B2FDF749FFD8F80030BB427A
:102D38001FD2D8F80010DAF80030D8F800207F1A2F
:102D480007EE10BA07EE907AF8EE476AF8EE677A5F
:102D580087EEA67A07EE903AF8EE677A67EE277A5A
:102D6800FCEEE77A17EE901A114489B20020FDF7BD
:102D780025FF23782033022056F83310C1F3893118
:102D8800FEF754FC5846FDF765FB02460B466EA15C
:102D9800D1E90001FDF702FDDAF8007080463846F7
:102DA8008946FDF757FB0B46024649464046FDF764
:102DB800CBFBFDF7DBFDC0F57F7103310320FEF788
:102DC80035FC2B7813B12B78062B04D1DAF80030B8
:102DD8000133CAF80030DAF800305B45C0F0F680FD
:102DE80021780120FFF70EF9614B18602B78062B2C
:102DF80004BF02232B702378203306EBC3035B68E0
:102E08009B0705D52B785B4ADBB2137002232B7026
:102E18002378203306EBC3035B681F070DD54021D9
:102E28005548FDF77AFF40B92B78042B05D02B784D
:102E3800504ADBB2137004232B702378203306EB3F
:102E4800C3035B68580710D540214B48FDF765FF61
:102E580001280AD12B78052B07D02B78454ADBB2FD
:102E6800137005232B70FEF707FF2378203306EB3A
:102E7800C3035B6899070BD42378203306EBC3039D
:102E88005B681A075FBF2378203306EBC3035B68D0
:102E98000023CAF800302B783BBB21780120FFF7CC
:102EA800C5F9042120703548FDF73FFF237820330A
:102EB80006EBC3035B681B0503D508212F48FDF704
:102EC80034FF2378203306EBC3035B68DF0404D5A3
:102ED8004FF480512948FDF728FF01212848FEF7C3
:102EE800CAF800212648FEF7B9F82B78022B6DD1D5
:102EF800244802F003FC1F4B1A782B789A4265D1BC
:102F080004211E48FDF711FF1F49204B20480A786D
:102F18001B780078097806EBC1014968C1F3C02124
:102F2800CDE9000140F24F511A4802F0C4FB237862
:102F3800203306EBC3035B68180533D52EE000BFCA
:102F4800000000000082C4400000000000F88F402C
:102F5800000C0040B8020020EC07002050020020BE
:102F680000000C400000E03F98080020BA02002052
:102F78009C020020B602002000040240000002402B
:102F880000040140D9570008B7020020B902002008
:102F9800B502002098570008C002002008213F48C9
:102FA800FDF7C3FE2378203306EBC3035B68D9041F
:102FB80004D54FF480513948FDF7B7FE0121384850
:102FC800FEF759F800213648FEF748F82878C0B2CD
:102FD800012833D1334A21785378013B99422DD0C7
:102FE8005378013BDBB223702178FFF70BF881B2ED
:102FF8000020FDF7E3FD04212848FDF796FE23781D
:10300800203306EBC3035B681A0503D50821234860
:10301800FDF78BFE2378203306EBC3067368DB04C9
:1030280004D54FF480511D48FDF77FFE01211C484F
:10303800FEF721F800211A48FEF710F82B78032B29
:1030480010D1184B5B78013BDBB22370217801204B
:10305800FEF7D8FF81B20020FDF7B0FD124B1B78B8
:10306800DBB22B70114B1B78012B08D1104B1A784F
:1030780042F001021A701A7842F002021A7003B084
:10308800BDE8F08F21780120FEF7BCFF81B26DE624
:10309800FEF7B8FF81B2384669E600BF000002407B
:1030A8000004014071020020B6020020A80200209E
:1030B800E80200202DE9FF41504F514E0121042024
:1030C800FDF798FE01A801240025FDF7BFFF42F691
:1030D800041301A93846CDE90134ADF80C50FDF7C9
:1030E80077FF21463846FDF7BBFF21463846FDF7F6
:1030F800C2FF21460820FDF77DFE01A93046FDF7F5
:1031080067FF21463046FDF7ABFF21463046FDF705
:10311800B2FF224621463846FDF7C8FF224621461F
:103128003046FDF7C3FF1E236846ADF800308DF822
:1031380002508DF80340FDF739FC32236846314EC2
:10314800ADF800308DF802508DF80340FDF72EFCE5
:103158002D4B2E4A86F81E5386F83253DA602C4AD5
:10316800082313602B4A13602B4A13602B4A21460D
:103178004FF48070136007F5C057FDF73BFE01A8B8
:10318800FDF764FF4FF0D2084FF4A07301A9384649
:10319800CDE90183ADF80C50FDF71AFF29463846F2
:1031A800FDF769FF224621463846FDF77FFF4FF4B9
:1031B8000053736021460220FDF728FE07F5644797
:1031C80001A8FDF743FF4FF4207301A93846029385
:1031D800CDF80480ADF80C50FDF7FAFE29463846C4
:1031E800FDF749FF224621463846FDF75FFF4FF4B9
:1031F8008053736004B0BDE8F08100BF0008004050
:10320800000C004000E100E000ED00E00007FA05D6
:10321800BC020020C0020020AC020020B002002046
:1032280008B501210D48FDF749FFB0B100210B4851
:10323800FDF721FF04210A48FDF775FD082108481C
:10324800FDF771FD4FF480510548FDF76CFD012134
:103258000248BDE80840FDF73CBF08BD0004014036
:103268000000024008B501210E48FDF727FFC0B154
:1032780000210C48FDF7FFFE4FF400710A48FDF7E6
:1032880052FD4FF400610848FDF74DFD4FF4806191
:103298000548FDF748FD01210248BDE80840FDF753
:1032A80018BF08BD0020004000040240F7B54C4B91
:1032B8004C4C4FF6FE721A822378042B18D02378D0
:1032C800042B1CD14FF480714748FDF726FD0128D7
:1032D80015D10020454D20702978FEF7A7FF404AF8
:1032E8002870138823F001031B041B0C138006E0CD
:1032F8004FF480713C48FDF710FD0028DFD123789A
:10330800052B1BD14FF480713748FDF706FD0128C6
:1033180014D1364936480A78237800780C7835492C
:1033280001EBC4014968C1F3C021CDE900014FF4A4
:10333800C161314802F0BFF903B0F0BD2378052B15
:10334800FAD14FF480712848FDF7E7FC07460028BA
:10335800F2D1264D26492A78264E237808782978EE
:1033680006EBC1014968C1F3C021CDE9000140F273
:103378000F61214802F09FF9277029783846FEF737
:1033880055FF174A28701388174823F001031B04B8
:103398001B0C13804FF40071FDF7C7FC2B7806EB6C
:1033A800C3035B681A0504D54FF400610E48FDF7A6
:1033B800BCFC2B7806EBC3067368DB0404D54FF41A
:1033C80080610948FDF7B1FC01210C48FDF753FE67
:1033D8000A48002103B0BDE8F040FDF73FBE00BF3A
:1033E80000040040B902002000040240B702002097
:1033F800B5020020980800209857000800200040D7
:1034080038B5364B364C4FF6FE721A822378042BA9
:1034180017D02378042B1AD140213248FDF77DFCC0
:10342800012814D10023304D23702978FEF7FEFEC1
:103438002A4A2870138823F001031B041B0C1380ED
:1034480005E040212748FDF768FC0028E1D12378F2
:10345800052B3CD02378052B3FD140212148FDF78F
:103468005CFC002839D1204D207029781F4C0120A0
:10347800FEF7DCFE194A287013881D4823F0010363
:103488001B041B0C13800421FDF74FFC2A78203203
:1034980004EBC2025268120503D508211448FDF74F
:1034A80044FC2B78203304EBC3035B68DB0404D5AE
:1034B8004FF480510E48FDF738FC01210D48FDF707
:1034C800DAFD00210B48BDE83840FDF7C7BD4021B3
:1034D8000448FDF722FC0128BCD138BD0014004087
:1034E800BA02002000040240B80200209808002018
:1034F8000000024000040140F7B5224D01210220DE
:10350800FDF76CFC01244FF460630027032669462D
:10351800284600938DF80440ADF806708DF80560D4
:10352800FDF7A4FB28464FF40071FDF7FCFB284685
:103538004FF40061FDF7F7FB28464FF48061FDF773
:10354800F2FB21462046FDF749FC8DF804400E4C5D
:10355800ADF8067041F20C036946204600938DF8D9
:103568000560FDF783FB20460421FDF7DCFB2046C0
:103578000821FDF7D8FB4FF480512046FDF7D3FB17
:1035880003B0F0BD000402400000024007B501216D
:103598000846FDF723FCC023009303238DF805306C
:1035A80001238DF804306946002304488DF806305D
:1035B800FDF75CFB03B05DF804FB00BF00000240B0
:1035C80010B586B002A8FDF7D5FA01210846FDF727
:1035D80005FC302300936946032315488DF8043011
:1035E800FDF744FB01214FF000500024FDF702FCD9
:1035F8000223059302940394FDF798FA02A9204642
:10360800FDF7A2FA02A91020FDF79EFA2046012133
:10361800FDF7B6FA01211020FDF7B2FA214620463F
:10362800FDF7BCFA21462046FDF7C8FA06B010BDE2
:10363800000002402DE9F04F97B00746FEF7D0F89A
:10364800A74B1A7800280CBF4FF00F0B4FF01F0B39
:10365800002A40F0BF82A34A1278D2B202921A78A6
:10366800D2B2012A0ABFA0490022097803921A7827
:1036780004BFC9B20291022A04D19C4A127802926C
:10368800002203921A78032A04D1984A12780292E7
:10369800012203921A78042A04D1944A12780292D9
:1036A800002203921A78052A04D1904A12780292CD
:1036B800012203921A78062A04D18C4A12780292BF
:1036C800002203921B78072B04D1884B1B780293A6
:1036D80001230393DDE9023203EB4213844A02EB30
:1036E800C30393E8030016AB03E903009DF8536096
:1036F80006F001030C93C6F340030D93C6F3800351
:103708000493C6F3C0030B93C6F300130593C6F3E3
:1037180040130693C6F3801307939DF85430C3F300
:1037280000120892C3F3401203F001040992C3F394
:103738008012DB090F939DF855300E9203F00102B9
:103748000A92C3F340020192C3F380021092C3F3BA
:10375800C00211927A78C3F30013129312F0100387
:103768004FEAD61606D11C461E46CDE9063301237C
:10377800CDE9044312F0200306D11C461E460793E8
:103788000123CDE90543049412F0400306D11C46F9
:103798001E460123CDE90643CDE904441006BB7853
:1037A8005FBF00240126CDE90644CDE9044413F0A7
:1037B800010101BF0E460124CDE90666CDE9046684
:1037C80012F0010106D10C460E46CDE9061105910D
:1037D80001210491F978119811F0100F08BF012008
:1037E80011F0200F08BF0020119011F0400F12981F
:1037F80008BF012011F0800F014608BF0021129177
:1038080039780C9811F0100F08BF012011F0200F23
:1038180008BF00200C9011F0400F0D9808BF012040
:1038280011F0800F014608BF00210D9112F0040F1E
:103838000B9908BF012112F0080F0A4608BF0022A1
:1038480099070B9240F1C8819DF85450C5F340097F
:10385800C5F38008C5F3C00513F0040F08BF4FF087
:1038680000091A0720D41E4A117811B11278022AC9
:1038780007D120490A78042A01BF1F4A1278D2B218
:103888000A70174A1178012902D01278032A07D141
:103898001A490A78042A01BF194A1278D2B20A7062
:1038A80000254FF00108A946D80632D40C4A1178F1
:1038B80011B11278022A07D10E490A78052A01BFE8
:1038C8000D4A1278D2B20A70054A1178012902D03D
:1038D8001278032A1BD109490A78052A12E000BF89
:1038E800A8020020B7020020B8020020A902002088
:1038F80098080020B9020020B5020020BA02002072
:10390800B602002001BF9D4A1278D2B20A704FF069
:103918000008990620D49A4A117811B11278022A1F
:1039280007D198490A78052A01BF974A1278D2B276
:103938000A70934A1178012902D01278032A07D114
:1039480092490A78052A01BF8C4A1278D2B20A70C5
:103958004FF000080125C1465A061DD4884A11783F
:1039680011B11278022A07D186490A78042A01BFC0
:10397800854A1278D2B20A70814A1178012902D098
:103988001278032A07D181490A78042A01BF7B4AA1
:103998001278D2B20A7000255BB2002B099B1099ED
:1039A800A8BF00230993089BA8BF01230893BB79EC
:1039B800089A13F0010F08BF0022089203F00202D0
:1039C800002A099A08BF01220992089A08BF002212
:1039D80013F0040F0892099A08BF002209923A7955
:1039E80012F0010F08BF012112F0020F0A4608BFAA
:1039F8000022109213F0080204D101920A920F9249
:103A080001220E9213F0100205D101920A920122AE
:103A18000F92019A0E9213F0200205D10192012211
:103A28000A92019ACDE90E2213F0400397F800A0FC
:103A380001BF0A9301220192CDE90E331AF0010A5F
:103A48001BD1FEF735F94E4A1378062B40F0FB8060
:103A58004F4B13921878FEF7AFF94E4B139A01218A
:103A6800197082F800A0474A47491378DBB20B70F7
:103A7800494B83F800A00223137097F800A01AF0AE
:103A8800020313930FD1DFF8F8A0FEF711F99AF8A3
:103A98000030042B40F007813D4B1878FEF750F9B1
:103AA800139B8AF800303B78580700F15F81344A4D
:103AB800117821B902231370354B0121197013783D
:103AC800DBB2012B01BF03211170314A13702C4B5B
:103AD8001A78022A02D01B78032B17D12C482F4BB7
:103AE80002781988002A00F01081002940F0058129
:103AF800013A02701A8801321A80294B1A7842F06A
:103B080001021A701A7842F002021A701C4B1A78D5
:103B1800042A08D01A78052A05D01A78062A02D06D
:103B28001B78072B17D1DFF868A01C489AF80030DB
:103B380002880146002B00F0FC80002A40F0F1804A
:103B4800013B8AF800300B8801330B80144A137844
:103B580043F0020313703B78190700F17984084B8E
:103B68001A7822B902221A70094A82F800B01A7823
:103B7800012A02BF03221A70054B13E0B602002087
:103B8800A8020020B9020020B5020020BA020020D5
:103B9800A9020020B4020020B7020020A4020020DD
:103BA800E802002008BF83F800B0764B1A78022A92
:103BB80003D01B78032B40F00B817348734B0278BA
:103BC80019885A4580F0F480002940F0D3800132EA
:103BD8000270F1E0002241E56A4A117811B11278C9
:103BE800022A05D16A4A1178052904BF02211170F9
:103BF800644A1178012902D01278032A05D1654A4E
:103C08001178052904BF022111705E4A117811B19B
:103C18001278022A05D15E4A1178042904BF0221CC
:103C28001170584A1178012902D01278032A05D157
:103C3800584A1178042904BF022111700025A846AA
:103C48004FF0010908E61378072B10D14E4B139259
:103C58001878FEF7B1F85049139A01230B701370C6
:103C68004C4A4E491378DBB20B704D4B01E7137881
:103C780003F0FF016BB906231370434B1970494BCE
:103C88001A7842F002021A701A7842F001021A7089
:103C9800F3E61378012B7FF4F0AE072313703A4B49
:103CA80083F800A0EBE79AF80030052B05D1364BD6
:103CB8001878FEF745F80123F3E69AF8003003F088
:103CC800FF0173B904238AF800302F4B1970354B64
:103CD8001A7842F002021A701A7842F001021A7039
:103CE800E1E69AF80030012B7FF4DDAE05238AF86F
:103CF8000030254B139A1A70E9E7B1F5167F7FF665
:103D0800F9AE4FF4FA711980F2E611B980F800B0F3
:103D1800F0E6B1F5167F7FF6EDAE4FF4FA721A8031
:103D2800F4E7B2F5167F7FF60EAF4FF4FA72028011
:103D380006E7A2B9FDF754FD48B90F238AF8003009
:103D4800194B1A78012A0CBF0222012201E00E4BFE
:103D58001F221A70154A138801331380F6E6B2F54C
:103D6800167FF7D94FF4FA730380E3E70F4B00226D
:103D78001A80F0E6B1F5167F1ED94FF4FA71198052
:103D880025E700BFA8020020A9020020A602002003
:103D9800B9020020BA020020B4020020B6020020B6
:103DA800B8020020E802002070020020A4020020CF
:103DB800002940F0F38201701A8801321A80AA4B58
:103DC8001A7842F001021A701A7842F002021A7048
:103DD800A64B1A78042A08D01A78052A05D01A782A
:103DE800062A02D01B78072B17D1DFF8C8A2A048F3
:103DF8009AF8003002885B45014680F00D83002A5E
:103E080040F0D58201338AF800300B8801330B80EB
:103E1800954A137843F002031370964B01221A70E7
:103E2800954B1A787B7992B913F0040103D18F4A24
:103E3800107800B111703A7912F0400207D18B491D
:103E4800087801281FBF012008708A490A7013F0FA
:103E5800020319D1894A1178012915D088490B70B4
:103E6800814B197841F001011970197841F002016C
:103E780019701378042B02D01378052B04D1814BC9
:103E88007E4A1B78DBB213703A7912F0200019D100
:103E98007D490B78012B15D07C4B1870724B187824
:103EA80040F001001870187840F0020018700B7884
:103EB800042B02D00B78052B04D1754B72491B7863
:103EC800DBB20B70D20640D5724B1A78002A3CD16F
:103ED80001221A70704B6A4A1B78013BDBB21370DF
:103EE800624B1B7843B9604B1A7842F001021A7092
:103EF8001A7842F002021A704FF400716748FCF712
:103F080014FF5F49664B0A7803EBC2028A4652687F
:103F180012F4006F9B4604D04FF400615F48FCF731
:103F280004FF9AF800300BEBC3035B68DB0404D58D
:103F38004FF480615948FCF7F8FE01215948FDF714
:103F48009AF800215748FDF789F83B7913F01003D8
:103F580004BF504A13707B79D8063AD44E4B484A6E
:103F68001B78013BDBB21370404B1B7843B93E4BC7
:103F78001A7842F001021A701A7842F002021A7096
:103F88004FF400714548FCF7D0FE3D49444B0A7890
:103F980003EBC2028A46526812F4006F9B4604D0B3
:103FA8004FF400613D48FCF7C0FE9AF800300BEB77
:103FB800C3035B68D90404D54FF480613748FCF724
:103FC800B4FE01213748FDF756F800213548FDF7C2
:103FD80045F8FB781A073FD5334B1A78002A3BD1AE
:103FE80001221A702C4B294A5B78013BDBB2137013
:103FF8001E4B1B78012B08D11B4B1A7842F001028B
:104008001A701A7842F002021A7004212748FCF745
:104018008CFE1B49224B0A7803EBC2028A4652687F
:1040280012F4006F9B4603D008212048FCF77DFE60
:104038009AF800300BEBC3035B68DB0404D54FF43C
:1040480080511A48FCF771FE01211948FDF713F851
:1040580000211748FDF702F8FB7813F0080104BFA8
:10406800114A117028E000BFE8020020A8020020D1
:10407800A6020020C4020020B4020020B9020020D9
:10408800B7020020B5020020BA020020B8020020C2
:10409800B6020020D0020020710200200004024075
:1040A8009808002000200040D102002000000240B3
:1040B80000040140A902002098073CD4C04BC14A23
:1040C8005B78013BDBB21370BF4B1B78012B08D127
:1040D800BE4B1A7842F001021A701A7842F00202B6
:1040E8001A700421BA48FCF720FEB64AB949137879
:1040F800203301EBC30393465B6813F4006F8A46D1
:1041080003D00821B248FCF710FE9BF8003020339A
:104118000AEBC30ADAF80430D90404D54FF4805105
:10412800AB48FCF702FE0121AB48FCF7A4FF0021D5
:10413800A948FCF793FF7979A84B11F020001A7869
:1041480040F08A81012A0ED01A78DFF8C4C2D2B2B0
:104158008CF8002001221A709C4A137843F001035E
:1041680013709F4B1870FA789E4B12F0040240F0BF
:104178008781187801280ED01878DFF898C2C0B265
:104188008CF80000012018709048037843F0010370
:104198000370934B1A7011F0010F934A40F0988105
:1041A80013780133DBB213708C4B1A78012A44D090
:1041B8001A7802F0FF0A002A40F07681DFF838B258
:1041C80050469BF80010FDF71DFF884B18609BF8C0
:1041D80000105046FEF72AF8854B8BF80000C3F80C
:1041E80000A07E4B834802224FF400711A70FCF73E
:1041F8009CFD8149774B0A7803EBC2028A465268D4
:1042080012F4006F9B4604D04FF400617948FCF724
:104218008CFD9AF800300BEBC3035B68DA0404D515
:104228004FF480617348FCF780FD01217348FCF767
:1042380022FF00217148FCF711FF7B79704A13F0C7
:10424800080F40F0598113780133DBB21370654BC6
:104258001A78012A42D01A7802F0FF07002A40F0A3
:104268003A81DFF860A101209AF80010FDF7CAFE34
:10427800644B18609AF800100120FDF7D7FF624BD5
:104288008AF800001F60574B5148524F0222042100
:104298001A70FCF74AFD4B4A1378203307EBC30327
:1042A80092465B6813F4006F03D008214848FCF776
:1042B8003CFD9AF80030203307EBC3077B68DB042A
:1042C80004D54FF480514248FCF72FFD01214248A4
:1042D800FCF7D1FE00214048FCF7C0FE4B4B1A7892
:1042E800002A40F00C819DF853300C9A62F30003C9
:1042F8000D9A62F34103049A62F382030B9A62F304
:10430800C303059A62F30413069A62F34513079AE6
:1043180062F3861366F3C7138DF853309DF8543053
:10432800089A64F3000369F3410368F3820365F3B1
:10433800C30362F30413099A62F345130E9A62F3F6
:1043480086130F9A62F3C7138DF854300A9A9DF8B2
:10435800553062F30003019A62F34103109A62F345
:104368008203119A62F3C303129A62F304138DF85D
:104378005530DDE9023203EB4213164A02EBC30360
:1043880016AA12E9030083E80300104A137843F0E1
:1043980001031370012017B0BDE8F08FB1F5167F47
:1043A8007FF60AAD4FF4FA721A80002210E4B2F5D3
:1043B800167F7FF62AAD4FF4FA72028022E500BF1D
:1043C80071020020B8020020A8020020E8020020A4
:1043D800000002409808002000040140B9020020B3
:1043E800C4020020BA020020A00200209802002087
:1043F800BC02002000040240B70200200020004058
:10440800A10200209C020020C0020020B40200206B
:10441800B5020020B60200209AB9FDF7E1F940B9CB
:10442800384B8AF800001A78012A0CBF02220122B0
:1044380001E0354B00221A70344A13880133138087
:10444800E6E4B2F5167FF7D94FF4FA730380E4E790
:104458002E4B00221A80E0E4012A7FF484AE2C4A15
:104468001278D2B21A702B4B1A7842F001021A70E5
:104478001A7842F002021A70274B00221A7072E66C
:104488001A78012A7FF487AE244A1278D2B21A70B9
:10449800204B1A7842F001021A701A7842F0020290
:1044A8001A701D4B002275E61A78052A06D01A786C
:1044B800042A1FBF1B78164ADBB21370DFF864A00A
:1044C80000209AF80010FDF7B1FE8AF8000088E68F
:1044D80000231370B1E61A78052A06D01A78042A40
:1044E8001FBF1B780D4ADBB213700D4F01203978BE
:1044F800FDF79CFE3870C6E600231370EEE6002236
:104508001A7047E770020020A9020020A6020020C6
:10451800B5020020E8020020C4020020B6020020F4
:10452800B8020020B702002013B54FF0FF33019303
:10453800BC4B1A7812B11A78062A05D19DF80420C6
:104548006FF382028DF804201A78012A05D01A78B0
:10455800042A02D01A78052A05D19DF804206FF3A1
:1045680041028DF804201B78022B02BF9DF804300D
:104578006FF300038DF80430AB4B1A7812B11A7838
:10458800062A05D19DF804206FF345128DF8042002
:104598001A78012A05D01A78042A02D01A78052A2E
:1045A80005D19DF804206FF304128DF804201B78C0
:1045B8009E4C022B02BF9DF804306FF3C3038DF8A5
:1045C80004302378002B40F05181994B1A78D2B2ED
:1045D8002378DBB2012B02BF964A1178CAB2217840
:1045E80018BF0023022908BF934B217804BF1A780B
:1045F8000023032908BF904B9DF8071004BF1A78C1
:10460800012302EB43128D4B03EBC203DA78C2F3AA
:104618008002D24362F382018DF80710DA78C2F380
:104628000012D243C9B262F304118DF80710DA7888
:10463800C2F34012D243C9B262F345118DF8071094
:10464800DA78C2F38012D243C9B262F386118DF8C8
:104658000710DA78C9B26FEAD21262F3C7118DF87F
:1046680007101A799DF8061002F00102D24362F38E
:1046780000018DF806105A799DF80410C2F3C002A3
:10468800D24362F386118DF804105A79C2F30012EE
:10469800D243C9B262F3C7118DF804101A799DF894
:1046A8000610C2F30012D24362F304118DF806100B
:1046B8001A79C2F34012D243C9B262F345118DF898
:1046C8000610DA789DF80710C2F3C002D24362F3ED
:1046D800C3018DF80710DA78C2F34002D243C9B299
:1046E80062F341018DF80710DA7802F00102D24333
:1046F800C9B262F300018DF807101A799DF8061007
:10470800C2F38012D24362F386118DF806101A792B
:10471800C9B26FEAD21262F3C7118DF806105A793E
:104728009DF8051002F00102D24362F300018DF8F2
:1047380005105A79C2F34002D243C9B262F341016B
:104748008DF805105A79C2F38002D243C9B262F3D8
:1047580082018DF805101A799DF80610C2F34002FF
:10476800D24362F341018DF806101A79C2F3800230
:10477800D243C9B262F382018DF806101B79C3F3E4
:10478800C003DB43CAB263F3C30223788DF8062063
:10479800042B08D02378052B05D02378062B02D0CC
:1047A8002378072B2CD14FF0FF3301932378042B68
:1047B80002D02378052B65D19DF8043043F010030F
:1047C8008DF804301E4B1A6801321A60196840F2DD
:1047D800DB5291424CD89DF804306FF341038DF8B9
:1047E8000430FCF7FDFF58B9164B1A789DF80430D1
:1047F800012A0CBF23F0400303F07F038DF8043037
:1048080001A8FDF733F8237813B12378022B1DD1C3
:1048180040210D48FCF787FA80210B48FCF785FA00
:1048280014E000BFB9020020BA020020A80200204C
:10483800B7020020B8020020A90200209808002032
:10484800CC02002070020020000002402378012BD7
:1048580002D02378032B07D180211E48FCF763FA86
:1048680040211C48FCF761FA02B010BD0022AFE6F7
:10487800196840F6B732914228D89DF8043043F0C1
:104888000203ACE72378062B02D02378072BA8D1A4
:104898009DF8043043F002038DF804300E4B1A687B
:1048A80001321A60196840F2DB52914204D89DF82F
:1048B80004306FF3041392E7196840F6B732914257
:1048C80004D89DF8043043F0100388E700221A60EA
:1048D80087E700BF00000240C802002010B5134C53
:1048E80023781BB9124B1878FDF736F82378012B7B
:1048F80003D1104B1878FDF72FF82378022B0ED030
:104908002378032B0BD02378042B08D02378052B8E
:1049180005D02378062B02D02378072B05D1064B28
:10492800BDE810401878FDF717B810BDA8020020A0
:10493800B7020020B8020020A9020020F7B5FCF752
:10494800CBFD02AE4FF0FF332E4846F8043D0C462F
:104958008021FCF7EAF940212A48FCF7E6F900250E
:1049680041F26F77C4F3072414F008011FD1264AD7
:10497800264B40F6FF7052F8214043F8214053F887
:104988002140632C98BF43F8210001310829F2D156
:104998001F4B1E494FF48022C3F880204FF4484033
:1049A8002022FCF77DFCFDF709F803B0F0BD0135C6
:1049B800B5F5FA6F10D29DF8043003F0D80343F030
:1049C80036036FF3C3038DF804303046FCF74EFF0F
:1049D800FCF782FD0C46C5E7B5F57A6F06D29DF85F
:1049E800043003F0C80343F01B03ECE7BD4206D8CC
:1049F8009DF8043003F0C00343F02D03E3E70025DE
:104A0800E3E700BF00000240EC070020500200204E
:104A180000E100E010B586B0044602A8FCF79AF958
:104A2800039B42F21072B3FBF2F35C430194019BC7
:104A38000BB906B010BD019B013B0193F7E70000DD
:104A4800F8B56B4D4FF6FE732B82FCF745FD694AAE
:104A580013781D2B144621D8674E31781D291FD88D
:104A6800C0B200F00304032C0BD0C4074CBF0023D2
:104A780001331370830755BF013100233170337040
:104A8800F8BD0021284611703170FCF7E7FA2B8831
:104A980023F001031B041B0C2B80F1E71E2B03D012
:104AA800554B1B781E2BEBD10020FCF73DFF4FF434
:104AB800FA70FFF7AFFF4FF6FF70FCF735FF4FF4C2
:104AC800FA70FFF7A7FF0020FCF72EFF4FF4FA70EB
:104AD800FFF7A0FF4FF6FF70FCF726FF4FF4FA70C0
:104AE800FFF798FF0020FCF71FFF414D4FF4FA70C5
:104AF800FFF790FF4FF6FF70FCF716FF00212846DE
:104B0800FCF7ACFA2B8823F001031B041B0C2B8049
:104B180023781E2B3AD1394B0022DA701A715A7158
:104B2800596841F080015960196841F08061196045
:104B380093E8030003EBC20585E8030093E803004C
:104B480002F11005013203EBC505102A85E80300C0
:104B5800EED12B4B02221A702A4B00221A70264AD9
:104B6800002313702370284B1A78062A02D01A786B
:104B7800042A01D100221A701A78072A03D01A7859
:104B8800052A7FF47DAF01221A7079E71A4B1B784A
:104B98001E2BE4D1194B002283F8032183F804214A
:104BA80083F80521D3F8041141F08001C3F80411FA
:104BB800D3F8001141F08061C3F8001103F5807645
:104BC80096E8030002F1200503EBC50585E803001C
:104BD80096E8030002F13005013203EBC505102AFF
:104BE80085E80300ECD1094B02221A70084BB4E7A0
:104BF80000100040A2020020A30200209808002014
:104C0800B9020020B7020020A8020020BA02002042
:104C1800B8020020000000002DE9F04FA04C00234E
:104C28002370237843F00103237023782DED028B42
:104C380043F0020323709B4B5A6842F080025A608B
:104C48001A6842F080621A6093E8030003F58072E4
:104C580082E803008BB0012293E8030003EBC2054E
:104C680085E8030093E8030002F1200503EBC5057E
:104C780085E8030093E8030002F1100503EBC5057E
:104C880085E8030093E8030002F13005013203EBE5
:104C9800C505102A85E80300DED18348834DFCF75B
:104CA80059F8FEF729FCFEF771FCFCF741FDFCF70B
:104CB80059FD2870FCF7F6FD4FF6FF70FCF734FE3F
:104CC8004FF47A70FFF7A6FE287840F47F4040F052
:104CD800F000FCF729FE4FF47A70FFF79BFEFCF713
:104CE8003DFAFCF783FD0AA86FF0090340F81C3D64
:104CF800FCF7BCFDFCF754FBFCF7EEFB66A3D3E91D
:104D08000023CDE90601CDE90823FCF735FCFCF7C3
:104D1800B1FC0020FCF702FDFCF750FEFEF7CAF9D3
:104D2800FCF7F4FEFEF74CFCFCF740FD604A02235A
:104D38001370604A1370FCF7CFFBCDE90601DDE97B
:104D4800062313F4807FCDE90423019514D1FFF7DE
:104D5800F5FDDFF87C91DFF87C819FED578A00250F
:104D6800019B1B7898071BD540F29913C9F80030AE
:104D7800524BC8F800301DE0202251494FF44840FA
:104D8800FCF7E8FA4E4A002340F6FF7152F8230078
:104D9800632898BF42F823100133082BF6D1D8E7CF
:104DA800019B1B78D90742D540F2ED13C9F80030B2
:104DB80088ED008A002D40D1FCF78EFBCDE9060175
:104DC8000135EDB2032D28BF00252378DA0716D563
:104DD800FFF7AAFB23786FF300032370394B1A7887
:104DE800042A08D01A78052A05D01A78062A02D08B
:104DF8001B78072B03D1237843F001032370237812
:104E08009B0705D5FFF76AFD23786FF341032370ED
:104E18002D4FDFF8ACA00026FCF7E2FC00285BD1A0
:104E2800BB5D102B01D90123BB550F2055E040F283
:104E38003333C9F80030254B9BE7022DC0D1FCF76E
:104E48004BFBDDE90623994208BF904240F0A4805D
:104E58001C49DDE9062308780428CDE9042306D097
:104E68000878052803D00878062818BF0978DDE9EE
:104E78000667DDE908018F4208BF864204D102F0C7
:104E88000C020C2A00F0888004A8FEF7D3FBDDE9A9
:104E98000623CDE9082393E7FFFDFFF767BF7F00EF
:104EA800E802002098080020180B0020E0020020EB
:104EB800B9020020BA020020D7A304410000204113
:104EC80050020020A8020020710200200000A0402B
:104ED800940800208C0800201F20BB5D2F4ADBB2FD
:104EE8009355BB5D83424ED8B31DBA5D5AF8233043
:104EF8005343421CB3FBF2F314339BB2BA5D012A4D
:104F080043D9B21DB95D5AF8222001394A43411CE0
:104F1800B2FBF1F2143A1FFA82FC0A22009240F620
:104F2800FF7E00221E49002E32D18969DAF818B0B6
:104F3800C1EB0131B1FBFBF189B2714594BF521845
:104F48007244009901390091ECD1B95D814208D8C9
:104F58000A2192FBF1F19942C1BFBB5D0133DBB27B
:104F6800BB55BB5D012B09D90A2392FBF3F26245BD
:104F7800BFBFBB5D03F1FF33DBB2BB55002E7FF42F
:104F8800EFAE012648E70023B8E74FF0000CC4E76E
:104F9800C969DAF81CB0CBE7002516E773020020D0
:104FA800EC07002010B586B0044602A8FBF7D2FE35
:104FB800039B064AB3FBF2F35C430194019B0BB9D4
:104FC80006B010BD019B013B0193F7E7809698005E
:104FD800F8B5BE4E02213046FBF79FFD012840F090
:104FE800D681BB4C23780F2B00F26E812378B94A07
:104FF800203302EBC3035B68F16C13F4005F237882
:1050080000F01081203352F83330C3F30713B3EBA9
:10501800111F07D12378203302EBC30359686FF3BC
:105028004D315960237802EBC3035D68F16C237836
:10503800C5F34035DBB2002D00F01D8152F8333046
:10504800C3F30713B3EB111F06D1237802EBC30296
:1050580053686FF34D335360FCF7C2FB00286ED0E2
:105068002378272B37D92378372B34D82278994BB4
:10507800083203EBC2025268900440F13381F16CAC
:105088002278083253F83220C2F30B02914207D13A
:105098002278083203EBC20251686FF34D31516038
:1050A8002278183A03EBC2025568C5F34035002D43
:1050B80000F02B81F16C2278183A53F83220C2F3B1
:1050C8000B02914207D12278183A03EBC2035A68BF
:1050D8006FF34D325A602378372B30D92378472B1A
:1050E8002DD8F06C23787B49283B51F8335023782E
:1050F800283BC5F30B3551F83320401BC2F30B3264
:1051080002EB101251F8330062F3173041F8330004
:10511800F06C2378083B51F833502378083BC5F3EB
:105128000B3551F83320401BC2F30B3202EB10123F
:1051380051F8330062F3173041F833000125237822
:10514800172B38D92378272B35D82278614B183A72
:1051580003EBC2025268510440F1EB802278183AFE
:1051680053F83220F16CC2F30742B2EB111F07D19A
:105178002278183A03EBC20251686FF38E315160FE
:105188002278083203EBC2025268520440F1E880E8
:105198002278083253F83220F16CC2F30742B2EB9E
:1051A800111F07D12278083203EBC2035A686FF344
:1051B8008E325A60012502214448FBF7B4FC464C64
:1051C80002212046FBF7A9FC012811D1404B1A788F
:1051D8000F2A09D91A78172A06D81B783F4AE16C92
:1051E800103B054642F8231002213B48FBF79BFC85
:1051F800FCF7F6FA002800F0CC80002D00F0D480EF
:10520800334B1A780132D2B21A701A78472A01D968
:1052180000221A701878FCF781FA0A20BDE8F840D5
:10522800FFF7C0BE2E48203389B230F813702578B6
:105238002035C91B30F8153003EB21139BB220F839
:1052480015302378203330F813002378203352F8B0
:10525800335023782033C5F30B0552F83310401B25
:10526800C1F30B0101EB201152F8330061F30B007D
:1052780042F83300D6E61A4830F813702578EDB2B4
:1052880089B230F81530C91B03EB21139BB220F803
:1052980015302378DBB230F813002378DBB252F8EC
:1052A80033502378DBB2C5F30B0552F83310401B9B
:1052B800C1F30B0101EB201152F8330061F30B002D
:1052C80042F833000125C7E60025C5E60020014065
:1052D800940200209808002000210140EC070020DB
:1052E800980A0020F06C2178083153F83120217891
:1052F8000831C2F30B02024453F83100C2F34B02E7
:1053080062F30B0043F83100CAE6F06C21781839D3
:10531800012553F8312021781839C2F30B020244D1
:1053280053F83100C2F34B0262F30B0043F831002B
:10533800D1E6F06C2278183A53F832502278183AAD
:10534800C5F30B3553F83210401BC1F30B3101EB99
:10535800101153F8320061F3173043F832000FE7A9
:10536800F06C2278083253F8325022780832C5F3AC
:105378000B3553F83210401BC1F30B3101EB101100
:1053880053F8320061F3173043F8320012E7002572
:1053980015E74DB1054B1A780132D2B21A701A7856
:1053A800272A88BF187035E7F8BD00BF940200208F
:1053B8007FB502A8FBF7CEFC00230193019B13B92C
:1053C80007B05DF804FB019B013BF6E7DFF834D03A
:1053D800002103E00C4B5B58435004310B480C4B45
:1053E80042189A42F6D30B4A02E0002342F8043BE3
:1053F800094B9A42F9D300F033F800F099F9FFF716
:105408000BFC704700000220E8570008000000204D
:105418007802002078020020280B0020FEE7704761
:10542800FEE7FEE7FEE7FEE7704770477047704704
:1054380010B500234FF06044934201DB104610BDC5
:10544800D4F8800EC00708D5D4F8000EC00704D5DC
:1054580020680028FCD0C85C20700133ECE700000D
:10546800364AD2F8883043F47003C2F88830344B97
:105478001A68002142F001021A6099601A6822F045
:10548800847222F480321A602E4A5A601A6882B0F6
:1054980022F480221A60D960009101911A6842F4BE
:1054A80080321A6019461A6802F400320192009A92
:1054B80001320092019A1AB9009AB2F5A06FF2D19E
:1054C8000B6813F4003318BF01230193019B012BD0
:1054D8002ED11B4B1C491A6C42F080521A640A6880
:1054E80042F440420A609A689A609A6842F400421C
:1054F8009A609A6842F4A0529A60144A5A601A68EC
:1055080042F080721A601A689201FCD5104A40F283
:10551800057111609A6822F003029A609A6842F055
:1055280002029A60064A936803F00C03082BFAD12A
:10553800024B4FF000629A6002B0704700ED00E045
:105548000038024010300024007000401954400711
:10555800003C0240F0B50123B1FBF3F4944201D2C0
:1055680013B9F0BD5343F7E70568B1FBF3F6F4B29E
:10557800092E05F10107CCBF3734303403FB16116F
:10558800076093FBF2F32C70EAE72DE9F34102ADD3
:105598000C4645F8040D134606462D27227832B9E5
:1055A800019B1A700198801B02B0BDE8F081252A82
:1055B80047D16278642A21D00AD8582A13D0632A9E
:1055C80015D0252A09D10199481C01900A7004E0D8
:1055D800732A23D003D8692A10D00234DEE7752A4B
:1055E8002AD0782AF9D103F10408102227E0019A79
:1055F8001968501C019004331170EEE719680029EE
:1056080003F1040804DA019B5A1C019249421F70F5
:105618000A222846FFF79EFF4346DEE7191D1B684E
:10562800013B13F8012F0AB90B46D6E7019A501C23
:10563800019018781070F4E703F104080A22196839
:10564800E7E70199481C019001340A70A6E730B5D4
:1056580002460020137803B930BD252B02F101045E
:1056680026D15378692B13D008D8632B0ED0642B1E
:105678000ED0582B08D100F108030BE0752B07D08A
:10568800782BF8D0732B07D0431C0EE00431FBE7CE
:1056980000F10B03043108E00A680D1D801A131885
:1056A80012F8011B0029FAD12946621C1846D1E7D5
:1056B800431C1446F9E70FB4B0B582B000AF07F148
:1056C800180454F8045B7C6021462846FFF7BFFFA6
:1056D800073020F00700ADEB000D2246294668464A
:1056E800FFF753FF694602460120FFF7A1FE08377E
:1056F800BD46BDE8B04004B07047000038B5054667
:10570800FAF75EFD2946024604460120FFF790FE9F
:105718000122054605491046FFF78AFE0134284450
:10572800201A18BF4FF0FF3038BD00BFD757000808
:1057380070B50D4E0D4CA41BA4100025A54209D12F
:105748000B4E0C4C00F018F8A41BA4100025A54221
:1057580005D170BD56F8253098470135EEE756F863
:10576800253098470135F2E7E0570008E057000870
:10577800E0570008E4570008F8B500BFF8BC08BCBB
:105788009E467047F8B500BFF8BC08BC9E467047F7
:105798004C696E653A202569200A20537465702388
:1057A8003B202569200A204D6F64653A2025642036
:1057B8000A2020507265764D6F64653A2025642072
:1057C8000A2050756C7365313A202569200A200A31
:0857D8000053544F5020000063
:0457E000AD0100080F
:0457E400890100082F
:1057E800000000000102030401020304060708097F
:1057F800F0FFFFFF00000000F1FFFFFF00000000C6
:10580800F2FFFFFF00000000F3FFFFFF00000000B1
:10581800F4FFFFFF00000000F5FFFFFF000000009D
:10582800F6FFFFFF00000000F7FFFFFF0000000089
:105838000FFFFFFF000000001FFFFFFF0000000038
:105848002FFFFFFF000000003FFFFFFF00000000E8
:105858004FFFFFFF000000005FFFFFFF0000000098
:105868006FFFFFFF000000007FFFFFFF0000000048
:10587800FFF0FFFF00000000FFF1FFFF0000000045
:10588800FFF2FFFF00000000FFF3FFFF0000000031
:10589800FFF4FFFF00000000FFF5FFFF000000001D
:1058A800FFF6FFFF00000000FFF7FFFF0000000009
:1058B800FFFFF0FF00000000FFFFF1FF0000000005
:1058C800FFFFF2FF00000000FFFFF3FF00000000F1
:1058D800FFFFF4FF00000000FFFFF5FF00000000DD
:1058E800FFFFF6FF00000000FFFFF7FF00000000C9
:1058F800FFFF0FFF00000000FFFF1FFF0000000078
:10590800FFFF2FFF00000000FFFF3FFF0000000027
:10591800FFFF4FFF00000000FFFF5FFF00000000D7
:10592800FFFF6FFF00000000FFFF7FFF0000000087
:10593800FFFFFFF000000000FFFFFFF10000000084
:10594800FFFFFFF200000000FFFFFFF30000000070
:10595800FFFFFFF400000000FFFFFFF5000000005C
:10596800FFFFFFF600000000FFFFFFF70000000048
:10597800FFFFFF0F00000000FFFFFF1F00000000F7
:10598800FFFFFF2F00000000FFFFFF3F00000000A7
:10599800FFFFFF4F00000000FFFFFF5F0000000057
:1059A800FFFFFF6F00000000FFFFFF7F0000000007
:1059B800FFFFFFFF00000000FFFFFFFF01000000E6
:1059C800FFFFFFFF02000000FFFFFFFF03000000D2
:1059D800FFFFFFFF04000000FFFFFFFF05000000BE
:1059E800FFFFFFFF06000000FFFFFFFF07000000AA
:1059F800FFFFFFFF0F000000FFFFFFFF1F00000079
:105A0800FFFFFFFF2F000000FFFFFFFF3F00000028
:105A1800FFFFFFFF4F000000FFFFFFFF5F000000D8
:105A2800FFFFFFFF6F000000FFFFFFFF7F00000088
:105A3800FF0F0000FF0F0000FF0F0000FF0F000026
:105A4800FF0F0000FF0F0000FF0F0000FF0F000016
:085A5800010101010100000041
:04000005080053D5C7
:00000001FF
